:020000040800F2
:10000000201900202D190008B91C0008BB1C00088D
:10001000472300084B2300084F230008000000007E
:100020000000000000000000000000005323000852
:10003000552300080000000057230008592300083A
:100040004719000847190008471900084719000810
:100050004719000847190008471900084719000800
:1000600047190008471900084719000847190008F0
:1000700047190008471900084719000847190008E0
:1000800047190008471900084719000847190008D0
:1000900047190008471900084719000847190008C0
:1000A00047190008471900084719000847190008B0
:1000B00047190008E12100084719000847190008FE
:1000C0004719000847190008471900084719000890
:1000D00047190008BF1C0008D92000081B21000890
:1000E0004719000847190008471900084719000870
:1000F0004719000847190008471900084719000860
:10010000471900084719000847190008471900084F
:100110005D2100089F2100084719000847190008C1
:10012000471900084719000847190008471900082F
:1001300000F002F800F03AF80AA090E8000C8244BF
:100140008344AAF10107DA4501D100F02FF8AFF29C
:10015000090EBAE80F0013F0010F18BFFB1A43F0A5
:1001600001031847D0500000F0500000103A24BF9F
:1001700078C878C1FAD8520724BF30C830C144BF0C
:1001800004680C607047000000230024002500264E
:10019000103A28BF78C1FBD8520728BF30C148BFEA
:1001A0000B6070471FB51FBD10B510BD05F006F8F8
:1001B0001146FFF7F7FF01F08CFA05F024F803B4BD
:1001C000FFF7F2FF03BC05F029F8000000BF0100B3
:1001D000A0F10100FBD1704710B5044604F0800087
:1001E000802805D10022C101F74802F0F2F904E0AD
:1001F00001229103F44802F0ECF904F04000402899
:1002000005D100224102F04802F0E3F904E00122A6
:10021000D103ED4802F0DDF904F02000202805D1DB
:1002200000220121E84802F0D4F904E0012211463D
:10023000E54802F0CEF904F01000102805D10022A4
:100240000421E14802F0C5F904E001220421DE485E
:1002500002F0BFF904F00800082805D100220821A7
:10026000D94802F0B6F904E001220821D64802F08C
:10027000B0F904F00400042805D100220221D3487B
:1002800002F0A7F904E001220221D04802F0A1F90E
:1002900004F00200022805D100220121CB4802F01F
:1002A00098F904E001221146C84802F092F910BD05
:1002B00010B5044604F01000102805D100220221D8
:1002C000C14802F086F904E001220221BE4802F092
:1002D00080F904F00F00102849D2DFE800F02C0864
:1002E0000C1014181C2024283034383C40440C20B6
:1002F000FFF772FF3FE0DA20FFF76EFF3BE0F220EE
:10030000FFF76AFF37E06620FFF766FF33E0B620AD
:10031000FFF762FF2FE0BE20FFF75EFF2BE0E0203B
:10032000FFF75AFF27E0FE20FFF756FF23E0E62005
:10033000FFF752FF1FE0FC20FFF74EFF1BE03A20C3
:10034000FFF74AFF17E03E20FFF746FF13E01A20B1
:10035000FFF742FF0FE07A20FFF73EFF0BE09E2001
:10036000FFF73AFF07E08E20FFF736FF03E0FF209C
:10037000FFF732FF00BF00BF10BD08B54FF480701B
:10038000ADF8000004208DF8030000208DF8020075
:1003900069468E4802F06CF80320ADF8000010208A
:1003A0008DF8030003208DF802006946874802F0AB
:1003B0005FF86020ADF8000004208DF803000020F5
:1003C0008DF802006946824802F052F84FF46070DE
:1003D000ADF8000010208DF8030003208DF8020016
:1003E00069467B4802F044F84FF47070ADF80000A5
:1003F00004208DF8030000208DF802006946724841
:1004000002F036F84EF20F00ADF8000010208DF823
:10041000030003208DF8020069466B4802F028F8BB
:100420004FF6F060ADF8000004208DF803000020C6
:100430008DF802006946674802F01AF84FF48070A0
:10044000ADF8000010208DF8030003208DF80200A5
:100450006946604802F00CF84CF20C00ADF8000060
:1004600004208DF8030000208DF8020069465A48E8
:1004700001F0FEFF43F6F370ADF8000010208DF898
:10048000030003208DF802006946534801F0F0FF95
:100490000320524908800020514908804CF20F0087
:1004A000504908804FF480704F49088000204F4920
:1004B00008804A480188454802F090F84848018879
:1004C000434802F08BF8474801883F4802F086F81D
:1004D000454801883F4802F081F8444801883E4879
:1004E00002F07CF808BD10B502F010F94FF480302E
:1004F00002F02CF900BF312002F04BF90028FAD0AD
:1005000002203B490860002002F0A5F9002002F01B
:10051000B4F94FF4806002F0A7F94FF4E0114FF402
:10052000803002F07BF9012002F084F900BF39200D
:1005300002F02FF90028FAD0022002F07EF900BF65
:1005400002F084F90828FBD101217D2002F04CFA49
:100550000121880302F055FA00214FF0006002F0FB
:10056000E2FC4FF4407002F0A7FC042002F0F3FC20
:10057000FFF703FF10BD10B50246002002E013781C
:100580005840521C0B00A1F10104E1B2F7D110BD9B
:1005900010B501220221104802F01BF810BD10B561
:1005A000002202210C4802F014F810BD10B50122FF
:1005B0001146094802F00DF810BD10B500220121C6
:1005C000054802F006F810BD001001400008014087
:1005D000000C014000140140001801406A00002096
:1005E0006C0000206E0000207000002072000020CF
:1005F0000020024010B501225102FD4801F0E9FF40
:1006000010BD10B500224FF40071F94801F0E1FF70
:1006100010BD10B501221102F54801F0DAFF10BD3E
:1006200010B500224FF48071F14801F0D2FF10BDE7
:1006300010B501228021EE4801F0CBFF10BD10B5AE
:1006400000228021EA4801F0C4FF10BD10B5E9483E
:100650000078012801D101F018FB1222E649E74891
:1006600004F032FD4FF48071E54801F094FFE24957
:1006700008704FF40071E34801F08DFFDE494870C7
:100680004FF48071DF4801F086FFDB4988708021DC
:10069000DC4801F080FFD849C8704021D94801F0FA
:1006A0007AFFD54908714FF40041D74801F073FF34
:1006B000D14948714FF48041D34801F06CFFCE49D5
:1006C00088714FF40051D04801F065FFCA49C871E4
:1006D0004FF48051CC4801F05EFFC74908721021E9
:1006E000C94801F058FFC44908732021C64801F0E9
:1006F00052FFC14948734021C34801F04CFFBE4935
:100700008873C248007801280ED10846007858B98D
:100710000846407940B10120BD49087040F6B83024
:10072000BC490860FFF734FFB448007828B9B248E4
:10073000007810B1C820B8490860AF48407980B946
:10074000B648007868B9FFF72AFF0020B049087062
:100750000120B349087001220103B24801F039FFBA
:1007600008E00020AE49087000224FF48051AD48E7
:1007700001F02FFFA148C07838B99F48C07820B158
:100780000020A7490870FFF718FF9C48007938B986
:100790009948007920B10020A1490870FFF731FF86
:1007A0009548807938B901209F4908700122C1021B
:1007B0009C4801F00EFF9048C07938B902209A4950
:1007C000087000228102974801F003FF10BD10B5A8
:1007D0000446FFF7EBFE9548048005E0FFF736FF7F
:1007E0008F48007800B903E0904800880028F5D1D0
:1007F00000BF8E48008808B9FFF7DFFE10BD10B5B6
:100800000446FFF7F7FE8948048005E0FFF71EFF66
:100810008348007800B903E0844800880028F5D1B7
:1008200000BF8248008808B9FFF7EBFE10BD10B585
:100830000446FFF7ADFE7D48048006E0FFF706FFA3
:1008400077480078012800D103E078480088002824
:10085000F4D100BF10BD10B500221021714801F085
:10086000B8FE002220216F4801F0B3FE10BD10B584
:10087000002210216B4801F0ACFE012220216948C2
:1008800001F0A7FE32206949088005E0FFF7DEFE8F
:100890005948807900B903E0644800880028F5D100
:1008A00000BFFFF7D8FF10BD10B5012210215D4831
:1008B00001F08FFE002220215A4801F08AFE3220EA
:1008C0005A49088005E0FFF7C1FE4B48C07900B9DE
:1008D00003E0564800880028F5D100BFFFF7BBFFB2
:1008E00010BD01228A400243D0B2704701228A40E3
:1008F0009043704710B5044610214D4802F014FA99
:1009000000BF80214A4802F07DFA0028F9D0214634
:10091000474802F009FA00BF8021454802F072FA08
:100920000028F9D010BD2DE9F04105462C46277866
:10093000641C39462046FFF71EFE804610213C48C5
:1009400002F0F2F900BF8021394802F05BFA00287A
:10095000F9D00221364802F0E7F900BF802134487F
:1009600002F050FA0028F9D000261BE02078102869
:100970000AD110212E4802F0D7F900BF80212C485F
:1009800002F040FA0028F9D02178294802F0CCF989
:1009900000BF8021264802F035FA0028F9D0641CF7
:1009A000701CC6B2BE42E1DB1021214802F0BCF946
:1009B00000BF80211E4802F025FA0028F9D002214C
:1009C0001B4802F0B1F900BF8021194802F01AFA61
:1009D0000028F9D04146164802F0A6F900BF802150
:1009E000134802F00FFA0028F9D0BDE8F0810000AA
:1009F000000C014023000020600100207201002053
:100A00000008014000100140001401404D0000208A
:100A100028000020380000203C0000202600002094
:100A200029000020001801404E0000202A0000206C
:100A300000380140F649C97A21B9017941F0010134
:100A4000017103E0017901F0FE010171F049097BB8
:100A500021B9017941F00201017103E0017901F04E
:100A6000FD010171EA49497B21B9017941F0040195
:100A7000017103E0017901F0FB010171E549097899
:100A8000012904D1817941F00102827103E0817969
:100A900001F0FE028271E0490978012904D101794F
:100AA00041F00801017103E0017901F0F7010171E2
:100AB000DA490978022907D1017941F02001017151
:100AC000017901F0EF010171D4490978012907D1B9
:100AD000017941F010010171017901F0DF0101712B
:100AE000CB49497819B9017901F0BF010171C849B1
:100AF000897819B9017941F040010171704710B549
:100B000004460120C64908700020FFF7D1FB0020F1
:100B1000FFF762FB00216171FFF7A9FE00224FF48D
:100B20008071C04801F055FD322003F05BF9FFF7FA
:100B30008DFD01221102BB4801F04BFD322003F074
:100B400051F9FFF783FDB2480078012808D1B64873
:100B5000007828B960790021FFF7C8FE607109E0CC
:100B600060790021FFF7BDFE60716320E070112005
:100B7000FFF79EFBA6488078012808D1AA48807814
:100B800028B960790321FFF7B1FE607109E060794F
:100B90000321FFF7A6FE60716320E0701320FFF7CA
:100BA00087FB9B48C078012808D19F48C07828B9A6
:100BB00060790421FFF79AFE607109E060790421F1
:100BC000FFF78FFE60716320E0701420FFF770FB69
:100BD0008F480079012808D19348007928B96079B5
:100BE0000521FFF783FE607109E060790521FFF7B9
:100BF00078FE60716320E0701520FFF759FB844890
:100C00004079012808D18848407928B960790621BF
:100C1000FFF76CFE607109E060790621FFF761FE65
:100C200060716320E0701620FFF742FB7848C079BE
:100C3000012808D17C48C07928B960790821FFF7DC
:100C400055FE607109E060790821FFF74AFE607186
:100C50006320E0701820FFF72BFBC8207349086061
:100C600073490860FFF794FCFFF71EFE00224FF463
:100C700080716C4801F0ADFC322003F0B3F8FFF74F
:100C8000E5FC01221102674801F0A3FC322003F0C9
:100C9000A9F8FFF7DBFC5E484078012808D16248DC
:100CA000407828B960790221FFF720FE607109E0E1
:100CB00060790221FFF715FE60716320E070122059
:100CC000FFF7F6FA52488079012808D15648807912
:100CD00028B960790721FFF709FE607109E06079A2
:100CE0000721FFF7FEFD60716320E0701720FFF71A
:100CF000DFFAFFF754FCFFF7BAFD00204649087001
:100D00004749087010BD10B50446FFF79FFC204608
:100D1000FFF790FE10BD70B505460C4645480580AE
:100D200006E0FFF793FC3C480078A04200D103E0C6
:100D3000404800880028F4D100BF70BD10B50446BB
:100D400000203D4908700122D1023C4801F041FCDD
:100D5000FFF77CFCFFF72AFCFFF71AFC3848FFF787
:100D600035FAFFF72AFCFFF71AFCFFF743FCFFF701
:100D70006DFC2A480078022801D1FFF778FDFFF7C3
:100D800065FC26480078012801D1FFF78DFD2C482D
:100D9000FFF71CFAFFF735FCFFF758FC1F480078F7
:100DA000022801D1FFF763FD2046FFF7ACFF204684
:100DB000FFF7A5FE002017490870174908700022A8
:100DC0004FF400611D4801F004FC10BDF0B58BB07C
:100DD00007460D461646FE241AA103C9CDE90101B6
:100DE00003A9522003F090FF044684B1192017494B
:100DF00008802DE003F0C5FF03F0BDFF03F0AEFF58
:100E000003A9522003F080FF04460CBB24E024E039
:100E10006001002028000020290000204E00002052
:100E2000260000200014014072010020380000203C
:100E30003C0000202A0000205D0000200018014036
:100E400040420F00FFFFFFFFFFFF00006000002097
:100E5000FC4800880028CDD100BF1920F94908803E
:100E600000BF03A803F018FF044604B903E0F548E7
:100E700000880028F5D100BF1920F249088000BF82
:100E800003A803F0D0FE044604B903E0ED4800884F
:100E90000028F5D100BF1920EA49088000BF03AB44
:100EA00001AA2946602003F087FE044604B903E046
:100EB000E44800880028F2D100BF3220E1490880D0
:100EC00000BF3146284603F0FDFD044604B903E0A7
:100ED000DC4800880028F4D100BF20460BB0F0BDEC
:100EE000F0B58BB007460D461646FE24AFF2AC01B6
:100EF00003C9CDE9010103A9522003F005FF04460F
:100F0000ACB11920CF4908800CE003F03AFF03F0A0
:100F100032FF03F023FF03A9522003F0F5FE04463D
:100F200004B903E0C74800880028EED100BF1920AB
:100F3000C449088000BF03A803F0AEFE044604B90C
:100F400003E0C04800880028F5D100BF1920BD4942
:100F5000088000BF03A803F066FE044604B903E05E
:100F6000B84800880028F5D100BF1920B54908808D
:100F700000BF03AB01AA2946602003F01DFE044612
:100F800004B903E0AF4800880028F2D100BF322046
:100F9000AC49088000BF3146284603F0BDFD044639
:100FA00004B903E0A74800880028F4D100BF204618
:100FB0000BB0F0BD70B506460D46FE242946522002
:100FC00003F0A2FE0446ACB119209E4908800CE053
:100FD00003F0D7FE03F0CFFE03F0C0FE29465220F7
:100FE00003F092FE044604B903E096480088002806
:100FF000EED100BF19209349088000BF284603F0B6
:101000004BFE044604B903E08E4800880028F5D161
:1010100000BF19208B49088000BF284603F003FE5B
:10102000044604B903E0874800880028F5D100BFD2
:10103000204670BD70B505460C46042D02D0052D26
:1010400045D11EE096208049088008E0FFF7A7FA06
:10105000FFF7FCFA7D48007A102800D103E07A48B7
:1010600000880028F2D100BF7748008820B96520A9
:10107000A0704120E07003E07320A0700020E070B9
:1010800026E073480078E8B996206F49088007E0A9
:10109000FFF77EFAFFF7DAFA6C48007A00B903E04E
:1010A000694800880028F3D100BF6748008820B94C
:1010B0006520A0704020E07008E07320A070002040
:1010C000E07003E06520A0700320E07000E000BF46
:1010D00000BF70BD70B5002400265E48007801286E
:1010E00079D15D4908705D4800788A2874D011DC98
:1010F000842872D007DCF0B1812820D0822855D016
:1011000083286BD16DE0862869D0872868D088282D
:10111000F7D157E18F2874D006DC8B2872D08C2849
:1011200071D08D28EDD10FE290286DD0F0286CD0D1
:10113000FE28E6D17CE24A48FFF7F5FBABE24748E0
:101140000078474948700020C8700846FFF7F6FD50
:10115000444801784248C171C07839280AD04048D3
:10116000C0783A2806D03E48C07818B165203C497E
:1011700088700EE03A48C078392803D03848C078E3
:101180003A2803D177203649887002E07320344929
:1011900088700720324908700846FFF7C4FB00201A
:1011A0003049087001203049087074E22B480078FB
:1011B0002B4948700846FFF7A6FD73202849887020
:1011C0000020C870062008700846FFF7ACFB01201D
:1011D000254908705FE26BE21CE124E05AE254E02A
:1011E000D8E01E4800781E4948700020C8700120D1
:1011F0001E4908701A48C07840B1652018498870A7
:1012000007E0CDE13AE16CE1DBE1EBE17320144969
:1012100088700320124908700846FFF784FB0120FC
:101220001149087037E20D4800780D4948700020D8
:10123000C8700E4908700A48C078C8B165200849CE
:10124000887018E0600000202A0000206001002063
:10125000290000205F0000205E0000202401002003
:10126000AE00002058000020540000204D00002057
:101270007320FB4988700320F94908700846FFF77E
:1012800052FB0120F749087005E2F7480078F4495D
:101290004870FFF7DBF9F4484078012819D1F3488A
:1012A0000078022801D1FFF7E2FAF148008828B15E
:1012B0000020EB49C870EE4908800AE0EB4800784E
:1012C000012803D10020E649C87002E04320E44928
:1012D000C870E5484078022819D1E4480078012810
:1012E00001D1FFF7E1FAE248008828B10020DC498B
:1012F000C870DF4908800AE0DC480078022803D182
:101300000020D749C87002E04420D549C870D948A8
:101310000078012819D1D4484078012803D0D24858
:101320004078022803D19620FFF769FA06E0CE48FC
:101330004078032802D19620FFF749FACC4800886C
:1013400030B90020CB49087002E00120C449C870C0
:10135000C348FFF7D8FCC8480178C148C171C078BC
:1013600018B97320BE4988700AE0BD48C0780128CA
:1013700003D17720BA49887002E06520B8498870A7
:101380000720B74908700846FFF7CDFA0020BA4990
:10139000087080E1B4480078B14948700846FFF70A
:1013A000B2FC7320AE4988700020C870032008701A
:1013B0000846FFF7B8FA0020B04908700120A94993
:1013C000087068E1A64D2D1DA7480078291F4870B8
:1013D000732088700020C870002405E0A848005DD4
:1013E00028706D1C601CC4B2082CF7D3002405E0E3
:1013F000A448005D28706D1C601CC4B2072CF7D394
:101400001220974908700846FFF78DFA0120954988
:10141000087040E1944800789149487092484078BB
:10142000032803D090484078042818D18E4A917838
:1014300050788B4A121DFFF7C9FC8949C8700846CD
:10144000C07828B9732088700120864908700EE0A2
:1014500065208349887002208249087007E0652072
:101460007F4988703120C87001207E4908701320A0
:101470007B4908700846FFF756FA0CE17A48007875
:101480007749487078484078032803D076484078F8
:10149000042817D1744A91785078D21CFFF720FDA8
:1014A0006F49C8700846C07828B973208870012039
:1014B0006C4908700EE0652069498870022069490E
:1014C000087007E06520664988703120C8700120E7
:1014D000644908700320624908700846FFF723FA40
:1014E000D9E0614800785E4948705F484078032839
:1014F00003D05D484078042817D15B4948785849A3
:10150000091DFFF757FD5649C8700846C07828B92D
:10151000732088700120534908700EE065205049FF
:10152000887002204F49087007E065204C49887098
:101530003120C87001204B490870072048490870C5
:101540000846FFF7F0F9A6E047480078444948709C
:101550000020C87044484078012812D14A490870D8
:1015600041488078012805D10122C102474801F095
:1015700030F809E000224FF40061444801F029F8F6
:1015800002E000204049087073203549887003202C
:1015900008700846FFF7C7F90120324908707AE061
:1015A000314800782E4948700020C8707320887038
:1015B000032008700846FFF7B6F901202949087092
:1015C00069E029480078264948700020C8707320D7
:1015D0008870042008700846FFF7A5F9012021490A
:1015E000087058E0204800781D49487073208870C2
:1015F0000020C8700D1D00240EE0002608E02448DD
:1016000050F82400F100C84028706D1C701CC6B250
:10161000042EF4DB601CC4B2032CEEDB0F20104957
:1016200008700846FFF77FF901200E49087032E084
:101630000D4800780A4948700846FFF764FB0848DF
:10164000FFF75DFA7320064988700020C8700620F5
:1016500008700846FFF767F90120024908701AE090
:10166000AE00002054000020240100204E00002085
:101670002A0000202900002058000020230000201C
:101680000000002008000020680000200018014031
:101690001801002000BF00BF002404E00020214901
:1016A0000855601CC4B23C2CF8DB00201E490870B1
:1016B00070BD10B503F072F803F063FB03F05BFB41
:1016C0000A2002F08FFB03F049FB0A2002F08AFB9C
:1016D00010BD0120154908701549087000201549F2
:1016E00008701549087015490870FEF7FCFE02F0F5
:1016F0007FFD02F05FFD1248FFF720FBFFF7D9FFE7
:1017000002F0C7FE0A2200210E4802F0E0FF0A2282
:1017100000210D4802F000FF03E0FEF797FFFFF7FE
:10172000D9FCFAE7240100205F00002054000020CB
:1017300023000020290000204D0000206800002028
:10174000E30000202A520008A40000200CB500206D
:10175000019000906C48006840F480306A4908604D
:1017600000BF6948006800F4003000900198401CF8
:101770000190009818B90198B0F5A06FF1D16248B6
:10178000006800F4003010B10120009001E000205A
:1017900000900098012843D15C48006840F0100098
:1017A0005A4908600846006820F0030008600846AF
:1017B000006840F0020008605348406852494860A1
:1017C0000846406848600846406840F480604860C9
:1017D0000846406820F47C1048600846406840F4A1
:1017E000E81048600846006840F08070086000BF5C
:1017F0004548006800F000700028F9D04248406871
:1018000020F00300404948600846406840F002006C
:10181000486000BF3C48406800F00C000828F9D13F
:101820000CBD10B5FFF792FF10BD10B5364800682B
:1018300040F00100344908600846406834490840D7
:101840003149486008460068324908402E4908601E
:101850000846006820F4802008600846406820F4AC
:10186000FE0048604FF41F008860FFF7DAFF4FF07A
:1018700000602949086010BD10B500210020002239
:10188000214B5B6803F00C0121B1042906D0082923
:1018900028D107E0214B224C236027E01F4B204C2E
:1018A000236023E0184B5B6803F47010164B5B68F1
:1018B00003F48032022303EB904022B9194B4343D7
:1018C000174C23600DE0104B5B6803F4003323B129
:1018D000144B4343124C236003E0104B4343104C22
:1018E000236003E00D4B0E4C236000BF00BF064B8E
:1018F0005B68C3F303130C4CE15C094B1B68CB40E2
:10190000074C236010BD0000001002400020024080
:101910000000FFF8FFFFF6FE08ED00E000127A007D
:101920007400002000093D0078000020094880472D
:1019300009480047FEE7FEE7FEE7FEE7FEE7FEE7B1
:10194000FEE7FEE7FEE7FEE704480549054A064BC9
:10195000704700002B1800083101000820130020F8
:1019600020190020201500202015002010B5044665
:10197000BE48844208D10121801401F04FF80021B3
:10198000A01401F04BF816E0B948844208D10121B7
:10199000001401F050F80021201401F04CF80AE086
:1019A000B448844207D10121C01301F044F800215A
:1019B000E01301F040F810BD10B50022028802F4D7
:1019C00041520B884C8823438C882343CC88234383
:1019D0000C8923434C8923438C892343CC8923439B
:1019E0001A430280838B4FF2FF74234083830B8A58
:1019F000038210BD2DE9F04F85B005460C464FF02F
:101A0000000902274FF000084FF0010B0026B246F4
:101A1000A88B4FF240010840A88302202884B5F823
:101A20001C90A068022801D100BF38E0A08810B93E
:101A30004FF0010B01E04FF0020B8D48854200D1C1
:101A400000E000BF684600F062FFDDF800A0E0881B
:101A5000B0F5007F0AD14FEA1A2000EB8000400069
:101A6000A168B0FBF1F0401D86B20BE04FEA4B10CD
:101A7000BAFBF0F000EB80004000A168B0FBF1F091
:101A8000401D86B20A20B6FBF0F606F00108A6EB70
:101A90000800C0F34F074FF6FF7000EA0828022F36
:101AA00001DBFF2F02DD02274FF00008E08840EA4B
:101AB000080038432884A088A18908436188084326
:101AC0002188084340F4006040EA0909A5F81C9009
:101AD00005B0BDE8F08F0021018041808180C18088
:101AE000018141818181C1810721018270470021EB
:101AF000018041808180C18002218160002181813B
:101B0000704721B1028842F04002028004E002885E
:101B10004FF6BF731A400280704721B1828B42F4A6
:101B20008062828304E0828B4FF6FF331A40828307
:101B3000704730B5002400230C110125A540ABB23D
:101B40001AB185881D43858002E085889D43858084
:101B500030BD1AB183880B43838002E083888B43B6
:101B600083807047818170470146888970474FF6AE
:101B7000FF62914204D0028842F48072028004E045
:101B800002884FF6FF631A400280704721B18288B5
:101B900042F00402828004E082884FF6FB731A4010
:101BA0008280704702884FF2FF731A4002800288D9
:101BB0000A4302807047018841F4805101807047D8
:101BC00021B1028842F40052028004E002884DF6FE
:101BD000FF731A400280704702460020012901D09D
:101BE000108B00E0908A70470146088A7047B1F573
:101BF000804F04D1028842F48042028004E00288CF
:101C00004BF6FF731A40028070470246002013898A
:101C10000B400BB1012000E000207047CA43028155
:101C20007047F0B50246002000240023002501F093
:101C30000F070126BE40B4B20B1101269E40B3B27D
:101C4000968806EA03051689264016B10DB10120D3
:101C500000E00020F0BD10B5002201F00F040123C8
:101C6000A3409AB2D343038110BD0000003001406D
:101C700000380040003C00400E49086070470D49A4
:101C8000486070470B49886070474AF6AA200949A6
:101C9000086070474CF6CC40064908607047014622
:101CA0000020044AD2680A400AB1012000E0002066
:101CB0007047000000300040704700BFFEE72DE98C
:101CC000F0414021FC4801F0AAF840F22551FA48C1
:101CD00001F0AEF800286ED0F74801F029F8F74976
:101CE000F74A12788854F7480078012804D002286F
:101CF00075D0032874D13AE1F0480078102871D1EA
:101D0000EE484078042814D1002404E00020EB4978
:101D10000855601C84B2EA4800788442F6DDFF2052
:101D2000E74908700420FEF7E5FD0120E549087049
:101D300066E0E2484078022811D1002404E0002047
:101D4000DE490855601C84B2DD4800788442F6DD27
:101D5000FF20DB4908700220DA49087050E0D748BC
:101D60004078052811D1002404E00020D34908550B
:101D7000601C84B2D24800788442F6DDFF20D0494E
:101D800008700120D04908703AE0CC48407810280B
:101D900012D1012404E00020C8490855601C84B217
:101DA000C74800788442F6DD0020C549087001204C
:101DB000C449087024E07CE1C148007801281FDD97
:101DC000002404E00020BD490855601C84B2BC48D2
:101DD00000788442F6DDFF20B949087010E010E079
:101DE00060E1FFE7002404E00020B4490855601CCE
:101DF00084B2B34800788442F6DDFF20B049087011
:101E000050E141F28830B1490880AC480078102890
:101E100015D1AA484078022811D1002404E00020FE
:101E2000A6490855601C84B2A54800788442F6DDB6
:101E3000FF20A34908700220A249087096E09F483D
:101E40000078102818D19D484078042814D1002427
:101E500004E0002099490855601C84B29848007835
:101E60008442F6DDFF20964908700420FEF742FD0B
:101E700001209449087079E091480078801E8F49CC
:101E8000085C102859D18E480078401E085C032851
:101E900053D18B480078801E84B2002609E0874821
:101EA000005D102802D1701CC6B200E003E0601E85
:101EB00084B2002CF3DC00BF06F00100002855D0EE
:101EC000002400250DE07D48405D102801D1681CEC
:101ED000C5B27A48405D7E490855601C84B2681CD2
:101EE000C5B277480078801EA842ECDCE1B27848A1
:101EF000FEF741FB0746714871490978405CB842DA
:101F000006D01520FEF7F6FC01206E49087005E0AA
:101F10000620FEF7EFFC03206A490870002404E065
:101F2000002066490855601C84B2654800788442E8
:101F3000F6DDFF206249087018E061480078462805
:101F400014DD5F480078642810DA002404E00020E3
:101F50005A490855601C84B2594800788442F6DD1D
:101F6000FF20574908700120564908709AE05348ED
:101F7000007810287ED15148407805281DD10120D5
:101F8000514908704F490870002404E000204B4973
:101F90000855601C84B24A4800788442F6DD00246B
:101FA00005E04B48005D4B490855601C84B23C2C51
:101FB000F7DBFF204249087073E040484078022870
:101FC00011D1002404E000203C490855601C84B273
:101FD0003B4800788442F6DDFF2039490870022032
:101FE000384908705DE035484078042814D1002451
:101FF00004E0002031490855601C84B23048007864
:102000008442F6DDFF202E4908700420FEF772FCA2
:1020100001202C49087044E028484078102811D14C
:10202000012404E0002025490855601C84B224489E
:1020300000788442F6DD0020214908700320214900
:1020400008702EE01E48007801282ADD002404E0F4
:1020500000201A490855601C84B21948007884424F
:10206000F6DDFF20164908701520FEF743FC01201D
:10207000144900E001E0087013E0002404E00020AF
:102080000E490855601C84B20D4800788442F6DD84
:10209000FF200B4908701520FEF72CFC0120094990
:1020A000087000BF00BF06480078401C0449087053
:1020B00000BFBDE8F081000000380140840100202D
:1020C000880000205E0000205F0000202E0000201D
:1020D000840200202401002010B540219F4800F018
:1020E0009EFE40F225519D4800F0A2FEA0B19B4803
:1020F00000F01EFE9A49087008460078401C0870DF
:1021000008460178954800F00FFE00BF80219348F3
:1021100000F078FE0028F9D010BD10B540218F489E
:1021200000F07DFE40F225518C4800F081FEA0B108
:102130008A4800F0FDFD8B49087008460078401C75
:10214000087008460178854800F0EEFD00BF802148
:10215000824800F057FE0028F9D010BD10B540218C
:102160007E4800F05CFE40F225517C4800F060FEA5
:10217000A0B17A4800F0DCFD7B4908700846007881
:10218000401C087008460178744800F0CDFD00BF7F
:102190008021724800F036FE0028F9D010BD10B53D
:1021A00040216E4800F03BFE40F225516B4800F0A4
:1021B0003FFEA0B1694800F0BBFD6C4908700846BD
:1021C0000078401C087008460178644800F0ACFDB7
:1021D00000BF8021614800F015FE0028F9D010BD35
:1021E00010B50121624801F0DFFD62480078022845
:1021F0001CD16148008828B15F480088401E5E49B4
:10220000088013E01520FEF775FB0120594908707E
:10221000002404E0002059490855601C84B2584845
:1022200000788442F6DDFF20554908705548008843
:1022300020B154480088401E524908805248006826
:1022400020B151480068401E4F4908604F4800685F
:1022500020B14E480068401E4C4908604A4800685A
:1022600010B14A48006820B9FEF799F900204849A2
:1022700008704848006820B146480068401E45493B
:1022800008604548006820B143480068401E424944
:1022900008604248006820B140480068401E3F493D
:1022A00008603F48007801281BD13E48008840B9AB
:1022B00064203C490880012251033B4800F089F921
:1022C00009E038480088322805D100224FF4005137
:1022D000354800F07EF933480088401E31490880B7
:1022E00028E02F48007802281BD12E48008840B9EA
:1022F00032202C490880012251032B4800F069F953
:1023000009E028480088192805D100224FF400511F
:10231000254800F05EF923480088401E21490880C6
:1023200008E01F48007828B900224FF400511E48E9
:1023300000F04FF91D48008820B11C480088401E5D
:102340001A49088010BD00BFFEE700BFFEE700BFCE
:10235000FEE7704770477047704700000048004034
:10236000890000208A0000208B0000208C000020C3
:10237000000400405E0000202E00002084010020A8
:10238000880000202A000020380000203C000020A7
:1023900028000020400000204400002048000020C9
:1023A000540000206200002000180140600000205E
:1023B00010B50446CC48844208D10121042000F025
:1023C0002DFB0021042000F029FB46E0C748844291
:1023D00008D10121082000F021FB0021082000F095
:1023E0001DFB3AE0C248844208D10121102000F0D0
:1023F00015FB0021102000F011FB2EE0BD488442A7
:1024000008D10121202000F009FB0021202000F04C
:1024100005FB22E0B848844208D10121402000F0A9
:10242000FDFA0021402000F0F9FA16E0B34884429A
:1024300008D10121802000F0F1FA0021802000F075
:10244000EDFA0AE0AE48844207D10121801500F080
:10245000E5FA0021A01500F0E1FA10BD10B5012148
:10246000084600F0DBFA0021012000F0D7FA10BD89
:102470002DE9F0410246002500260020002300241B
:10248000002791F803C00CF00F0591F803C00CF081
:10249000100CBCF1000F03D091F802C04CEA050506
:1024A00091F800C0BCF1000F31D0146800202BE07F
:1024B0004FF0010C0CFA00F3B1F800C00CEA03066F
:1024C0009E4220D183004FF00F0C0CFA03F7BC435F
:1024D00005FA03FC4CEA040491F803C0BCF1280F90
:1024E00006D14FF0010C0CFA00FCC2F814C00AE04F
:1024F00091F803C0BCF1480F05D14FF0010C0CFA64
:1025000000FCC2F810C0401C0828D1D31460B1F8F8
:1025100000C0BCF1FF0F34DD546800202EE000F154
:10252000080C4FF0010808FA0CF3B1F800C00CEAEF
:1025300003069E4221D183004FF00F0C0CFA03F7E3
:10254000BC4305FA03FC4CEA040491F803C0BCF157
:10255000280F05D100F1080C08FA0CF8C2F8148015
:1025600091F803C0BCF1480F07D100F1080C4FF0FF
:10257000010808FA0CF8C2F81080401C0828CED3D5
:102580005460BDE8F0814FF6FF7101800221817037
:102590000421C17070470246002093680B400BB1C4
:1025A000012000E0002070470146886880B2704733
:1025B00002460020D3680B400BB1012000E0002050
:1025C00070470146C86880B2704701617047416139
:1025D00070470AB1016100E041617047C160704716
:1025E0004FF480320A43826181618261826982692B
:1025F000704702460020434B18684FF6807318401E
:1026000040EA021008433F4B186070473E49C861DA
:102610007047F0B50A46002300240021002500F091
:102620000046B6F1004F02D1364EF16901E0354E59
:102630007168C0F3034583B200F44016B6F5401F3D
:1026400008D121F070612F4E766826F070662D4F0C
:102650007E6012E000F48016B6F5801F06D10326D6
:1026600006FA05F4A14341F0706106E0460D36011B
:1026700003FA06F6B14341F0706122B1460D36010E
:1026800003FA06F6314300F00046B6F1004F02D1DE
:102690001C4EF16101E01B4E7160F0BD30B50022AF
:1026A0008B071C0F0F2303FA04F2164B08338C1010
:1026B00053F824309343134C08348D1044F82530DC
:1026C00023468C1053F824308C07240F00FA04F4AE
:1026D00023430C4C08348D1044F8253030BD0A4992
:1026E000DC3108607047000000080140000C014028
:1026F000001001400014014000180140001C01407E
:10270000002001400000014000002042DF48006836
:1027100040F00100DD49086008464068DC49084097
:10272000DA49486008460068DA490840D749086035
:102730000846006820F4802008600846406820F4BD
:10274000FE0048604FF41F0088607047CF49096859
:1027500021F48031CD4A11601146096821F48021AD
:102760001160B0F5803F03D0B0F5802F0ED106E0A8
:10277000C649096841F48031C44A116007E0C34981
:10278000096841F4A021C14A116000E000BF00BF08
:10279000704710B501460022002300204A11012A8B
:1027A00002D1BA4C236806E0022A02D1B74C236A50
:1027B00001E0B64C636A01F01F02012494401C4002
:1027C0000CB1012000E0002010BD38B500200090C1
:1027D0000024002500BF3120FFF7DBFF05460098ED
:1027E000401C00900098B0F5A06F01D0002DF2D0F1
:1027F0003120FFF7CEFF08B1012400E0002420467D
:1028000038BD01460020A14A106820F0F80040EAD7
:10281000C10010607047A049086070470246002060
:102820009A4B586820F47C1042EA01031843974BF6
:102830005860704798490866704701460020934ADF
:10284000506820F003000843506070478F4840688C
:1028500000F00C007047014600208C4A506820F0C0
:10286000F00008435060704701460020874A5068D6
:1028700020F4E06008435060704701460020834A1E
:10288000506820F4605040EAC1005060704729B1A0
:102890007E4A527A02437D4B5A7204E07B4A527A56
:1028A00082437A4B5A7270477B49D831086070472F
:1028B00001460020754A506820F4404008435060AB
:1028C00070470021714A20321170704A82F820103E
:1028D000012802D004280AD104E001216B4A2032E9
:1028E000117005E00521694A2032117000E000BF37
:1028F00000BF70476949086070476449096A01432D
:10290000624A11627047654944390860704730B5C2
:1029100000210022002400235C4D6D6805F00C01AD
:1029200021B1042905D0082923D105E05C4D0560BB
:1029300022E05B4D05601FE0544D6D6805F4701298
:10294000524D6D6805F48034022505EB92421CB9A6
:10295000544D554305600BE04C4D6D6805F4003552
:102960001DB1504D5543056002E04D4D5543056086
:1029700002E04B4D056000BF00BF444D6D6805F09F
:10298000F0010909484D6B5C0568DD4045603F4D2D
:102990006D6805F4E061090A434D6B5C4568DD40F4
:1029A00085603A4D6D6805F46051C90A3E4D6B5C17
:1029B0004568DD40C560354D6D6805F44041890BC3
:1029C0003A4D6B5CC568B5FBF3F5056130BD29B1C7
:1029D0002E4A526902432D4B5A6104E02B4A526938
:1029E00082432A4B5A61704729B1284A92690243AF
:1029F000264B9A6104E0254A92698243234B9A61EF
:102A0000704729B1214AD2690243204BDA6104E0C0
:102A10001E4AD26982431D4BDA61704729B11B4AB5
:102A2000D2680243194BDA6004E0184AD268824344
:102A3000164BDA60704729B1144A12690243134BEE
:102A40001A6104E0114A12698243104B1A617047FF
:102A500012494039086070470F49C86470470B49F4
:102A6000C87170470948406A40F080700749486261
:102A7000704701460020054A92680A400AB10120C9
:102A800000E0002070470149887270470010024042
:102A90000000FFF8FFFFF6FE0000424280044242C1
:102AA00000127A0000093D008D0000209D000020EA
:102AB00010B50446FB48844209D101218803FFF781
:102AC000ADFF00214FF48040FFF7A8FF32E0F64849
:102AD000844209D101214804FFF7ADFF00214FF4E2
:102AE0000030FFF7A8FF25E0F048844209D101211A
:102AF0008804FFF7A0FF00214FF48020FFF79BFF21
:102B000018E0EB48844209D10121C804FFF793FF84
:102B100000214FF40020FFF78EFF0BE0E5488442D0
:102B200008D101210805FFF786FF00214FF480102E
:102B3000FFF781FF10BD2DE9F04786B005460E4630
:102B40000024A24600BFA1460027B08900B100BF03
:102B50002F462C8A4CF6FF700440F08804432C82E8
:102B6000AC894EF6F3100440B0883189084371896E
:102B700008430443AC81AC8A4FF6FF400440B0895F
:102B80000443AC8201A8FFF7C2FEC648874202D1C7
:102B9000DDF810A001E0DDF80CA0A88900F40040E9
:102BA00040B10AEBCA0000EB0A1031684900B0FBE3
:102BB000F1F807E00AEBCA0000EB0A10316889005F
:102BC000B0FBF1F86420B8FBF0F0040120096421A7
:102BD00001FB1089A88900F4004040B1322000EBCD
:102BE000C900B0FBF1F000F00700044308E0322018
:102BF00000EB09106421B0FBF1F000F00F0004437A
:102C00002C8106B0BDE8F0874FF416510160002119
:102C10008180C18001810C21418100218181704727
:102C200010B502460020108A4FF2FF0318400B88AF
:102C30004C8823438C882343CC8823431843108239
:102C400010BD0021018041808180C180704721B189
:102C5000828942F40052828104E082894DF6FF733A
:102C60001A4082817047F0B50346002400260025F3
:102C7000002040F66A17B94200D100BF1846C1F3E0
:102C8000421401F01F06012707FA06F5012C01D1B5
:102C90000C3004E0022C01D1103000E014301AB1E5
:102CA00007682F43076002E00768AF430760F0BD85
:102CB0001AB1838A0B43838202E0838A8B43838227
:102CC0007047028A4FF6F0731A400282028A0A4362
:102CD0000282704782894FF2FF731A408281828993
:102CE0000A438281704721B1828942F002028281C7
:102CF00004E082894FF6FD731A4082817047028A90
:102D00004FF6DF731A400282028A0A43028270473A
:102D100021B1028A42F48042028204E0028A4BF628
:102D2000FF731A4002827047C1F308028280704725
:102D300001468888C0F308007047818941F001018D
:102D400081817047028BD2B20283028B42EA012258
:102D500002837047028B02F47F420283028B0A4394
:102D60000283704721B1828A42F02002828204E00D
:102D7000828A4FF6DF731A408282704721B1828ABD
:102D800042F01002828204E0828A4FF6EF731A400A
:102D90008282704721B1828A42F00802828204E076
:102DA000828A4FF6F7731A408282704721B1828976
:102DB00042F40042828103E08289C2F30E028281E2
:102DC000704721B1828A42F40062828204E0828AE2
:102DD0004FF2FF731A4082827047828A4FF6FB736C
:102DE0001A408282828A0A438282704721B1828A93
:102DF00042F00202828204E0828A4FF6FD731A409A
:102E00008282704702460020B1F5007F00D100BFEA
:102E100013880B400BB1012000E00020704701F443
:102E20000072B2F5007F00D100BFCA430280704734
:102E300070B50246002400230025002040F66A16E3
:102E4000B14200D100BFC1F3421501F01F030126BA
:102E500006FA03F3012D02D19689334006E0022DD4
:102E600002D1168A334001E0968A33400C120126C3
:102E700006FA04F41688344013B10CB1012000E0C6
:102E8000002070BD10B50022002340F66A14A14254
:102E900000D100BF0A1201249440A3B2DC43048095
:102EA00010BD0000003801400044004000480040D0
:102EB000004C00400050004031490143314A11604C
:102EC000704770B5002100230F22C47804B32D4C45
:102ED000246804F4E064C4F5E064210AC1F1040349
:102EE000CA40447804FA03F184781440214309016C
:102EF000254C0678A155047804F01F050124AC4048
:102F000005786D11AD0005F1E025C5F8004109E037
:102F1000047804F01F050124AC401C4D067876119E
:102F200045F8264070BD1A4A0A400243154B1B1F44
:102F30001A60704739B1134A121D12680243114BCF
:102F40001B1D1A6006E00F4A121D126882430D4BCA
:102F50001B1D1A607047042808D14FF0E021096951
:102F600041F004014FF0E022116107E04FF0E02151
:102F7000096921F004014FF0E0221161704700005F
:102F80000000FA050CED00E000E400E080E100E064
:102F900080FFFF1F10B50446FE48844208D101217E
:102FA000C014FFF73BFD0021E014FFF737FDC4E03C
:102FB000B4F1804F08D101210846FFF73CFD002104
:102FC0000120FFF738FDB8E0F348844208D1012121
:102FD0000220FFF730FD00210220FFF72CFDACE0BE
:102FE000EE48844208D101210420FFF724FD00218E
:102FF0000420FFF720FDA0E0E948844208D1012128
:103000000820FFF718FD00210820FFF714FD94E0C9
:10301000E448844208D101211020FFF70CFD002173
:103020001020FFF708FD88E0DF48844208D1012125
:103030002020FFF700FD00212020FFF7FCFC7CE0B2
:10304000DA48844208D101214014FFF7E7FC00214F
:103050006014FFF7E3FC70E0D548844209D10121F8
:10306000C804FFF7DBFC00214FF40020FFF7D6FC7B
:1030700063E0D048844209D101210805FFF7CEFC66
:1030800000214FF48010FFF7C9FC56E0CA48844283
:1030900009D101214805FFF7C1FC00214FF40010C0
:1030A000FFF7BCFC49E0C548844208D1012140201B
:1030B000FFF7C1FC00214020FFF7BDFC3DE0C04808
:1030C000844208D101218020FFF7B5FC0021802037
:1030D000FFF7B1FC31E0BB48844208D101218015E3
:1030E000FFF7A9FC0021A015FFF7A5FC25E0B648D5
:1030F000844209D101210804FFF790FC00214FF41C
:103100008030FFF78BFC18E0B048844209D10121E0
:103110004804FFF783FC00214FF40030FFF77EFCEA
:103120000BE0AB48844208D101218804FFF776FC0C
:1031300000214FF48020FFF771FC10BD00220288AF
:10314000944B98420ED0994B98420BD0B0F1804FDF
:1031500008D0914B984205D0904B984202D0904BAA
:10316000984204D14FF68F731A404B881A438D4B07
:10317000984207D08C4B984204D04FF6FF431A4038
:10318000CB881A4302808B8883850B880385814B0B
:1031900098420BD0854B984208D08B4B984205D073
:1031A0008A4B984202D08A4B984201D10B7A03860F
:1031B00001238382704770B5002400220023058C10
:1031C0004FF6FE7635400584028C8388048B4FF6DB
:1031D0008F752C40B51E2C400D882C43751E2A403F
:1031E0000D892A434D882A436A4DA8420BD06F4D62
:1031F000A84208D0744DA84205D0744DA84202D010
:10320000734DA84213D14FF6F7752A404D892A43D2
:103210004FF6FB752A408D882A434FF6FF652B40F9
:103220004FF6FF552B408D892B43CD892B4383804F
:103230000483CD888586028470BD70B50024002289
:103240000023058C4FF6EF7635400584028C838889
:10325000048B48F6FF752C404FF6FF452C400D8837
:103260004FF6FF7606EA05252C434FF6DF752A4018
:103270000D8906EA05152A434D8806EA05152A43F5
:10328000444DA84202D0494DA8421DD14FF67F754A
:103290002A404D894FF6FF7606EA05152A434FF678
:1032A000BF752A408D8806EA05152A434FF6FF357B
:1032B0002B404FF2FF752B408D8906EA85052B4385
:1032C000CD8906EA85052B4383800483CD88058755
:1032D000028470BD70B5002400220023058C4FF6D7
:1032E000FF6635400584028C8388848B4FF68F758A
:1032F0002C404FF6FC752C400D882C434FF6FF55A3
:103300002A400D894FF6FF7606EA05252A434D88A7
:1033100006EA05252A431F4DA84202D0234DA842A4
:103320001DD14FF2FF752A404D894FF6FF7606EA10
:1033300005252A434FF6FF352A408D8806EA0525E4
:103340002A434EF6FF752B404DF6FF752B408D89B5
:1033500006EA05152B43CD8906EA05152B43838024
:103360008483CD888587028470BD70B500220023D8
:103370000024058C4EF6FF7635400584038C848846
:10338000828B48F6FF752A404FF6FF452A400D888C
:1033900020E00000002C0140000400400008004034
:1033A000000C0040001000400014004000340140B8
:1033B000004C014000500140005401400018004002
:1033C000001C00400020004000400140004401403B
:1033D000004801404FF6FF7606EA05252A434DF6E0
:1033E000FF752B400D8906EA05352B434D8806EA0B
:1033F00005352B43FA4DA84202D0FA4DA84208D118
:103400004BF6FF752C408D894FF6FF7606EA851541
:103410002C4384808283CD88A0F84050038470BD03
:10342000828B4FF2FF331A408283828B4FF6FF73F9
:1034300003EA01231A4382837047F0B50C46154610
:10344000002200210026078C4EF6FF7C07EA0C07BD
:103450000784828B018C4FF6FF7707EA043640F62B
:10346000FF473A404FF6FF7707EA05273A434FF602
:10347000FF7707EA03373A43D94FB8420ED0D94F06
:10348000B8420BD0B0F1804F08D0D74FB84205D02A
:10349000D64FB84202D0D64FB84206D14DF6FF778C
:1034A000394046F48057394305E047F6FF57394025
:1034B00044F48057394382830184F0BD828B4FF6F8
:1034C000F3731A408283828B0A4382837047F0B57C
:1034D0000C461546002200210026078C4FF6FF6C93
:1034E00007EA0C070784828B018C4FF6FF7707EA07
:1034F00004264FF60C773A404FF6FF7707EA03179A
:103500002F433A43B64FB8420ED0B64FB8420BD015
:10351000B0F1804F08D0B44FB84205D0B34FB84295
:1035200002D0B34FB84206D14FF6FF57394046F4A8
:103530008077394305E04FF2FF57394044F48077F4
:10354000394382830184F0BD028B4FF2FF331A406E
:103550000283028B4FF6FF7303EA01231A430283AF
:103560007047F0B50C461546002200210026078C56
:103570004FF6EF7C07EA0C070784028B018C4FF6AD
:10358000FF7707EA041640F6FF473A404FF6FF7709
:1035900007EA03373A434FF6FF7707EA05273A432E
:1035A0008F4FB8420ED08F4FB8420BD0B0F1804F42
:1035B00008D08D4FB84205D08C4FB84202D08C4F06
:1035C000B84206D14FF6DF77394046F0100739434D
:1035D00005E04FF65F77394044F010073943028326
:1035E0000184F0BD028B4FF6F3731A400283028B05
:1035F0000A4302837047F0B50C46154600220021AD
:10360000068C4FF6FE773E400684028B018C4FF607
:103610000C7632407E1C06EA03162E433243704E6F
:10362000B0420ED06F4EB0420BD0B0F1804F08D0F8
:103630006D4EB04205D06D4EB04202D06C4EB042DD
:1036400006D14FF6FD76314044F00106314305E0E6
:103650004FF6F576314044F0010631430283018490
:10366000F0BD70B505460C465D4885420ED05D48FC
:1036700085420BD0B5F1804F08D05B48854205D01C
:103680005A48854202D05A48854200D100E000BF26
:10369000208850B92389A28861882846FFF7ABFFAC
:1036A000E1882846FFF79EFF25E0208804280AD1FC
:1036B0002389A28861882846FFF753FFE1882846BE
:1036C000FFF742FF17E0208808280AD12389A28843
:1036D00061882846FFF7FBFEE1882846FFF7EEFEEB
:1036E00009E02389A28861882846FFF7A6FEE188C1
:1036F0002846FFF795FE70BD2DE9F04105460C46C2
:1037000000260127608808B9022600E00026A0886C
:10371000012801D1022700E001272088A0B92389D0
:10372000A28861882846FFF766FFE1882846FFF7F0
:1037300059FF23893A4631462846FFF712FFE188B0
:103740002846FFF701FF13E02389A28861882846F5
:10375000FFF707FFE1882846FFF7F6FE23893A4680
:1037600031462846FFF747FFE1882846FFF73AFF32
:10377000BDE8F0810A884B881A438B881A43CB88AE
:103780001A430B891A434B891A438B891A43A0F8B1
:10379000442070474FF6FF71818000210180C18075
:1037A0004180017270470021018041808180C18089
:1037B000018141818181C181704700210180418067
:1037C000012181800021C180018170470021018099
:1037D00041808180C18001814181818170470000E9
:1037E000002C01400034014000040040000800406B
:1037F000000C004021B1028842F00102028004E086
:1038000002884FF6FE731A400280704731B1B0F85B
:10381000442042F40042A0F8442005E0B0F84420DF
:10382000C2F30E02A0F8442070471AB183890B43FB
:10383000838102E083898B43838170478182704753
:1038400041EA0203A0F8483070471AB183890B435C
:10385000838102E083898B438381704701894FF61E
:10386000F8721140018170470A46002101894FF624
:103870008F73194011430181704730B504460D46DE
:1038800029462046FFF7F0FF208940F007002081FD
:1038900030BD2DE9F04104460D4616461F46602D09
:1038A00006D13B46012231462046FFF75AFE05E08D
:1038B0003B46012231462046FFF79DFE2946204621
:1038C000FFF7D2FF208940F007002081BDE8F0819A
:1038D00030B50C4600210189C9B24FF6FF7505EAE3
:1038E0000325154325432943018130BD2DE9F041CE
:1038F00005460E4617469846002443463A4631464A
:103900002846FFF7E5FF2C894FF6F870044044F095
:1039100007044FF68F70044044F070042C81BDE81A
:10392000F081F0B504460D4616461F463B4632462A
:1039300029462046FFF7CCFF208940F480402081B3
:10394000F0BD0185828270470A46002101884FF64A
:103950008F731940114301807047F0B50C4615462E
:103960001E460021002200230189028B038C4FF6A2
:10397000F877394021434FF6FC473A4040F20117AF
:103980003A434FF6DD773B404FF6FF7707EA0617DD
:103990002F433B43018102830384F0BD0A4600218B
:1039A000018B4FF68F7319401143018370470A460C
:1039B0000021018B48F6FF7319404FF6FF7303EAAD
:1039C00002231943018370470A460021818B4FF679
:1039D0008F7319401143818370470A460021818B00
:1039E00048F6FF7319404FF6FF7303EA02231943A9
:1039F0008183704721B1028842F08002028004E096
:103A000002884FF67F731A400280704721B1828886
:103A100042F00402828004E082884FF6FB731A4071
:103A20008280704721B1828842F00802828004E0DF
:103A300082884FF6F7731A408280704721B18288DE
:103A400042F00102828004E082884FF6FE731A4041
:103A5000828070470A460021018B4FF6F7731940A8
:103A60001143018370470A460021018B4FF2FF7317
:103A700019404FF6FF7303EA02231943018370478D
:103A80000A460021818B4FF6F77319401143818359
:103A900070470A460021818B4FF2FF7319404FF6A1
:103AA000FF7303EA02231943818370470A4600210A
:103AB000018B4FF6FB7319401143018370470A468F
:103AC0000021018B4FF6FF3319404FF6FF7303EAD5
:103AD00002231943018370470A460021818B4FF668
:103AE000FB7319401143818370470A460021818B83
:103AF0004FF6FF3319404FF6FF7303EA02231943D1
:103B0000818370470A460021018B4FF67F7319406D
:103B10001143018370470A460021018BC1F30E0156
:103B20004FF6FF7303EA02231943018370470A46E5
:103B30000021818B4FF67F731940114381837047B9
:103B40000A460021818BC1F30E014FF6FF7303EA91
:103B500002231943818370470A460021018C4FF6E6
:103B6000FD7319401143018470470A460021018CFE
:103B70004FF6F77319401143018470470A4600213C
:103B8000018C4FF6DF7319404FF6FF7303EA0213FF
:103B90001943018470470A460021018C4FF67F7358
:103BA00019404FF6FF7303EA02131943018470476B
:103BB0000A460021018C4FF6FF5319404FF6FF7360
:103BC00003EA02231943018470470A460021018C4D
:103BD0004FF2FF7319404FF6FF7303EA02231943B4
:103BE000018470470A460021018C4DF6FF7319408D
:103BF0004FF6FF7303EA023319430184704730B56F
:103C0000002301248C40A3B2048C9C430484048CC4
:103C100002FA01F5ADB22C43048430BD30B5002367
:103C200004248C40A3B2048C9C430484048C02FAC8
:103C300001F5ADB22C43048430BD70B503460020BD
:103C400000241846183001258D40ACB21D8CA543C8
:103C50001D8409B1082909D100EB6100056825F030
:103C6000700505600568154305600EE00D1FC5F37E
:103C70004E052844056825F4E045056005684FF6C3
:103C8000FF7606EA02263543056070BD21B1028841
:103C900042F00202028004E002884FF6FD731A40EF
:103CA0000280704721B1028842F00402028004E0E1
:103CB00002884FF6FB731A400280704721B1828858
:103CC00042F08002828004E082884FF67F731A40BF
:103CD0008280704702884FF6F7731A40028002888C
:103CE0000A430280704782884FF68F731A408280A1
:103CF00082880A438280704702894FF6F8731A401F
:103D0000028102890A430281704702894FF67F735C
:103D10001A40028102890A430281704781847047F8
:103D2000818570478186704701877047818770471A
:103D3000A0F84010704702884FF6FF431A400280F7
:103D400002880A43028070470146888E7047014608
:103D5000088F70470146888F70470146B1F84000D0
:103D600070470146888C70470146088D70470246AF
:103D70000020138A0B400BB1012000E000207047A7
:103D8000CA430282704730B5024600200023002457
:103D9000158A05EA0103958905EA010413B10CB1FE
:103DA000012000E0002030BDCA4302827047014676
:103DB00001EBC1024FF0E0235A6101221A61002297
:103DC0009A6100BF4FF0E022106900F001021AB1C1
:103DD00000F48032002AF5D000224FF0E0231A616F
:103DE0009A617047014642F228324A434FF0E0237D
:103DF0005A6101221A6100229A6100BF4FF0E0224D
:103E0000106900F001021AB100F48032002AF5D0E6
:103E100000224FF0E0231A619A61704700B587B025
:103E200001210420FEF7E0FD01218803FEF7DCFDFF
:103E300001210846FEF7D8FD4FF40070ADF81800D8
:103E400003208DF81A0018208DF81B0006A9DF4802
:103E5000FEF70EFB4FF48060ADF8180004208DF8DB
:103E60001B0006A9D948FEF703FB4FF461400290FE
:103E70000020ADF80C00ADF80E00ADF81000ADF864
:103E800014000C20ADF8120002A9D148FEF753FE31
:103E90000121CF48FEF7DBFE012240F22551CC483C
:103EA000FEF7E1FE4021CA48FEF7B9FF4FF4C060BB
:103EB000FFF702F825208DF8040000208DF805009A
:103EC0008DF8060001208DF8070001A8FEF7F9FF24
:103ED00007B000BD00B587B001210420FEF784FDC6
:103EE00001214804FEF78DFD01210846FEF77CFD07
:103EF0000420ADF8180003208DF81A0018208DF862
:103F00001B0006A9B148FEF7B3FA0820ADF8180067
:103F100004208DF81B0006A9AC48FEF7A9FA4FF45F
:103F2000165002900020ADF80C00ADF80E00ADF870
:103F30001000ADF814000C20ADF8120002A9A5483D
:103F4000FEF7F9FD0121A348FEF781FE012240F2B0
:103F50002551A048FEF787FE40219E48FEF75FFFEF
:103F60004FF4C060FEF7A8FF26208DF80400002063
:103F70008DF805008DF8060001208DF8070001A8D6
:103F8000FEF79FFF07B000BD00B587B001210820F4
:103F9000FEF72AFD01218804FEF733FD01210846C2
:103FA000FEF722FD4FF48060ADF8180003208DF875
:103FB0001A0018208DF81B0006A98748FEF758FA4A
:103FC0004FF40060ADF8180004208DF81B0006A91E
:103FD0008148FEF74DFA4FF4E13002900020ADF831
:103FE0000C00ADF80E00ADF81000ADF814000C2078
:103FF000ADF8120002A97948FEF79DFD012177482E
:10400000FEF725FE012240F225517448FEF72BFEF3
:1040100040217248FEF703FF4FF4E060FEF74CFFCB
:1040200027208DF8040000208DF805008DF806008B
:1040300001208DF8070001A8FEF743FF07B000BD7F
:1040400000B587B001211020FEF7CEFC0121C80485
:10405000FEF7D7FC01210846FEF7C6FC4FF480604E
:10406000ADF8180003208DF81A0018208DF81B00F9
:1040700006A95B48FEF7FCF94FF40060ADF81800A4
:1040800004208DF81B0006A95548FEF7F1F94FF4FE
:10409000165002900020ADF80C00ADF80E00ADF8FF
:1040A0001000ADF814000C20ADF8120002A94D4824
:1040B000FEF741FD01214B48FEF7C9FD012240F208
:1040C00025514848FEF7CFFD40214648FEF7A7FEA0
:1040D0004FF4C060FEF7F0FE34208DF8040000209D
:1040E0008DF805008DF8060001208DF8070001A865
:1040F000FEF7E7FE07B000BD00B587B00121102034
:10410000FEF772FC01212020FEF76EFC012108055C
:10411000FEF777FC01210846FEF766FC4FF480505D
:10412000ADF8180003208DF81A0018208DF81B0038
:1041300006A92B48FEF79CF90420ADF818008DF86D
:104140001B0006A92848FEF793F94FF41650029079
:104150000020ADF80C00ADF80E00ADF81000ADF881
:1041600014000C20ADF8120002A92048FEF7E3FC71
:1041700001211E48FEF76BFD012240F225511B482C
:10418000FEF771FD40211948FEF749FE4FF4C0606B
:10419000FEF792FE35208DF8040000208DF8050012
:1041A0008DF8060001208DF8070001A8FEF789FEB2
:1041B00007B000BD10B5FFF731FEFFF78BFEFFF72C
:1041C000E3FEFFF73DFFFFF797FF10BD000801403A
:1041D0000038014000440040000C0140004800400D
:1041E00000100140004C004000140140005000400D
:1041F0001FB501210220FEF704FC01211748FFF73B
:10420000D3FD2720ADF8080048F69F40ADF8040024
:104210000020ADF80A00ADF8060001A90F48FEF72E
:104220008DFF01210D48FFF7E5FA012211460B48E9
:10423000FFF7FBFA4FF4C060FEF73EFE1D208DF83D
:10424000000000208DF8010001208DF802008DF89B
:1042500003006846FEF735FE1FBD00000004004065
:1042600000B587B001210420FEF7BEFB0121080341
:10427000FEF7BAFBE020ADF8180018208DF81B00FF
:1042800003208DF81A0006A96848FEF7F1F8E0212E
:104290006648FEF79AF90020ADF804004FF48270EA
:1042A000ADF806000020ADF808000220ADF80A00C5
:1042B0000120ADF80C004002ADF80E003820ADF83A
:1042C00010000020ADF812000720ADF81400012105
:1042D0005748FDF716FC01A95548FDF76DFB07B0DF
:1042E00000BD00B587B001210820FEF77DFB01214C
:1042F0008803FEF786FB4FF46040ADF818001820E5
:104300008DF81B0003208DF81A0006A94948FEF716
:10431000AFF80020ADF804004FF48270ADF806004D
:104320000020ADF80800ADF80A00ADF80C004FF41D
:104330000070ADF80E003820ADF810000020ADF888
:1043400012000720ADF8140001213B48FDF7D9FB0E
:1043500001A93948FDF730FB07B000BD10B5044690
:10436000334800884FF6C771084031490880084635
:1043700000882043088001212D48FDF7C2FB10BDB5
:1043800010B504462C4800884FF6C77108402A49EA
:104390000880084600882043088001212648FDF750
:1043A000B0FB10BD70B50446002507E0681C85B25F
:1043B00042F21070854201DDFF2070BD02211C48D1
:1043C000FDF723FC0028F1D021461948FDF7CAFB70
:1043D00000BF01211648FDF718FC0028F9D0144849
:1043E000FDF7C2FBC0B2E8E770B50446002507E060
:1043F000681C85B242F21070854201DDFF2070BD5D
:1044000002210D48FDF701FC0028F1D021460A48A1
:10441000FDF7A8FB00BF01210748FDF7F6FB0028C8
:10442000F9D00548FDF7A0FBC0B2E8E7000801405D
:1044300000300140000C01400038004010B500245D
:104440001021D248FEF7C3F84FF48041D048FEF760
:10445000BCF84FF48051CF48FEF7B7F89020FFF733
:10446000A1FF0020FFF79EFF0020FFF79BFF002029
:10447000FFF798FFFF20FFF795FF44EA0024FF2095
:10448000FFF790FF04431021C048FEF79EF8204636
:1044900010BD08B501210420FEF7A6FA1020ADF8E2
:1044A00000008DF8030003208DF802006946B7482C
:1044B000FDF7DEFF1021B548FEF787F8FFF7D0FEC5
:1044C000FFF7BCFF204608BD70B5002400BF641C88
:1044D000B4F1704F01D3FF2070BD1021AB48FEF73F
:1044E00076F84FF48041AA48FEF76FF84FF48051F8
:1044F000A848FEF76AF80520FFF754FFFF20FFF7F2
:1045000051FF05461021A148FEF75FF805F00100B4
:104510000028DCD100BFDFE770B505460C46164623
:104520000020FFF71BFFFFF7CFFF10219748FEF792
:104530004EF84FF480419648FEF747F84FF480510B
:104540009448FEF742F80320FFF72CFFC4F307401E
:10455000FFF728FFC4F30720FFF724FFE0B2FFF7BF
:1045600021FF04E0FF20FFF71DFF28706D1C3000C5
:10457000A6F101018EB2F5D110218448FEF725F88D
:1045800070BD10B510218148FEF721F84FF480412D
:104590007F48FEF71AF84FF480517E48FEF715F871
:1045A0000620FFF7FFFE10217848FEF70EF810BD39
:1045B00010B50446FFF788FFFFF7E3FF10217348AB
:1045C000FEF705F84FF480417148FDF7FEFF4FF408
:1045D00080517048FDF7F9FF2020FFF7E3FEC4F398
:1045E0000740FFF7DFFEC4F30720FFF7DBFEE0B272
:1045F000FFF7D8FE10216548FDF7E7FF10BD10B5A5
:10460000FFF762FFFFF7BDFF10216048FDF7DFFFF6
:104610004FF480415E48FDF7D8FF4FF480515D486C
:10462000FDF7D3FFC720FFF7BDFE10215748FDF768
:10463000CCFF10BD2DE9F04107460D461446EEB201
:10464000C6F58076B44200DC26463CE0FFF73CFF2E
:10465000FFF797FF10214D48FDF7B9FF4FF4804158
:104660004B48FDF7B2FF4FF480514A48FDF7ADFFCC
:104670000220FFF797FEC5F30740FFF793FEC5F34F
:104680000720FFF78FFEE8B2FFF78CFE4FF000081F
:1046900007E03878FFF786FE7F1C08F101001FFA5B
:1046A00080F8B045F5DB10213848FDF78EFFB442A5
:1046B00000D109E03544A01B84B2FF2C02DD4FF489
:1046C000807600E02646C1E700BFBDE8F0812DE915
:1046D000F04781460F4616460020FFF73FFEC7F31E
:1046E0000F38C7F30B0ACAF58054A64200DA3446E5
:1046F00047E04FEA08314FF480522748FFF70CFF9C
:10470000002508E00AEB05002349085CFF2800D0DB
:1047100003E0681C85B2A542F4DB00BFA54217DAAE
:104720004FEA0830FFF744FF002507E019F80500BD
:104730000AEB0501184A5054681C85B2A542F5DB06
:104740004FEA08314FF480521348FFF773FF04E03B
:10475000224639464846FFF76DFFB44200D111E0CA
:10476000A1442744301B86B208F101001FFA80F8EB
:104770004FF0000AB6F5805F02DB4FF4805400E092
:104780003446B6E700BFBDE8F087000000080140EE
:1047900000200140000C0140C002002008B54BF28F
:1047A0000200ADF8000010208DF8030003208DF802
:1047B00002006946FD48FDF75BFE4BF20201FB4833
:1047C000FDF703FF4FF48040ADF8000048208DF85E
:1047D00003006946F548FDF74BFE08BD2DE9F041A1
:1047E00006460D460020F2490860F249C1F8B001C2
:1047F0007E2000EA4607082412E0C7F3C010EC4907
:10480000083108600120EB49C1F8B4017806070EB1
:104810000020E74908600A20FFF7C9FA601EC4B209
:10482000002CEADC082412E0C5F3C010E04908318E
:1048300008600120DF49C1F8B4016806050E0020B8
:10484000DB4908600A20FFF7B2FA601EC4B2002CF0
:10485000EADC0120D649091F0860D649C1F8B40135
:10486000BDE8F0812DE9F041064600250020D04941
:104870000860D049C1F8B0017E2000EA460040F04F
:104880008007082412E0C7F3C010C9490831086046
:104890000120C849C1F8B4017806070E0020C449B8
:1048A00008600A20FFF783FA601EC4B2002CEADC1D
:1048B000082410E00120BE4908606806050EBD48C6
:1048C000D0F838012843C5B2002008600A20FFF75D
:1048D0006EFA601EC4B2002CECDC0120B449091F42
:1048E0000860B449C1F8B4012846BDE8F08170B54C
:1048F00005460C4600262846FFF7B4FF064646EA62
:1049000004012846FFF76AFF70BD70B505460C46E6
:1049100000262846FFF7A6FF064626EA0401284699
:10492000FFF75CFF70BD2DE9FE4F064688469146B5
:104930009A46DDF830B0FE200290002001900090F1
:104940000C2E06D00E2E09D11220019010200090BE
:1049500005E0772001903020009000E000BF00BF0C
:10496000019840F080010220FFF738FF80210420E9
:10497000FFF7CBFF00210120FFF730FF80210A2045
:10498000FFF7B5FF002505E018F805100920FFF72F
:1049900025FF6D1C4D45F7D331460120FFF71EFF63
:1049A0000C2E03D180210D20FFF7A1FF4FF41675C7
:1049B00000BF0420FFF756FF04466D1E35B104F01A
:1049C000010018B9009820400028F2D080210D2065
:1049D000FFF79BFF95B30620FFF744FF00F01B0095
:1049E00068BB002002900198204000F0010008B14F
:1049F000FF2002900C2E24D10A20FFF733FF04463B
:104A00000C20FFF72FFF00F007072FB1601E07EB08
:104A1000C000CBF8000002E0E000CBF8000004B9D1
:104A20000124122C00DD1224002505E00920FFF7E7
:104A300019FF0AF805006D1CA542F7D301E0FE201E
:104A4000029080210C20FFF752FF00210120FFF788
:104A5000C5FE0298BDE8FE8F2DE9F0410746884665
:104A6000154604210520FFF750FF00210120FFF724
:104A7000B5FE80210A20FFF73AFF002405E0395DEA
:104A80000920FFF7ABFE601CC4B24445F7DB0321ED
:104A90000120FFF7A3FEFF2400BF0520FFF7E2FE81
:104AA0000646601EC4B21CB106F004000028F4D013
:104AB0002220FFF7D7FE28702120FFF7D3FE687071
:104AC000BDE8F081F0B587B005460E4630208DF880
:104AD00004008DF805500DF10602022101A8FFF730
:104AE000BBFF06A801AB042201A900900C20FFF730
:104AF0001AFF074667B90698902809D1002404E0F8
:104B000001A8005D3055601CC4B2102CF8DB00E039
:104B1000FE27384607B0F0BDF0B587B006460F4611
:104B2000A0208DF804008DF805600DF10602022129
:104B300001A8FFF791FF06A801AB042201A900908C
:104B40000C20FFF7F0FE054645B90698042805D16C
:104B50009DF8040000F00F000A2800D0FE250DBBD0
:104B6000002404E0385D01A90855601CC4B2102C73
:104B7000F8DB05AA102101A8FFF76EFF06A801AB1C
:104B8000122201A900900C20FFF7CDFE054645B981
:104B90000698042805D19DF8040000F00F000A28AB
:104BA00000D0FE25284607B0F0BD0000000C0140F3
:104BB000B4812142008021422DE9F04387B00646AE
:104BC0000F46904699468DF804608DF805700024D4
:104BD00006E018F8041001AAA01C1154601CC4B20D
:104BE000062CF6DB002407E019F8041001AA04F1F2
:104BF00008001154601CC4B2062CF5DB06A801ABFA
:104C00000C2201A900900E20FFF78DFE05462DB95C
:104C10000820FFF727FE00F0080000B9FE2528460F
:104C200007B0BDE8F08370B588B0054693208DF8D5
:104C3000080070208DF8090000208DF80E00002477
:104C40000BE0295D02AAA01C11549DF80E00295DFD
:104C500048408DF80E00601CC4B2042CF1DB0DF14D
:104C60000F02072102A8FFF7F7FE08210846FFF709
:104C70004CFE07A802AB092202A900900C20FFF706
:104C800052FE064626B90798182801D1002600E0F2
:104C9000FE26304608B070BDF0B587B00546002747
:104CA00008210846FFF731FE00210D20FFF796FD91
:104CB00080210E20FFF729FE93208DF8040020208C
:104CC0008DF8050006A801AB022201A900900C2076
:104CD000FFF729FE064686B9002407E001A8005D1B
:104CE000285501A8005D4740601CC4B2042CF5DBC8
:104CF00001A8005DB84200D0FE2680210E20FFF7FB
:104D0000F6FD304607B0F0BD70B588B005460C46DC
:104D100008210846FFF7F9FD07210D20FFF75EFD8A
:104D200003211420FFF7E3FD8DF8085007A802AB1C
:104D3000012202A900900C20FFF7F5FD06464EB9AE
:104D40000798102806D19DF8080020709DF80900EA
:104D5000607000E0FE26304608B070BD10B514202B
:104D6000FFF780FD044604F0030018B90321142066
:104D7000FFF7BDFD10BD10B503211420FFF7C5FDE1
:104D800010BD10B50120C74908600A20FFF70FF8D1
:104D90000020C549C1F884010A20FFF708F8012066
:104DA000C04908600A20FFF702F80F210120FFF731
:104DB00015FD0A20FEF7FBFF3D211120FFF70EFD38
:104DC0001E212D20FFF70AFD00212C20FFF706FDF4
:104DD0008D212A20FFF702FD3E212B20FFF7FEFC4C
:104DE00040211520FFF7FAFC002010BD10B58EB051
:104DF000AEA30FCB02AC0FC4B0A103C9CDE9000133
:104E000006A95220FFF780FF0446ACB11920AD4936
:104E100008800CE0FFF7B5FFFFF7ADFFFFF79EFF3F
:104E200006A95220FFF770FF044604B903E0A54825
:104E300000880028EED100BF1920A249088000BFD9
:104E400006A8FFF729FF044604B903E09D4800883F
:104E50000028F5D100BF19209A49088000BF06A894
:104E6000FFF7E1FE044604B903E0964800880028F5
:104E7000F5D100BF19209349088000BF06AB6A46F0
:104E800008216020FFF798FE044604B903E08D482E
:104E900000880028F2D100BF32208A49088000BF74
:104EA00002A90820FFF738FE044604B903E085484C
:104EB00000880028F4D100BF32208249088000BF5A
:104EC00006A90820FFF7FEFD044604B903E07D486B
:104ED00000880028F4D100BF0EB010BD2DE9F041CC
:104EE00088B007460E4690468DF808708DF8096028
:104EF0000DF10A02022102A8FFF7AEFD07A802ABDE
:104F0000042202A900900C20FFF70DFD044644B9CD
:104F10000798042805D19DF8080000F00F000A2822
:104F200000D0FE24E4B9002505E018F8050002A928
:104F30004855681CC5B2102DF7DB03AA042102A84E
:104F4000FFF78AFD0020079007A802AB062202A9FE
:104F500000900C20FFF7E7FC0446A01C00B10024E1
:104F6000F4B9B0208DF808008DF809600DF10A023F
:104F7000022102A8FFF770FD07A802AB042202A9D4
:104F800000900C20FFF7CFFC044644B90798042892
:104F900005D19DF8080000F00F000A2800D0FE247B
:104FA000204608B0BDE8F08170B588B005460E46D1
:104FB000C2208DF808008DF809500DF10A02022177
:104FC00002A8FFF749FD07A802AB042202A900903E
:104FD0000C20FFF7A8FC044644B90798042805D123
:104FE0009DF8080000F00F000A2800D0FE24CCB97C
:104FF00000208DF808008DF809008DF80A008DF862
:105000000B0003AA042102A8FFF726FD07A802ABA4
:10501000062202A900900C20FFF785FC0446A01C84
:1050200000B1002414B1FE2008B070BDB0208DF88E
:1050300008008DF809600DF10A02022102A8FFF7AD
:105040000BFD07A802AB042202A900900C20FFF779
:105050006AFC044644B90798042805D19DF8080065
:1050600000F00F000A2800D0FE242046DCE710B52F
:1050700088B050208DF8080000208DF809000DF14F
:105080000A02022102A8FFF7E7FC07A802AB0422EC
:1050900002A900900C20FFF746FC0446002008B04F
:1050A00010BD00008481214200802142FF345678E7
:1050B000EDCBA9871234567801FE01FEFFFFFFFFFA
:1050C000FFFF000060000020032A40F2308010F053
:1050D000030C00F0158011F8013BBCF1020F624493
:1050E00098BF11F801CB00F8013B38BF11F8013B24
:1050F000A2F1040298BF00F801CB38BF00F8013BD1
:1051000011F0030300F02880083AC0F0088051F83D
:10511000043B083A51F804CBA0E80810F5E7121D4B
:105120005CBF51F8043B40F8043BAFF30080D2076A
:1051300024BF11F8013B11F801CB48BF11F8012B36
:1051400024BF00F8013B00F801CB48BF00F8012B59
:10515000704770477047704710B5203AC0F00B8019
:10516000B1E81850203AA0E81850B1E81850A0E86B
:105170001850BFF4F5AF5FEA027C24BFB1E81850C5
:10518000A0E8185044BF18C918C0BDE810405FEA35
:10519000827C24BF51F8043B40F8043B08BF7047B1
:1051A000D20728BF31F8023B48BF11F8012B28BFB6
:1051B00020F8023B48BF00F8012B7047754600F00D
:1051C00029F8AE4605006946534620F0070085469B
:1051D00018B020B5FCF7B8FBBDE820404FF0000642
:1051E0004FF000074FF000084FF0000B21F00701CF
:1051F000AC46ACE8C009ACE8C009ACE8C009ACE812
:10520000C0098D4670470446AFF300802046FAF788
:10521000D6FF000000487047C01200200149182046
:10522000ABBEFEE726000200704701020102010248
:10523000010201025452000800000020A4000000F6
:105240006C010008F8520008A40000207C1800003F
:1052500088010008534D41303030314156312E30F5
:1052600052303231323334353637383930313233E7
:1052700034353637383930010000000000000000B6
:10528000000000000000000000000000000000001E
:10529000000000000000000000000000000000000E
:1052A00000000000000000000100000000000000FD
:1052B00000000100000000000000000000000000ED
:1052C000000000000000000000A24A0400000000EE
:1052D00000000000010203040607080900000000A6
:1052E0000000000000010203040102030406070895
:0852F000090204060800000099
:0400000508000131BD
:00000001FF
