:020000040800F2
:100000001819002089190008151D0008171D00087F
:10001000A3230008A7230008AB230008000000006A
:10002000000000000000000000000000AF230008F6
:10003000B123000800000000B3230008B523000826
:10004000A3190008A3190008A3190008A3190008A0
:10005000A3190008A3190008A3190008A319000890
:10006000A3190008A3190008A3190008A319000880
:10007000A3190008A3190008A3190008A319000870
:10008000A3190008A3190008A3190008A319000860
:10009000A3190008A3190008A3190008A319000850
:1000A000A3190008A3190008A3190008A319000840
:1000B000A31900083D220008A3190008A31900088D
:1000C000A3190008A3190008A3190008A319000820
:1000D000A31900081B1D000835210008772100081E
:1000E000A3190008A3190008A3190008A319000800
:1000F000A3190008A3190008A3190008A3190008F0
:10010000A3190008A3190008A3190008A3190008DF
:10011000B9210008FB210008A3190008A319000851
:10012000A3190008A3190008A3190008A3190008BF
:1001300000F002F800F03AF80AA090E8000C8244BF
:100140008344AAF10107DA4501D100F02FF8AFF29C
:10015000090EBAE80F0013F0010F18BFFB1A43F0A5
:10016000010318473451000054510000103A24BFD5
:1001700078C878C1FAD8520724BF30C830C144BF0C
:1001800004680C607047000000230024002500264E
:10019000103A28BF78C1FBD8520728BF30C148BFEA
:1001A0000B6070471FB51FBD10B510BD05F03DF8C1
:1001B0001146FFF7F7FF01F0B5FA05F05BF803B45D
:1001C000FFF7F2FF03BC05F05FF8000000BF01007D
:1001D000A0F10100FBD1704710B5044604F0800087
:1001E000802805D10022C101F74802F022FA04E07C
:1001F00001229103F44802F01CFA04F04000402868
:1002000005D100224102F04802F013FA04E0012275
:10021000D103ED4802F00DFA04F02000202805D1AA
:1002200000220121E84802F004FA04E0012211460C
:10023000E54802F0FEF904F01000102805D1002274
:100240000421E14802F0F5F904E001220421DE482E
:1002500002F0EFF904F00800082805D10022082177
:10026000D94802F0E6F904E001220821D64802F05C
:10027000E0F904F00400042805D100220221D3484B
:1002800002F0D7F904E001220221D04802F0D1F9AE
:1002900004F00200022805D100220121CB4802F01F
:1002A000C8F904E001221146C84802F0C2F910BDA5
:1002B00010B5044604F01000102805D100220221D8
:1002C000C14802F0B6F904E001220221BE4802F062
:1002D000B0F904F00F00102849D2DFE800F02C0834
:1002E0000C1014181C2024283034383C40440C20B6
:1002F000FFF772FF3FE0DA20FFF76EFF3BE0F220EE
:10030000FFF76AFF37E06620FFF766FF33E0B620AD
:10031000FFF762FF2FE0BE20FFF75EFF2BE0E0203B
:10032000FFF75AFF27E0FE20FFF756FF23E0E62005
:10033000FFF752FF1FE0FC20FFF74EFF1BE03A20C3
:10034000FFF74AFF17E03E20FFF746FF13E01A20B1
:10035000FFF742FF0FE07A20FFF73EFF0BE09E2001
:10036000FFF73AFF07E08E20FFF736FF03E0FF209C
:10037000FFF732FF00BF00BF10BD08B54FF480701B
:10038000ADF8000004208DF8030000208DF8020075
:1003900069468E4802F09CF80320ADF8000010205A
:1003A0008DF8030003208DF802006946874802F0AB
:1003B0008FF86020ADF8000004208DF803000020C5
:1003C0008DF802006946824802F082F84FF46070AE
:1003D000ADF8000010208DF8030003208DF8020016
:1003E00069467B4802F074F84FF47070ADF8000075
:1003F00004208DF8030000208DF802006946724841
:1004000002F066F84EF20F00ADF8000010208DF8F3
:10041000030003208DF8020069466B4802F058F88B
:100420004FF6F060ADF8000004208DF803000020C6
:100430008DF802006946674802F04AF84FF4807070
:10044000ADF8000010208DF8030003208DF80200A5
:100450006946604802F03CF84CF20C00ADF8000030
:1004600004208DF8030000208DF8020069465A48E8
:1004700002F02EF843F6F370ADF8000010208DF86E
:10048000030003208DF802006946534802F020F86B
:100490000320524908800020514908804CF20F0087
:1004A000504908804FF480704F49088000204F4920
:1004B00008804A480188454802F0C0F84848018849
:1004C000434802F0BBF8474801883F4802F0B6F8BD
:1004D000454801883F4802F0B1F8444801883E4849
:1004E00002F0ACF808BD10B502F040F94FF48030CE
:1004F00002F05CF900BF312002F07BF90028FAD04D
:1005000002203B490860002002F0D5F9002002F0EB
:10051000E4F94FF4806002F0D7F94FF4E0114FF4A2
:10052000803002F0ABF9012002F0B4F900BF3920AD
:1005300002F05FF90028FAD0022002F0AEF900BF05
:1005400002F0B4F90828FBD101217D2002F07CFAE9
:100550000121880302F085FA00214FF0006002F0CB
:1005600012FD4FF4407002F0D7FC042002F023FD8E
:10057000FFF703FF10BD10B50246002002E013781C
:100580005840521C0B00A1F10104E1B2F7D110BD9B
:1005900010B501220221104802F04BF810BD10B531
:1005A000002202210C4802F044F810BD10B50122CF
:1005B0001146094802F03DF810BD10B50022012196
:1005C000054802F036F810BD001001400008014057
:1005D000000C01400014014000180140620000209E
:1005E0006400002066000020680000206A000020EF
:1005F0000020024010B501225102FE4802F019F815
:1006000010BD10B500224FF40071FA4802F011F845
:1006100010BD10B501221102F64802F00AF810BD13
:1006200010B500224FF48071F24802F002F810BDBC
:1006300010B501228021EF4801F0FBFF10BD10B57D
:1006400000228021EB4801F0F4FF10BD10B5EA480C
:100650000078012801D101F046FB1222E749E84861
:1006600004F069FD4FF48071E64801F0C4FFE349EE
:1006700008704FF40071E44801F0BDFFDF49487095
:100680004FF48071E04801F0B6FFDC4988708021AA
:10069000DD4801F0B0FFD949C8704021DA4801F0C7
:1006A000AAFFD64908714FF40041D84801F0A3FFD2
:1006B000D24948714FF48041D44801F09CFFCF49A2
:1006C00088714FF40051D14801F095FFCB49C871B2
:1006D0004FF48051CD4801F08EFFC84908721021B7
:1006E000CA4801F088FFC54908732021C74801F0B6
:1006F00082FFC24948734021C44801F07CFFBF49D2
:100700008873C348007801280ED10846007858B98C
:100710000846407940B10120BE49087040F6B83023
:10072000BD490860FFF734FFB548007828B9B348E1
:10073000007810B1C820B9490860B048407980B944
:10074000B748007868B9FFF72AFF0020B149087060
:100750000120B449087001220103B34801F069FF88
:1007600008E00020AF49087000224FF48051AE48E5
:1007700001F05FFFA248C07838B9A048C07820B126
:100780000020A8490870FFF718FF9D48007938B984
:100790009A48007920B10020A2490870FFF731FF84
:1007A0009648807938B90120A04908700122C10219
:1007B0009D4801F03EFF9148C07938B902209B491D
:1007C000087000228102984801F033FF10BD10B577
:1007D0000446FFF7EBFE9648048005E0FFF736FF7E
:1007E0009048007800B903E0914800880028F5D1CE
:1007F00000BF8F48008808B9FFF7DFFE10BD10B5B5
:100800000446FFF7F7FE8A48048005E0FFF71EFF65
:100810008448007800B903E0854800880028F5D1B5
:1008200000BF8348008808B9FFF7EBFE10BD10B584
:100830000446FFF7ADFE7E48048006E0FFF706FFA2
:1008400078480078012800D103E079480088002822
:10085000F4D100BF10BD10B500221021724801F084
:10086000E8FE00222021704801F0E3FE10BD10B523
:10087000002210216C4801F0DCFE012220216A4890
:1008800001F0D7FE32206A49088008E0FFF7DEFE5B
:100890005A48807918B95948C07900B103E06448D2
:1008A00000880028F2D100BFFFF7D5FF10BD10B5BA
:1008B000012210215C4801F0BCFE002220215A4890
:1008C00001F0B7FE32205A49088008E0FFF7BEFE6B
:1008D0004A48807918B14948C07900B903E05448C2
:1008E00000880028F2D100BFFFF7B5FF10BD01223C
:1008F0008A400243D0B2704701228A409043704739
:1009000010B5044610214B4802F03EFA00BF80218A
:10091000484802F0A7FA0028F9D02146454802F0DD
:1009200033FA00BF8021434802F09CFA0028F9D036
:1009300010BD2DE9F04105462C462778641C394648
:100940002046FFF718FE804610213A4802F01CFAB4
:1009500000BF8021374802F085FA0028F9D0022133
:10096000344802F011FA00BF8021324802F07AFACE
:100970000028F9D000261BE0207810280AD1102189
:100980002C4802F001FA00BF80212A4802F06AFADE
:100990000028F9D02178274802F0F6F900BF80211D
:1009A000244802F05FFA0028F9D0641C701CC6B21B
:1009B000BE42E1DB10211F4802F0E6F900BF8021B2
:1009C0001C4802F04FFA0028F9D00221194802F021
:1009D000DBF900BF8021174802F044FA0028F9D063
:1009E0004146144802F0D0F900BF8021114802F0BE
:1009F00039FA21E0000C01402300002058010020BA
:100A00006A0100200008014000100140001401406C
:100A10004D00002028000020380000203C0000206D
:100A20002600002029000020001801404F0000206F
:100A30002A000020003801400028D6D0BDE8F0810F
:100A4000F749097B21B9017941F00101017103E006
:100A5000017901F0FE010171F149497B21B9017968
:100A600041F00201017103E0017901F0FD01017122
:100A7000EB49897B21B9017941F00401017103E05F
:100A8000017901F0FB010171E6490978012904D1DE
:100A9000817941F00102827103E0817901F0FE0267
:100AA0008271E1490978012904D1017941F00801F5
:100AB000017103E0017901F0F7010171DB49097867
:100AC000022907D1017941F020010171017901F07A
:100AD000EF010171D5490978012907D1017941F068
:100AE00010010171017901F0DF010171CC494978F0
:100AF00019B9017901F0BF010171C949897819B9A2
:100B0000017941F040010171704710B504460120A0
:100B1000C74908700020FFF7CBFB0020FFF75CFB04
:100B200000216171FFF7A3FE00224FF48071C148DC
:100B300001F07FFD322003F085F9FFF787FD0122E8
:100B40001102BC4801F075FD322003F07BF9FFF77C
:100B50007DFDB3480078012808D1B748007828B94E
:100B600060790021FFF7C8FE607109E0607900211B
:100B7000FFF7BDFE60716320E0701120FFF798FB66
:100B8000A7488078012808D1AB48807828B96079D7
:100B90000221FFF7B1FE607109E060790221FFF7E1
:100BA000A6FE60716320E0701320FFF781FB9C4874
:100BB000C078012808D1A048C07828B960790321FD
:100BC000FFF79AFE607109E060790321FFF78FFE5D
:100BD00060716320E0701420FFF76AFB9048007991
:100BE000012808D19448007928B960790421FFF7D9
:100BF00083FE607109E060790421FFF778FE60717F
:100C00006320E0701520FFF753FB854840790128E9
:100C100008D18948407928B960790521FFF76CFE31
:100C2000607109E060790521FFF761FE6071632062
:100C3000E0701620FFF73CFB7948C079012808D105
:100C40007D48C07928B960790721FFF755FE6071AA
:100C500009E060790721FFF74AFE60716320E070C8
:100C60001820FFF725FBC820744908607449086004
:100C7000FFF78EFCFFF71BFE00224FF480716D48DA
:100C800001F0D7FC322003F0DDF8FFF7DFFC012292
:100C90001102684801F0CDFCC82003F0D3F8FFF73B
:100CA000D5FC5F484078012808D16348407828B9CE
:100CB00060790121FFF720FE607109E06079012170
:100CC000FFF715FE60716320E0701220FFF7F0FA65
:100CD00053488079012808D15748807928B960792C
:100CE0000621FFF709FE607109E060790621FFF730
:100CF000FEFD60716320E0701720FFF7D9FAFFF75F
:100D00004EFCFFF7B4FD00204749087048490870C1
:100D100010BD10B50446FFF799FC2046FFF790FE82
:100D200010BD70B505460C464648058006E0FFF745
:100D30008DFC3D480078A04200D103E04148008886
:100D40000028F4D100BF70BD10B5044600203E4914
:100D500008700122D1023D4801F06BFCFFF776FCE0
:100D6000FFF724FCFFF714FC3948FFF72FFAFFF7D1
:100D700024FCFFF714FCFFF73DFCFFF767FC2B4852
:100D80000078022801D1FFF772FDFFF75FFC2748CA
:100D90000078012801D1FFF78AFD2D48FFF716FAE8
:100DA000FFF72FFCFFF752FC20480078022801D102
:100DB000FFF75DFD2046FFF7ACFF2046FFF7A5FEDD
:100DC0000020184908701849087000224FF400618B
:100DD0001E4801F02EFC10BDF0B58BB007460D4645
:100DE0001646FE241BA103C9CDE9010103A9522027
:100DF00003F0B2FF044694B11920184908802FE08F
:100E0000FFF724FC03F0E5FF03F0DDFF03F0CEFF66
:100E100003A9522003F0A0FF04460CBB24E024E009
:100E20005801002028000020290000204F00002049
:100E300026000020001401406A0100203800002034
:100E40003C0000202A00002054000020001801402F
:100E500040420F00FFFFFFFFFFFF0000580000208F
:100E6000F34800880028CBD100BF1920F049088042
:100E700000BFFFF7EBFB03A803F036FF044604B9FD
:100E800003E0EB4800880028F3D100BF1920E849AF
:100E9000088000BF03A803F0EEFE044604B903E097
:100EA000E34800880028F5D100BF1920E0490880F8
:100EB00000BFFFF7CBFB03AB01AA2946602003F07C
:100EC000A3FE044604B903E0D94800880028F0D105
:100ED00000BF3220D649088000BFFFF7B7FB31467C
:100EE000284603F017FE044604B903E0D048008802
:100EF0000028F2D100BF20460BB0F0BDF0B58BB09A
:100F000007460D461646FE24AFF2B80103C9CDE9E7
:100F1000010103A9522003F01FFF0446BCB11920B0
:100F2000C34908800EE0FFF791FB03F052FF03F086
:100F30004AFF03F03BFF03A9522003F00DFF0446D4
:100F400004B903E0BA4800880028ECD100BF19209A
:100F5000B749088000BFFFF779FB03A803F0C4FE80
:100F6000044604B903E0B24800880028F3D100BF6A
:100F70001920AF49088000BFFFF768FB03A803F002
:100F80007AFE044604B903E0A94800880028F3D19A
:100F900000BF1920A649088000BFFFF757FB03AB2D
:100FA00001AA2946602003F02FFE044604B903E09D
:100FB0009F4800880028F0D100BF32209C4908805B
:100FC00000BFFFF743FB3146284603F0CDFD044642
:100FD00004B903E0964800880028F2D100BF2046FB
:100FE0000BB0F0BD70B506460D46FE2429465220D2
:100FF00003F0B2FE0446BCB119208D4908800EE012
:10100000FFF724FB03F0E5FE03F0DDFE03F0CEFE68
:101010002946522003F0A0FE044604B903E08448A8
:1010200000880028ECD100BF19208149088000BF4A
:10103000FFF70CFB284603F057FE044604B903E013
:101040007B4800880028F3D100BF19207849088028
:1010500000BFFFF7FBFA284603F00DFE044604B973
:1010600003E0734800880028F3D100BF204670BD1C
:1010700070B504460D4647E0FFF7E8FA012C0BD1A6
:101080006C480078022801D1FFF7F1FB6A4800881C
:1010900010B1002068490880022C0BD16548007807
:1010A000012801D1FFF703FC6348008810B100203C
:1010B0006149088061480078012825D1012C08D1B8
:1010C0009620FFF79CFB5C480088B8B1681EC5B24B
:1010D00014E0022C08D19620FFF791FB56480088B7
:1010E00060B1681EC5B209E0032C07D19620FFF756
:1010F0006EFB5148008808B1681EC5B24E48008892
:1011000010B900204D490870002DB5D170BD70B5E3
:10111000002400264A480078012871D14949087006
:101120004948007887286CD00FDC83286BD005DC19
:10113000E0B181281ED0822875D14CE0842873D07C
:10114000852872D08628F7D1D4E08C286ED006DCB2
:1011500088286CD08A287FD08B28EDD1D9E18D28C2
:101160007BD0F0287AD0FE28E6D1A4E23748FFF7FA
:10117000E0FBB9E234480078344948700020C87078
:101180000846FFF7E1FD3148C07839280AD02F48DA
:10119000C0783A2806D02D48C07818B165202B4970
:1011A00088700EE02948C078392803D02748C078D5
:1011B0003A2803D177202549887002E0732023491B
:1011C00088700620214908700846FFF7B2FB01200D
:1011D0001F49087088E21C4800781C49487008467E
:1011E000FFF797FD7320194988700020C87006200A
:1011F00008700846FFF79DFB01201549087073E24F
:101200007FE212E1FFE710480078104948700020A3
:10121000C87001200F4908700C48C078F8B16520EB
:101220000A4988701EE05EE226E041E0A4E114E194
:10123000580000204F0000202A0000202900002034
:1012400056000020550000201C010020A6000020B0
:10125000500000204D00002027E1C0E1EBE17320A9
:10126000FA4988700320F94908700846FFF761FBC6
:101270000120F749087037E2F6480078F3494870D2
:101280000020C870F4490870F048C07818B1652093
:10129000EE49887002E07320EC4988700320EB4926
:1012A00008700846FFF745FB0120E94908701BE27A
:1012B000E8480078E54948700020C8700120E649F8
:1012C0000870E248C07818B16520E049887002E0F3
:1012D0007320DE4988700320DC4908700846FFF758
:1012E00028FBDC4A91785078FFF7C2FE0120D849EC
:1012F0000870F9E1D7480078D4494870FFF7A6F99B
:10130000D4484078012819D1D4480078022801D166
:10131000FFF7ADFAD248008828B10020CB49C87049
:10132000CF4908800AE0CD480078012803D1002089
:10133000C649C87002E04320C449C870C548407817
:10134000022819D1C5480078012801D1FFF7AFFA6A
:10135000C348008828B10020BC49C870C049088033
:101360000AE0BE480078022803D10020B749C870BF
:1013700002E04420B549C870BA480078012835D148
:10138000B448407801280BD19620FFF738FAB448CA
:10139000008820B3B4480068401CB34908601EE0D0
:1013A000AC48407802280BD19620FFF728FAAC48C9
:1013B0000088A0B1AC484068401CAB4948600EE0D2
:1013C000A448407803280AD19620FFF700FAA448E1
:1013D000008820B1A4488068401CA3498860A048C8
:1013E000008830B900209F49087002E00120974929
:1013F000C8709648FFF78DFC9448C07818B97320E0
:10140000924988700AE09148C078012803D177207A
:101410008E49887002E065208C49887006208B49CF
:1014200008700846FFF785FA5EE18A480078874928
:1014300048700846FFF76DFC7320844988700020CF
:10144000C870032008700846FFF773FA0020874928
:10145000087001207E49087046E17C4D2D1D7D48B5
:101460000078291F4870732088700020C8700024FD
:1014700005E07F48005D28706D1C601CC4B2082C1C
:10148000F7D3002405E07B48005D28706D1C601CCC
:10149000C4B2072CF7D312206C4908700846FFF736
:1014A00048FA01206A4908701EE16A4800786749D5
:1014B000487068484078032803D06648407804287C
:1014C00018D1644A91785078604A121DFFF784FC65
:1014D0005E49C8700846C07828B97320887001201A
:1014E0005B4908700EE06520584988700220584911
:1014F000087007E06520554988703120C8700120C8
:10150000534908701320514908700846FFF711FA33
:10151000EAE0504800784D4948704E48407803282A
:1015200003D04C484078042817D14A4A9178507823
:10153000D21CFFF7E3FC4549C8700846C07828B9BB
:10154000732088700120424908700EE065203F49F1
:10155000887002203E49087007E065203B4988708A
:101560003120C87001203A490870032037490870BB
:101570000846FFF7DEF9B7E036480078334948708F
:1015800034484078032803D032484078042817D1E3
:10159000304948782D49091DFFF724FD2B49C870B3
:1015A0000846C07828B9732088700120284908703F
:1015B0000EE065202549887002202549087007E063
:1015C0006520224988703120C870012020490870A8
:1015D00007201E4908700846FFF7ABF984E01D4854
:1015E00000781A4948700020C8701A4840780128CD
:1015F00012D12149087017488078012805D10122AD
:10160000C1021E4801F015F809E000224FF4006104
:101610001A4801F00EF802E0002017490870732004
:101620000A498870032008700846FFF782F90120F4
:101630000749087058E0074800780449487073204B
:1016400088700020C8700D1D002428E0A60000202E
:10165000500000201C0100204D0000204F00002001
:101660002A00002029000020100100202300002073
:101670000000002008000020600000200018014049
:10168000002608E03C4850F82400F100C8402870CB
:101690006D1C701CC6B2042EF4DB601CC4B2032C9B
:1016A000EEDB0F20354908700846FFF742F90120AC
:1016B0003349087018E033480078304948700846CC
:1016C000FFF727FB2D48FFF720FA73202B4988707E
:1016D0000020C870062008700846FFF72AF901208C
:1016E0002749087000E000BF00BF002404E000208C
:1016F00024490855601CC4B23C2CF8DB0020224968
:10170000087070BD10B503F071F803F062FB03F0D0
:101710005AFB0A2002F096FB03F048FB0A2002F075
:1017200091FB10BD0120164908701849087000206F
:1017300017490870174908701749087001201749A0
:101740000870FEF7D0FE03F0E5FC02F079FD02F030
:1017500061FD1348FFF7F8FAFFF7D4FF02F0C1FE6E
:10176000012280210F4800F064FF03E0FEF76EFFC6
:10177000FFF7CDFCFAE7000010010020A6000020D2
:10178000500000201C0100205600002023000020F3
:10179000290000204D000020600000204E000020A5
:1017A000DB000020001801400CB5002001900090E3
:1017B0006C48006840F480306A49086000BF69489E
:1017C000006800F4003000900198401C01900098DF
:1017D00018B90198B0F5A06FF1D16248006800F423
:1017E000003010B10120009001E00020009000982E
:1017F000012843D15C48006840F010005A49086055
:101800000846006820F0030008600846006840F0C1
:1018100002000860534840685249486008464068E2
:1018200048600846406840F4806048600846406868
:1018300020F47C1048600846406840F4E810486096
:101840000846006840F08070086000BF45480068A6
:1018500000F000700028F9D04248406820F00300F2
:10186000404948600846406840F00200486000BFB8
:101870003C48406800F00C000828F9D10CBD10B5B8
:10188000FFF792FF10BD10B53648006840F0010028
:101890003449086008464068344908403149486086
:1018A00008460068324908402E490860084600682A
:1018B00020F4802008600846406820F4FE0048605C
:1018C0004FF41F008860FFF7DAFF4FF000602949EE
:1018D000086010BD10B5002100200022214B5B687C
:1018E00003F00C0121B1042906D0082928D107E012
:1018F000214B224C236027E01F4B204C236023E028
:10190000184B5B6803F47010164B5B6803F480326D
:10191000022303EB904022B9194B4343174C236039
:101920000DE0104B5B6803F4003323B1144B4343C9
:10193000124C236003E0104B4343104C236003E040
:101940000D4B0E4C236000BF00BF064B5B68C3F31A
:1019500003130C4CE15C094B1B68CB40074C236024
:1019600010BD000000100240002002400000FFF8FF
:10197000FFFFF6FE08ED00E000127A006C00002088
:1019800000093D00700000200948804709480047D1
:10199000FEE7FEE7FEE7FEE7FEE7FEE7FEE7FEE71F
:1019A000FEE7FEE704480549054A064B704700007C
:1019B00087180008310100081813002018190020AA
:1019C000181500201815002010B50446BE488442A2
:1019D00008D10121801401F051F80021A01401F078
:1019E0004DF816E0B948844208D10121001401F0F5
:1019F00052F80021201401F04EF80AE0B448844265
:101A000007D10121C01301F046F80021E01301F0D5
:101A100042F810BD10B50022028802F441520B8832
:101A20004C8823438C882343CC8823430C8923434D
:101A30004C8923438C892343CC8923431A43028056
:101A4000838B4FF2FF74234083830B8A038210BD84
:101A50002DE9F04F85B005460C464FF000090227EE
:101A60004FF000084FF0010B0026B246A88B4FF252
:101A700040010840A88302202884B5F81C90A06883
:101A8000022801D100BF38E0A08810B94FF0010B47
:101A900001E04FF0020B8D48854200D100E000BF0D
:101AA000684600F064FFDDF800A0E088B0F5007F34
:101AB0000AD14FEA1A2000EB80004000A168B0FB79
:101AC000F1F0401D86B20BE04FEA4B10BAFBF0F08C
:101AD00000EB80004000A168B0FBF1F0401D86B231
:101AE0000A20B6FBF0F606F00108A6EB0800C0F3EA
:101AF0004F074FF6FF7000EA0828022F01DBFF2F87
:101B000002DD02274FF00008E08840EA0800384371
:101B10002884A088A1890843618808432188084354
:101B200040F4006040EA0909A5F81C9005B0BDE842
:101B3000F08F0021018041808180C180018141813D
:101B40008181C1810721018270470021018041808C
:101B50008180C1800221816000218181704721B193
:101B6000028842F04002028004E002884FF6BF7310
:101B70001A400280704721B1828B42F480628283D6
:101B800004E0828B4FF6FF331A408283704730B5F2
:101B9000002400230C110125A540ABB21AB18588A1
:101BA0001D43858002E085889D43858030BD1AB144
:101BB00083880B43838002E083888B438380704754
:101BC000818170470146888970474FF6FF629142D4
:101BD00004D0028842F48072028004E002884FF64A
:101BE000FF631A400280704721B1828842F00402EC
:101BF000828004E082884FF6FB731A40828070472F
:101C000002884FF2FF731A40028002880A43028062
:101C10007047018841F480510180704721B10288EA
:101C200042F40052028004E002884DF6FF731A402D
:101C30000280704702460020012901D0108B00E08D
:101C4000908A70470146088A7047B1F5804F04D1E9
:101C5000028842F48042028004E002884BF6FF735F
:101C60001A40028070470246002013890B400BB1D6
:101C7000012000E000207047CA4302817047F0B5A0
:101C80000246002000240023002501F00F07012652
:101C9000BE40B4B20B1101269E40B3B2968806EA4C
:101CA00003051689264016B10DB1012000E0002081
:101CB000F0BD10B5002201F00F040123A3409AB239
:101CC000D343038110BD00000030014000380040C4
:101CD000003C00400E49086070470D49486070475D
:101CE0000B49886070474AF6AA2009490860704786
:101CF0004CF6CC4006490860704701460020044A73
:101D0000D2680A400AB1012000E0002070470000BC
:101D100000300040704700BFFEE72DE9F041402150
:101D2000FC4801F0ACF840F22551FA4801F0B0F857
:101D300000286ED0F74801F02BF8F749F74A1278DF
:101D40008854F7480078012804D0022875D0032869
:101D500074D13AE1F0480078102871D1EE4840780B
:101D6000042814D1002404E00020EB490855601C2D
:101D700084B2EA4800788442F6DDFF20E749087023
:101D80000420FEF7BDFD0120E549087066E0E24849
:101D90004078022811D1002404E00020DE490855D3
:101DA000601C84B2DD4800788442F6DDFF20DB4908
:101DB00008700220DA49087050E0D74840780528BA
:101DC00011D1002404E00020D3490855601C84B2DE
:101DD000D24800788442F6DDFF20D0490870012007
:101DE000D04908703AE0CC484078102812D101243C
:101DF00004E00020C8490855601C84B2C748007838
:101E00008442F6DD0020C54908700120C4490870ED
:101E100024E07CE1C148007801281FDD002404E0B3
:101E20000020BD490855601C84B2BC48007884423B
:101E3000F6DDFF20B949087010E010E060E1FFE72F
:101E4000002404E00020B4490855601C84B2B34863
:101E500000788442F6DDFF20B049087050E141F27D
:101E60008830B1490880AC480078102815D1AA48BC
:101E70004078022811D1002404E00020A64908552A
:101E8000601C84B2A54800788442F6DDFF20A34997
:101E900008700220A249087096E09F480078102838
:101EA00018D19D484078042814D1002404E0002073
:101EB00099490855601C84B2984800788442F6DD40
:101EC000FF20964908700420FEF71AFD012094496E
:101ED000087079E091480078801E8F49085C1028CE
:101EE00059D18E480078401E085C032853D18B4896
:101EF0000078801E84B2002609E08748005D102823
:101F000002D1701CC6B200E003E0601E84B2002C57
:101F1000F3DC00BF06F00100002855D000240025A6
:101F20000DE07D48405D102801D1681CC5B27A489B
:101F3000405D7E490855601C84B2681CC5B2774874
:101F40000078801EA842ECDCE1B27848FEF713FB73
:101F50000746714871490978405CB84206D015209F
:101F6000FEF7CEFC01206E49087005E00620FEF762
:101F7000C7FC03206A490870002404E00020664979
:101F80000855601C84B2654800788442F6DDFF2065
:101F90006249087018E061480078462814DD5F48FF
:101FA0000078642810DA002404E000205A4908551B
:101FB000601C84B2594800788442F6DDFF205749FE
:101FC00008700120564908709AE05348007810289C
:101FD0007ED15148407805281DD101205149087013
:101FE0004F490870002404E000204B490855601C4C
:101FF00084B24A4800788442F6DD002405E04B486C
:10200000005D4B490855601C84B23C2CF7DBFF2077
:102010004249087073E040484078022811D10024FA
:1020200004E000203C490855601C84B23B4800781D
:102030008442F6DDFF2039490870022038490870D3
:102040005DE035484078042814D1002404E00020E5
:1020500031490855601C84B2304800788442F6DD6E
:10206000FF202E4908700420FEF74AFC01202C496D
:10207000087044E028484078102811D1012404E079
:10208000002025490855601C84B224480078844209
:10209000F6DD0020214908700320214908702EE058
:1020A0001E48007801282ADD002404E000201A4997
:1020B0000855601C84B2194800788442F6DDFF2080
:1020C000164908701520FEF71BFC0120144900E09A
:1020D00001E0087013E0002404E000200E490855D8
:1020E000601C84B20D4800788442F6DDFF200B4965
:1020F00008701520FEF704FC01200949087000BF94
:1021000000BF06480078401C0449087000BFBDE8C5
:10211000F0810000003801407C0100208000002098
:1021200055000020560000202E0000207C020020D8
:102130001C01002010B540219F4800F0A0FE40F295
:1021400025519D4800F0A4FEA0B19B4800F020FE60
:102150009A49087008460078401C087008460178C3
:10216000954800F011FE00BF8021934800F07AFEF0
:102170000028F9D010BD10B540218F4800F07FFE37
:1021800040F225518C4800F083FEA0B18A4800F04F
:10219000FFFD8B49087008460078401C087008460F
:1021A0000178854800F0F0FD00BF8021824800F0F2
:1021B00059FE0028F9D010BD10B540217E4800F02E
:1021C0005EFE40F225517C4800F062FEA0B17A48E4
:1021D00000F0DEFD7B49087008460078401C08705E
:1021E00008460178744800F0CFFD00BF8021724896
:1021F00000F038FE0028F9D010BD10B5402172481B
:1022000000F03DFE40F225516F4800F041FEA0B1C4
:102210006D4800F0BDFD6D49087008460078401C0F
:10222000087008460178684800F0AEFD00BF8021C4
:10223000654800F017FE0028F9D010BD10B5012147
:10224000634801F0E1FD6348007802281CD1624830
:10225000008828B160480088401E5F49088013E06C
:102260001520FEF74DFB01205A490870002404E0B8
:1022700000205A490855601C84B2594800788442AD
:10228000F6DDFF20564908705648008820B15548B1
:102290000088401E534908805348006820B15248C6
:1022A0000068401E504908605048006820B14F48FF
:1022B0000068401E4D4908604B48006810B14B480B
:1022C000006820B9FEF76BF90020494908704948B9
:1022D000006820B147480068401E464908604648EB
:1022E000006820B144480068401E434908604348E4
:1022F000006820B141480068401E404908604048DD
:10230000007801281BD13F48008840B964203D492E
:102310000880012251033C4800F08BF909E039485C
:102320000088322805D100224FF40051364800F0D1
:1023300080F934480088401E3249088028E030483F
:10234000007802281BD12F48008840B932202D493F
:102350000880012251032C4800F06BF909E029485C
:102360000088192805D100224FF40051264800F0BA
:1023700060F924480088401E2249088008E020486F
:10238000007828B900224FF400511F4800F051F99D
:102390001E48008820B11D480088401E1B49088047
:1023A00010BD00BFFEE700BFFEE700BFFEE77047BD
:1023B00070477047704700000048004081000020CF
:1023C0008200002083000020005000408400002094
:1023D00000040040550000202E0000207C01002059
:1023E000800000202A000020380000203C0000204F
:1023F0002800002040000020440000204800002069
:10240000500000205A000020001801405800002011
:1024100010B50446CC48844208D10121042000F0C4
:102420002DFB0021042000F029FB46E0C748844230
:1024300008D10121082000F021FB0021082000F034
:102440001DFB3AE0C248844208D10121102000F06F
:1024500015FB0021102000F011FB2EE0BD48844246
:1024600008D10121202000F009FB0021202000F0EC
:1024700005FB22E0B848844208D10121402000F049
:10248000FDFA0021402000F0F9FA16E0B34884423A
:1024900008D10121802000F0F1FA0021802000F015
:1024A000EDFA0AE0AE48844207D10121801500F020
:1024B000E5FA0021A01500F0E1FA10BD10B50121E8
:1024C000084600F0DBFA0021012000F0D7FA10BD29
:1024D0002DE9F041024600250026002000230024BB
:1024E000002791F803C00CF00F0591F803C00CF021
:1024F000100CBCF1000F03D091F802C04CEA0505A6
:1025000091F800C0BCF1000F31D0146800202BE01E
:102510004FF0010C0CFA00F3B1F800C00CEA03060E
:102520009E4220D183004FF00F0C0CFA03F7BC43FE
:1025300005FA03FC4CEA040491F803C0BCF1280F2F
:1025400006D14FF0010C0CFA00FCC2F814C00AE0EE
:1025500091F803C0BCF1480F05D14FF0010C0CFA03
:1025600000FCC2F810C0401C0828D1D31460B1F898
:1025700000C0BCF1FF0F34DD546800202EE000F1F4
:10258000080C4FF0010808FA0CF3B1F800C00CEA8F
:1025900003069E4221D183004FF00F0C0CFA03F783
:1025A000BC4305FA03FC4CEA040491F803C0BCF1F7
:1025B000280F05D100F1080C08FA0CF8C2F81480B5
:1025C00091F803C0BCF1480F07D100F1080C4FF09F
:1025D000010808FA0CF8C2F81080401C0828CED375
:1025E0005460BDE8F0814FF6FF71018002218170D7
:1025F0000421C17070470246002093680B400BB164
:10260000012000E0002070470146886880B27047D2
:1026100002460020D3680B400BB1012000E00020EF
:1026200070470146C86880B27047016170474161D8
:1026300070470AB1016100E041617047C1607047B5
:102640004FF480320A4382618161826182698269CA
:10265000704702460020434B18684FF680731840BD
:1026600040EA021008433F4B186070473E49C8617A
:102670007047F0B50A46002300240021002500F031
:102680000046B6F1004F02D1364EF16901E0354EF9
:102690007168C0F3034583B200F44016B6F5401FDD
:1026A00008D121F070612F4E766826F070662D4FAC
:1026B0007E6012E000F48016B6F5801F06D1032676
:1026C00006FA05F4A14341F0706106E0460D3601BB
:1026D00003FA06F6B14341F0706122B1460D3601AE
:1026E00003FA06F6314300F00046B6F1004F02D17E
:1026F0001C4EF16101E01B4E7160F0BD30B500224F
:102700008B071C0F0F2303FA04F2164B08338C10AF
:1027100053F824309343134C08348D1044F825307B
:1027200023468C1053F824308C07240F00FA04F44D
:1027300023430C4C08348D1044F8253030BD0A4931
:10274000DC3108607047000000080140000C0140C7
:10275000001001400014014000180140001C01401D
:10276000002001400000014000002042DF480068D6
:1027700040F00100DD49086008464068DC49084037
:10278000DA49486008460068DA490840D7490860D5
:102790000846006820F4802008600846406820F45D
:1027A000FE0048604FF41F0088607047CF490968F9
:1027B00021F48031CD4A11601146096821F480214D
:1027C0001160B0F5803F03D0B0F5802F0ED106E048
:1027D000C649096841F48031C44A116007E0C34921
:1027E000096841F4A021C14A116000E000BF00BFA8
:1027F000704710B501460022002300204A11012A2B
:1028000002D1BA4C236806E0022A02D1B74C236AEF
:1028100001E0B64C636A01F01F02012494401C40A1
:102820000CB1012000E0002010BD38B50020009060
:102830000024002500BF3120FFF7DBFF054600988C
:10284000401C00900098B0F5A06F01D0002DF2D090
:102850003120FFF7CEFF08B1012400E0002420461C
:1028600038BD01460020A14A106820F0F80040EA77
:10287000C10010607047A049086070470246002000
:102880009A4B586820F47C1042EA01031843974B96
:102890005860704798490866704701460020934A7F
:1028A000506820F003000843506070478F4840682C
:1028B00000F00C007047014600208C4A506820F060
:1028C000F00008435060704701460020874A506876
:1028D00020F4E06008435060704701460020834ABE
:1028E000506820F4605040EAC1005060704729B140
:1028F0007E4A527A02437D4B5A7204E07B4A527AF6
:1029000082437A4B5A7270477B49D83108607047CE
:1029100001460020754A506820F44040084350604A
:1029200070470021714A20321170704A82F82010DD
:10293000012802D004280AD104E001216B4A203288
:10294000117005E00521694A2032117000E000BFD6
:1029500000BF70476949086070476449096A0143CC
:10296000624A11627047654944390860704730B562
:1029700000210022002400235C4D6D6805F00C014D
:1029800021B1042905D0082923D105E05C4D05605B
:1029900022E05B4D05601FE0544D6D6805F4701238
:1029A000524D6D6805F48034022505EB92421CB946
:1029B000544D554305600BE04C4D6D6805F40035F2
:1029C0001DB1504D5543056002E04D4D5543056026
:1029D00002E04B4D056000BF00BF444D6D6805F03F
:1029E000F0010909484D6B5C0568DD4045603F4DCD
:1029F0006D6805F4E061090A434D6B5C4568DD4094
:102A000085603A4D6D6805F46051C90A3E4D6B5CB6
:102A10004568DD40C560354D6D6805F44041890B62
:102A20003A4D6B5CC568B5FBF3F5056130BD29B166
:102A30002E4A526902432D4B5A6104E02B4A5269D7
:102A400082432A4B5A61704729B1284A926902434E
:102A5000264B9A6104E0254A92698243234B9A618E
:102A6000704729B1214AD2690243204BDA6104E060
:102A70001E4AD26982431D4BDA61704729B11B4A55
:102A8000D2680243194BDA6004E0184AD2688243E4
:102A9000164BDA60704729B1144A12690243134B8E
:102AA0001A6104E0114A12698243104B1A6170479F
:102AB00012494039086070470F49C86470470B4994
:102AC000C87170470948406A40F080700749486201
:102AD000704701460020054A92680A400AB1012069
:102AE00000E00020704701498872704700100240E2
:102AF0000000FFF8FFFFF6FE000042428004424261
:102B000000127A0000093D00850000209500002099
:102B100010B50446FB48844209D101218803FFF720
:102B2000ADFF00214FF48040FFF7A8FF32E0F648E8
:102B3000844209D101214804FFF7ADFF00214FF481
:102B40000030FFF7A8FF25E0F048844209D10121B9
:102B50008804FFF7A0FF00214FF48020FFF79BFFC0
:102B600018E0EB48844209D10121C804FFF793FF24
:102B700000214FF40020FFF78EFF0BE0E548844270
:102B800008D101210805FFF786FF00214FF48010CE
:102B9000FFF781FF10BD2DE9F04786B005460E46D0
:102BA0000024A24600BFA1460027B08900B100BFA3
:102BB0002F462C8A4CF6FF700440F08804432C8288
:102BC000AC894EF6F3100440B0883189084371890E
:102BD00008430443AC81AC8A4FF6FF400440B089FF
:102BE0000443AC8201A8FFF7C2FEC648874202D167
:102BF000DDF810A001E0DDF80CA0A88900F4004089
:102C000040B10AEBCA0000EB0A1031684900B0FB82
:102C1000F1F807E00AEBCA0000EB0A1031688900FE
:102C2000B0FBF1F86420B8FBF0F004012009642146
:102C300001FB1089A88900F4004040B1322000EB6C
:102C4000C900B0FBF1F000F00700044308E03220B7
:102C500000EB09106421B0FBF1F000F00F00044319
:102C60002C8106B0BDE8F0874FF4165101600021B9
:102C70008180C18001810C214181002181817047C7
:102C800010B502460020108A4FF2FF0318400B884F
:102C90004C8823438C882343CC88234318431082D9
:102CA00010BD0021018041808180C180704721B129
:102CB000828942F40052828104E082894DF6FF73DA
:102CC0001A4082817047F0B5034600240026002593
:102CD000002040F66A17B94200D100BF1846C1F380
:102CE000421401F01F06012707FA06F5012C01D155
:102CF0000C3004E0022C01D1103000E014301AB185
:102D000007682F43076002E00768AF430760F0BD24
:102D10001AB1838A0B43838202E0838A8B438382C6
:102D20007047028A4FF6F0731A400282028A0A4301
:102D30000282704782894FF2FF731A408281828932
:102D40000A438281704721B1828942F00202828166
:102D500004E082894FF6FD731A4082817047028A2F
:102D60004FF6DF731A400282028A0A4302827047DA
:102D700021B1028A42F48042028204E0028A4BF6C8
:102D8000FF731A4002827047C1F3080282807047C5
:102D900001468888C0F308007047818941F001012D
:102DA00081817047028BD2B20283028B42EA0122F8
:102DB00002837047028B02F47F420283028B0A4334
:102DC0000283704721B1828A42F02002828204E0AD
:102DD000828A4FF6DF731A408282704721B1828A5D
:102DE00042F01002828204E0828A4FF6EF731A40AA
:102DF0008282704721B1828A42F00802828204E016
:102E0000828A4FF6F7731A408282704721B1828915
:102E100042F40042828103E08289C2F30E02828181
:102E2000704721B1828A42F40062828204E0828A81
:102E30004FF2FF731A4082827047828A4FF6FB730B
:102E40001A408282828A0A438282704721B1828A32
:102E500042F00202828204E0828A4FF6FD731A4039
:102E60008282704702460020B1F5007F00D100BF8A
:102E700013880B400BB1012000E00020704701F4E3
:102E80000072B2F5007F00D100BFCA4302807047D4
:102E900070B50246002400230025002040F66A1683
:102EA000B14200D100BFC1F3421501F01F0301265A
:102EB00006FA03F3012D02D19689334006E0022D74
:102EC00002D1168A334001E0968A33400C12012663
:102ED00006FA04F41688344013B10CB1012000E066
:102EE000002070BD10B50022002340F66A14A142F4
:102EF00000D100BF0A1201249440A3B2DC43048035
:102F000010BD00000038014000440040004800406F
:102F1000004C00400050004031490143314A1160EB
:102F2000704770B5002100230F22C47804B32D4CE4
:102F3000246804F4E064C4F5E064210AC1F10403E8
:102F4000CA40447804FA03F184781440214309010B
:102F5000254C0678A155047804F01F050124AC40E7
:102F600005786D11AD0005F1E025C5F8004109E0D7
:102F7000047804F01F050124AC401C4D067876113E
:102F800045F8264070BD1A4A0A400243154B1B1FE4
:102F90001A60704739B1134A121D12680243114B6F
:102FA0001B1D1A6006E00F4A121D126882430D4B6A
:102FB0001B1D1A607047042808D14FF0E0210969F1
:102FC00041F004014FF0E022116107E04FF0E021F1
:102FD000096921F004014FF0E022116170470000FF
:102FE0000000FA050CED00E000E400E080E100E004
:102FF00080FFFF1F10B50446FE48844208D101211E
:10300000C014FFF73BFD0021E014FFF737FDC4E0DB
:10301000B4F1804F08D101210846FFF73CFD0021A3
:103020000120FFF738FDB8E0F348844208D10121C0
:103030000220FFF730FD00210220FFF72CFDACE05D
:10304000EE48844208D101210420FFF724FD00212D
:103050000420FFF720FDA0E0E948844208D10121C7
:103060000820FFF718FD00210820FFF714FD94E069
:10307000E448844208D101211020FFF70CFD002113
:103080001020FFF708FD88E0DF48844208D10121C5
:103090002020FFF700FD00212020FFF7FCFC7CE052
:1030A000DA48844208D101214014FFF7E7FC0021EF
:1030B0006014FFF7E3FC70E0D548844209D1012198
:1030C000C804FFF7DBFC00214FF40020FFF7D6FC1B
:1030D00063E0D048844209D101210805FFF7CEFC06
:1030E00000214FF48010FFF7C9FC56E0CA48844223
:1030F00009D101214805FFF7C1FC00214FF4001060
:10310000FFF7BCFC49E0C548844208D101214020BA
:10311000FFF7C1FC00214020FFF7BDFC3DE0C048A7
:10312000844208D101218020FFF7B5FC00218020D6
:10313000FFF7B1FC31E0BB48844208D10121801582
:10314000FFF7A9FC0021A015FFF7A5FC25E0B64874
:10315000844209D101210804FFF790FC00214FF4BB
:103160008030FFF78BFC18E0B048844209D1012180
:103170004804FFF783FC00214FF40030FFF77EFC8A
:103180000BE0AB48844208D101218804FFF776FCAC
:1031900000214FF48020FFF771FC10BD002202884F
:1031A000944B98420ED0994B98420BD0B0F1804F7F
:1031B00008D0914B984205D0904B984202D0904B4A
:1031C000984204D14FF68F731A404B881A438D4BA7
:1031D000984207D08C4B984204D04FF6FF431A40D8
:1031E000CB881A4302808B8883850B880385814BAB
:1031F00098420BD0854B984208D08B4B984205D013
:103200008A4B984202D08A4B984201D10B7A0386AE
:1032100001238382704770B5002400220023058CAF
:103220004FF6FE7635400584028C8388048B4FF67A
:103230008F752C40B51E2C400D882C43751E2A40DE
:103240000D892A434D882A436A4DA8420BD06F4D01
:10325000A84208D0744DA84205D0744DA84202D0AF
:10326000734DA84213D14FF6F7752A404D892A4372
:103270004FF6FB752A408D882A434FF6FF652B4099
:103280004FF6FF552B408D892B43CD892B438380EF
:103290000483CD888586028470BD70B50024002229
:1032A0000023058C4FF6EF7635400584028C838829
:1032B000048B48F6FF752C404FF6FF452C400D88D7
:1032C0004FF6FF7606EA05252C434FF6DF752A40B8
:1032D0000D8906EA05152A434D8806EA05152A4395
:1032E000444DA84202D0494DA8421DD14FF67F75EA
:1032F0002A404D894FF6FF7606EA05152A434FF618
:10330000BF752A408D8806EA05152A434FF6FF351A
:103310002B404FF2FF752B408D8906EA85052B4324
:10332000CD8906EA85052B4383800483CD880587F4
:10333000028470BD70B5002400220023058C4FF676
:10334000FF6635400584028C8388848B4FF68F7529
:103350002C404FF6FC752C400D882C434FF6FF5542
:103360002A400D894FF6FF7606EA05252A434D8847
:1033700006EA05252A431F4DA84202D0234DA84244
:103380001DD14FF2FF752A404D894FF6FF7606EAB0
:1033900005252A434FF6FF352A408D8806EA052584
:1033A0002A434EF6FF752B404DF6FF752B408D8955
:1033B00006EA05152B43CD8906EA05152B438380C4
:1033C0008483CD888587028470BD70B50022002378
:1033D0000024058C4EF6FF7635400584038C8488E6
:1033E000828B48F6FF752A404FF6FF452A400D882C
:1033F00020E00000002C01400004004000080040D4
:10340000000C004000100040001400400034014057
:10341000004C0140005001400054014000180040A1
:10342000001C0040002000400040014000440140DA
:10343000004801404FF6FF7606EA05252A434DF67F
:10344000FF752B400D8906EA05352B434D8806EAAA
:1034500005352B43FA4DA84202D0FA4DA84208D1B7
:103460004BF6FF752C408D894FF6FF7606EA8515E1
:103470002C4384808283CD88A0F84050038470BDA3
:10348000828B4FF2FF331A408283828B4FF6FF7399
:1034900003EA01231A4382837047F0B50C461546B0
:1034A000002200210026078C4EF6FF7C07EA0C075D
:1034B0000784828B018C4FF6FF7707EA043640F6CB
:1034C000FF473A404FF6FF7707EA05273A434FF6A2
:1034D000FF7707EA03373A43D94FB8420ED0D94FA6
:1034E000B8420BD0B0F1804F08D0D74FB84205D0CA
:1034F000D64FB84202D0D64FB84206D14DF6FF772C
:10350000394046F48057394305E047F6FF573940C4
:1035100044F48057394382830184F0BD828B4FF697
:10352000F3731A408283828B0A4382837047F0B51B
:103530000C461546002200210026078C4FF6FF6C32
:1035400007EA0C070784828B018C4FF6FF7707EAA6
:1035500004264FF60C773A404FF6FF7707EA031739
:103560002F433A43B64FB8420ED0B64FB8420BD0B5
:10357000B0F1804F08D0B44FB84205D0B34FB84235
:1035800002D0B34FB84206D14FF6FF57394046F448
:103590008077394305E04FF2FF57394044F4807794
:1035A000394382830184F0BD028B4FF2FF331A400E
:1035B0000283028B4FF6FF7303EA01231A4302834F
:1035C0007047F0B50C461546002200210026078CF6
:1035D0004FF6EF7C07EA0C070784028B018C4FF64D
:1035E000FF7707EA041640F6FF473A404FF6FF77A9
:1035F00007EA03373A434FF6FF7707EA05273A43CE
:103600008F4FB8420ED08F4FB8420BD0B0F1804FE1
:1036100008D08D4FB84205D08C4FB84202D08C4FA5
:10362000B84206D14FF6DF77394046F010073943EC
:1036300005E04FF65F77394044F0100739430283C5
:103640000184F0BD028B4FF6F3731A400283028BA4
:103650000A4302837047F0B50C461546002200214C
:10366000068C4FF6FE773E400684028B018C4FF6A7
:103670000C7632407E1C06EA03162E433243704E0F
:10368000B0420ED06F4EB0420BD0B0F1804F08D098
:103690006D4EB04205D06D4EB04202D06C4EB0427D
:1036A00006D14FF6FD76314044F00106314305E086
:1036B0004FF6F576314044F0010631430283018430
:1036C000F0BD70B505460C465D4885420ED05D489C
:1036D00085420BD0B5F1804F08D05B48854205D0BC
:1036E0005A48854202D05A48854200D100E000BFC6
:1036F000208850B92389A28861882846FFF7ABFF4C
:10370000E1882846FFF79EFF25E0208804280AD19B
:103710002389A28861882846FFF753FFE18828465D
:10372000FFF742FF17E0208808280AD12389A288E2
:1037300061882846FFF7FBFEE1882846FFF7EEFE8A
:1037400009E02389A28861882846FFF7A6FEE18860
:103750002846FFF795FE70BD2DE9F04105460C4661
:1037600000260127608808B9022600E00026A0880C
:10377000012801D1022700E001272088A0B9238970
:10378000A28861882846FFF766FFE1882846FFF790
:1037900059FF23893A4631462846FFF712FFE18850
:1037A0002846FFF701FF13E02389A2886188284695
:1037B000FFF707FFE1882846FFF7F6FE23893A4620
:1037C00031462846FFF747FFE1882846FFF73AFFD2
:1037D000BDE8F0810A884B881A438B881A43CB884E
:1037E0001A430B891A434B891A438B891A43A0F851
:1037F000442070474FF6FF71818000210180C18015
:103800004180017270470021018041808180C18028
:10381000018141818181C181704700210180418006
:10382000012181800021C180018170470021018038
:1038300041808180C1800181418181817047000088
:10384000002C01400034014000040040000800400A
:10385000000C004021B1028842F00102028004E025
:1038600002884FF6FE731A400280704731B1B0F8FB
:10387000442042F40042A0F8442005E0B0F844207F
:10388000C2F30E02A0F8442070471AB183890B439B
:10389000838102E083898B438381704781827047F3
:1038A00041EA0203A0F8483070471AB183890B43FC
:1038B000838102E083898B438381704701894FF6BE
:1038C000F8721140018170470A46002101894FF6C4
:1038D0008F73194011430181704730B504460D467E
:1038E00029462046FFF7F0FF208940F0070020819D
:1038F00030BD2DE9F04104460D4616461F46602DA9
:1039000006D13B46012231462046FFF75AFE05E02C
:103910003B46012231462046FFF79DFE29462046C0
:10392000FFF7D2FF208940F007002081BDE8F08139
:1039300030B50C4600210189C9B24FF6FF7505EA82
:103940000325154325432943018130BD2DE9F0416D
:1039500005460E4617469846002443463A463146E9
:103960002846FFF7E5FF2C894FF6F870044044F035
:1039700007044FF68F70044044F070042C81BDE8BA
:10398000F081F0B504460D4616461F463B463246CA
:1039900029462046FFF7CCFF208940F48040208153
:1039A000F0BD0185828270470A46002101884FF6EA
:1039B0008F731940114301807047F0B50C461546CE
:1039C0001E460021002200230189028B038C4FF642
:1039D000F877394021434FF6FC473A4040F201174F
:1039E0003A434FF6DD773B404FF6FF7707EA06177D
:1039F0002F433B43018102830384F0BD0A4600212B
:103A0000018B4FF68F7319401143018370470A46AB
:103A10000021018B48F6FF7319404FF6FF7303EA4C
:103A200002231943018370470A460021818B4FF618
:103A30008F7319401143818370470A460021818B9F
:103A400048F6FF7319404FF6FF7303EA0223194348
:103A50008183704721B1028842F08002028004E035
:103A600002884FF67F731A400280704721B1828826
:103A700042F00402828004E082884FF6FB731A4011
:103A80008280704721B1828842F00802828004E07F
:103A900082884FF6F7731A408280704721B182887E
:103AA00042F00102828004E082884FF6FE731A40E1
:103AB000828070470A460021018B4FF6F773194048
:103AC0001143018370470A460021018B4FF2FF73B7
:103AD00019404FF6FF7303EA02231943018370472D
:103AE0000A460021818B4FF6F773194011438183F9
:103AF00070470A460021818B4FF2FF7319404FF641
:103B0000FF7303EA02231943818370470A460021A9
:103B1000018B4FF6FB7319401143018370470A462E
:103B20000021018B4FF6FF3319404FF6FF7303EA74
:103B300002231943018370470A460021818B4FF607
:103B4000FB7319401143818370470A460021818B22
:103B50004FF6FF3319404FF6FF7303EA0223194370
:103B6000818370470A460021018B4FF67F7319400D
:103B70001143018370470A460021018BC1F30E01F6
:103B80004FF6FF7303EA02231943018370470A4685
:103B90000021818B4FF67F73194011438183704759
:103BA0000A460021818BC1F30E014FF6FF7303EA31
:103BB00002231943818370470A460021018C4FF686
:103BC000FD7319401143018470470A460021018C9E
:103BD0004FF6F77319401143018470470A460021DC
:103BE000018C4FF6DF7319404FF6FF7303EA02139F
:103BF0001943018470470A460021018C4FF67F73F8
:103C000019404FF6FF7303EA02131943018470470A
:103C10000A460021018C4FF6FF5319404FF6FF73FF
:103C200003EA02231943018470470A460021018CEC
:103C30004FF2FF7319404FF6FF7303EA0223194353
:103C4000018470470A460021018C4DF6FF7319402C
:103C50004FF6FF7303EA023319430184704730B50E
:103C6000002301248C40A3B2048C9C430484048C64
:103C700002FA01F5ADB22C43048430BD30B5002307
:103C800004248C40A3B2048C9C430484048C02FA68
:103C900001F5ADB22C43048430BD70B5034600205D
:103CA00000241846183001258D40ACB21D8CA54368
:103CB0001D8409B1082909D100EB6100056825F0D0
:103CC000700505600568154305600EE00D1FC5F31E
:103CD0004E052844056825F4E045056005684FF663
:103CE000FF7606EA02263543056070BD21B10288E1
:103CF00042F00202028004E002884FF6FD731A408F
:103D00000280704721B1028842F00402028004E080
:103D100002884FF6FB731A400280704721B18288F7
:103D200042F08002828004E082884FF67F731A405E
:103D30008280704702884FF6F7731A40028002882B
:103D40000A430280704782884FF68F731A40828040
:103D500082880A438280704702894FF6F8731A40BE
:103D6000028102890A430281704702894FF67F73FC
:103D70001A40028102890A43028170478184704798
:103D800081857047818670470187704781877047BA
:103D9000A0F84010704702884FF6FF431A40028097
:103DA00002880A43028070470146888E70470146A8
:103DB000088F70470146888F70470146B1F8400070
:103DC00070470146888C70470146088D704702464F
:103DD0000020138A0B400BB1012000E00020704747
:103DE000CA430282704730B50246002000230024F7
:103DF000158A05EA0103958905EA010413B10CB19E
:103E0000012000E0002030BDCA4302827047014615
:103E100001EBC1024FF0E0235A6101221A61002236
:103E20009A6100BF4FF0E022106900F001021AB160
:103E300000F48032002AF5D000224FF0E0231A610E
:103E40009A617047014642F228324A434FF0E0231C
:103E50005A6101221A6100229A6100BF4FF0E022EC
:103E6000106900F001021AB100F48032002AF5D086
:103E700000224FF0E0231A619A61704700B587B0C5
:103E800001210420FEF7E0FD01218803FEF7DCFD9F
:103E900001210846FEF7D8FD4FF40070ADF8180078
:103EA00003208DF81A0018208DF81B0006A9DB48A6
:103EB000FEF70EFB4FF48060ADF8180004208DF87B
:103EC0001B0006A9D548FEF703FB4FF461400290A2
:103ED0000020ADF80C00ADF80E00ADF81000ADF804
:103EE00014000C20ADF8120002A9CD48FEF753FED5
:103EF0000121CB48FEF7DBFE012240F22551C848E4
:103F0000FEF7E1FE4021C648FEF7B9FF4FF4C0605E
:103F1000FFF702F825208DF8040000208DF8050039
:103F20008DF8060001208DF8070001A8FEF7F9FFC3
:103F300007B000BD00B587B001210420FEF784FD65
:103F400001214804FEF78DFD01210846FEF77CFDA6
:103F50000420ADF8180003208DF81A0018208DF801
:103F60001B0006A9AD48FEF7B3FA0820ADF818000B
:103F700004208DF81B0006A9A848FEF7A9FA4FF403
:103F8000165002900020ADF80C00ADF80E00ADF810
:103F90001000ADF814000C20ADF8120002A9A148E1
:103FA000FEF7F9FD01219F48FEF781FE012240F254
:103FB00025519C48FEF787FE40219A48FEF75FFF97
:103FC0004FF4C060FEF7A8FF26208DF80400002003
:103FD0008DF805008DF8060001208DF8070001A876
:103FE000FEF79FFF07B000BD00B587B00121082094
:103FF000FEF72AFD01218804FEF733FD0121084662
:10400000FEF722FD4FF48060ADF8180003208DF814
:104010001A0018208DF81B0006A98348FEF758FAED
:104020004FF40060ADF8180004208DF81B0006A9BD
:104030007D48FEF74DFA4FF4E13002900020ADF8D4
:104040000C00ADF80E00ADF81000ADF814000C2017
:10405000ADF8120002A97548FEF79DFD01217348D5
:10406000FEF725FE012240F225517048FEF72BFE97
:1040700040216E48FEF703FF4FF4E060FEF74CFF6F
:1040800027208DF8040000208DF805008DF806002B
:1040900001208DF8070001A8FEF743FF07B000BD1F
:1040A00000B587B001211020FEF7CEFC0121C80425
:1040B000FEF7D7FC01210846FEF7C6FC4FF48060EE
:1040C000ADF8180003208DF81A0018208DF81B0099
:1040D00006A95748FEF7FCF94FF40060ADF8180048
:1040E00004208DF81B0006A95148FEF7F1F94FF4A2
:1040F000165002900020ADF80C00ADF80E00ADF89F
:104100001000ADF814000C20ADF8120002A94948C7
:10411000FEF741FD01214748FEF7C9FD012240F2AB
:1041200025514448FEF7CFFD40214248FEF7A7FE47
:104130004FF4C060FEF7F0FE34208DF8040000203C
:104140008DF805008DF8060001208DF8070001A804
:10415000FEF7E7FE07B000BD00B587B001211020D3
:10416000FEF772FC01212020FEF76EFC01210805FC
:10417000FEF777FC01210846FEF766FC4FF48050FD
:10418000ADF8180003208DF81A0018208DF81B00D8
:1041900006A92748FEF79CF90420ADF818008DF811
:1041A0001B0006A92448FEF793F94FF4165002901D
:1041B0000020ADF80C00ADF80E00ADF81000ADF821
:1041C00014000C20ADF8120002A91C48FEF7E3FC15
:1041D00001211A48FEF76BFD012240F225511748D4
:1041E000FEF771FD40211548FEF749FE4FF4C0600F
:1041F000FEF792FE35208DF8040000208DF80500B2
:104200008DF8060001208DF8070001A8FEF789FE51
:1042100007B000BD10B5FFF731FE10BD000801402A
:104220000038014000440040000C014000480040BC
:1042300000100140004C00400014014000500040BC
:104240001FB501210220FEF70CFC01211748FFF7E2
:10425000DBFD2720ADF8080048F69F40ADF80400CC
:104260000020ADF80A00ADF8060001A90F48FEF7DE
:1042700095FF01210D48FFF7EDFA012211460B4889
:10428000FFF703FB4FF4C060FEF746FE1D208DF8DC
:10429000000000208DF8010001208DF802008DF84B
:1042A00003006846FEF73DFE1FBD0000000400400D
:1042B00000B587B001210420FEF7C6FB01210803E9
:1042C000FEF7C2FBE020ADF8180018208DF81B00A7
:1042D00003208DF81A0006A96848FEF7F9F8E021D6
:1042E0006648FEF7A2F90020ADF804004FF4827092
:1042F000ADF806000020ADF808000220ADF80A0075
:104300000120ADF80C004002ADF80E003820ADF8E9
:1043100010000020ADF812000720ADF814000121B4
:104320005748FDF71CFC01A95548FDF773FB07B082
:1043300000BD00B587B001210820FEF785FB0121F3
:104340008803FEF78EFB4FF46040ADF8180018208C
:104350008DF81B0003208DF81A0006A94948FEF7C6
:10436000B7F80020ADF804004FF48270ADF80600F5
:104370000020ADF80800ADF80A00ADF80C004FF4CD
:104380000070ADF80E003820ADF810000020ADF838
:1043900012000720ADF8140001213B48FDF7DFFBB8
:1043A00001A93948FDF736FB07B000BD10B504463A
:1043B000334800884FF6C7710840314908800846E5
:1043C00000882043088001212D48FDF7C8FB10BD5F
:1043D00010B504462C4800884FF6C77108402A499A
:1043E0000880084600882043088001212648FDF700
:1043F000B6FB10BD70B50446002507E0681C85B209
:1044000042F21070854201DDFF2070BD02211C4880
:10441000FDF729FC0028F1D021461948FDF7D0FB13
:1044200000BF01211648FDF71EFC0028F9D01448F2
:10443000FDF7C8FBC0B2E8E770B50446002507E009
:10444000681C85B242F21070854201DDFF2070BD0C
:1044500002210D48FDF707FC0028F1D021460A484B
:10446000FDF7AEFB00BF01210748FDF7FCFB00286C
:10447000F9D00548FDF7A6FBC0B2E8E70008014007
:1044800000300140000C01400038004010B500240D
:104490001021D248FEF7CBF84FF48041D048FEF708
:1044A000C4F84FF48051CF48FEF7BFF89020FFF7D3
:1044B000A1FF0020FFF79EFF0020FFF79BFF0020D9
:1044C000FFF798FFFF20FFF795FF44EA0024FF2045
:1044D000FFF790FF04431021C048FEF7A6F82046DE
:1044E00010BD08B501210420FEF7AEFA1020ADF88A
:1044F00000008DF8030003208DF802006946B748DC
:10450000FDF7E6FF1021B548FEF78FF8FFF7D0FE64
:10451000FFF7BCFF204608BD70B5002400BF641C37
:10452000B4F1704F01D3FF2070BD1021AB48FEF7EE
:104530007EF84FF48041AA48FEF777F84FF4805197
:10454000A848FEF772F80520FFF754FFFF20FFF799
:1045500051FF05461021A148FEF767F805F001005C
:104560000028DCD100BFDFE770B505460C461646D3
:104570000020FFF71BFFFFF7CFFF10219748FEF742
:1045800056F84FF480419648FEF74FF84FF48051AB
:104590009448FEF74AF80320FFF72CFFC4F30740C6
:1045A000FFF728FFC4F30720FFF724FFE0B2FFF76F
:1045B00021FF04E0FF20FFF71DFF28706D1C300075
:1045C000A6F101018EB2F5D110218448FEF72DF835
:1045D00070BD10B510218148FEF729F84FF48041D5
:1045E0007F48FEF722F84FF480517E48FEF71DF811
:1045F0000620FFF7FFFE10217848FEF716F810BDE1
:1046000010B50446FFF788FFFFF7E3FF102173485A
:10461000FEF70DF84FF480417148FEF706F84FF4AD
:1046200080517048FEF701F82020FFF7E3FEC4F345
:104630000740FFF7DFFEC4F30720FFF7DBFEE0B221
:10464000FFF7D8FE10216548FDF7EFFF10BD10B54C
:10465000FFF762FFFFF7BDFF10216048FDF7E7FF9E
:104660004FF480415E48FDF7E0FF4FF480515D4814
:10467000FDF7DBFFC720FFF7BDFE10215748FDF710
:10468000D4FF10BD2DE9F04107460D461446EEB2A9
:10469000C6F58076B44200DC26463CE0FFF73CFFDE
:1046A000FFF797FF10214D48FDF7C1FF4FF4804100
:1046B0004B48FDF7BAFF4FF480514A48FDF7B5FF6C
:1046C0000220FFF797FEC5F30740FFF793FEC5F3FF
:1046D0000720FFF78FFEE8B2FFF78CFE4FF00008CF
:1046E00007E03878FFF786FE7F1C08F101001FFA0B
:1046F00080F8B045F5DB10213848FDF796FFB4424D
:1047000000D109E03544A01B84B2FF2C02DD4FF438
:10471000807600E02646C1E700BFBDE8F0812DE9C4
:10472000F04781460F4616460020FFF73FFEC7F3CD
:104730000F38C7F30B0ACAF58054A64200DA344694
:1047400047E04FEA08314FF480522748FFF70CFF4B
:10475000002508E00AEB05002349085CFF2800D08B
:1047600003E0681C85B2A542F4DB00BFA54217DA5E
:104770004FEA0830FFF744FF002507E019F805006D
:104780000AEB0501184A5054681C85B2A542F5DBB6
:104790004FEA08314FF480521348FFF773FF04E0EB
:1047A000224639464846FFF76DFFB44200D111E07A
:1047B000A1442744301B86B208F101001FFA80F89B
:1047C0004FF0000AB6F5805F02DB4FF4805400E042
:1047D0003446B6E700BFBDE8F0870000000801409E
:1047E00000200140000C0140B802002008B54BF247
:1047F0000200ADF8000010208DF8030003208DF8B2
:1048000002006946FD48FDF763FE4BF20201FB48DA
:10481000FDF70BFF4FF48040ADF8000048208DF805
:1048200003006946F548FDF753FE08BD2DE9F04148
:1048300006460D460020F2490860F249C1F8B00171
:104840007E2000EA4607082412E0C7F3C010EC49B6
:10485000083108600120EB49C1F8B4017806070E61
:104860000020E74908600A20FFF7D1FA601EC4B2B1
:10487000002CEADC082412E0C5F3C010E04908313E
:1048800008600120DF49C1F8B4016806050E002068
:10489000DB4908600A20FFF7BAFA601EC4B2002C98
:1048A000EADC0120D649091F0860D649C1F8B401E5
:1048B000BDE8F0812DE9F041064600250020D049F1
:1048C0000860D049C1F8B0017E2000EA460040F0FF
:1048D0008007082412E0C7F3C010C94908310860F6
:1048E0000120C849C1F8B4017806070E0020C44968
:1048F00008600A20FFF78BFA601EC4B2002CEADCC5
:10490000082410E00120BE4908606806050EBD4875
:10491000D0F838012843C5B2002008600A20FFF70C
:1049200076FA601EC4B2002CECDC0120B449091FE9
:104930000860B449C1F8B4012846BDE8F08170B5FB
:1049400005460C4600262846FFF7B4FF064646EA11
:1049500004012846FFF76AFF70BD70B505460C4696
:1049600000262846FFF7A6FF064626EA0401284649
:10497000FFF75CFF70BD2DE9FE4F06468846914665
:104980009A46DDF830B0FE200290002001900090A1
:104990000C2E06D00E2E09D112200190102000906E
:1049A00005E0772001903020009000E000BF00BFBC
:1049B000019840F080010220FFF738FF8021042099
:1049C000FFF7CBFF00210120FFF730FF80210A20F5
:1049D000FFF7B5FF002505E018F805100920FFF7DF
:1049E00025FF6D1C4D45F7D331460120FFF71EFF13
:1049F0000C2E03D180210D20FFF7A1FF4FF4167577
:104A000000BF0420FFF756FF04466D1E35B104F0C9
:104A1000010018B9009820400028F2D080210D2014
:104A2000FFF79BFF95B30620FFF744FF00F01B0044
:104A300068BB002002900198204000F0010008B1FE
:104A4000FF2002900C2E24D10A20FFF733FF0446EA
:104A50000C20FFF72FFF00F007072FB1601E07EBB8
:104A6000C000CBF8000002E0E000CBF8000004B981
:104A70000124122C00DD1224002505E00920FFF797
:104A800019FF0AF805006D1CA542F7D301E0FE20CE
:104A9000029080210C20FFF752FF00210120FFF738
:104AA000C5FE0298BDE8FE8F2DE9F0410746884615
:104AB000154604210520FFF750FF00210120FFF7D4
:104AC000B5FE80210A20FFF73AFF002405E0395D9A
:104AD0000920FFF7ABFE601CC4B24445F7DB03219D
:104AE0000120FFF7A3FEFF2400BF0520FFF7E2FE31
:104AF0000646601EC4B21CB106F004000028F4D0C3
:104B00002220FFF7D7FE28702120FFF7D3FE687020
:104B1000BDE8F081F0B587B005460E4630208DF82F
:104B200004008DF805500DF10602022101A8FFF7DF
:104B3000BBFF06A801AB042201A900900C20FFF7DF
:104B40001AFF074667B90698902809D1002404E0A7
:104B500001A8005D3055601CC4B2102CF8DB00E0E9
:104B6000FE27384607B0F0BDF0B587B006460F46C1
:104B7000A0208DF804008DF805600DF106020221D9
:104B800001A8FFF791FF06A801AB042201A900903C
:104B90000C20FFF7F0FE054645B90698042805D11C
:104BA0009DF8040000F00F000A2800D0FE250DBB80
:104BB000002404E0385D01A90855601CC4B2102C23
:104BC000F8DB05AA102101A8FFF76EFF06A801ABCC
:104BD000122201A900900C20FFF7CDFE054645B931
:104BE0000698042805D19DF8040000F00F000A285B
:104BF00000D0FE25284607B0F0BD0000000C0140A3
:104C0000B4812142008021422DE9F04387B006465D
:104C10000F46904699468DF804608DF80570002483
:104C200006E018F8041001AAA01C1154601CC4B2BC
:104C3000062CF6DB002407E019F8041001AA04F1A1
:104C400008001154601CC4B2062CF5DB06A801ABA9
:104C50000C2201A900900E20FFF78DFE05462DB90C
:104C60000820FFF727FE00F0080000B9FE252846BF
:104C700007B0BDE8F08370B588B0054693208DF885
:104C8000080070208DF8090000208DF80E00002427
:104C90000BE0295D02AAA01C11549DF80E00295DAD
:104CA00048408DF80E00601CC4B2042CF1DB0DF1FD
:104CB0000F02072102A8FFF7F7FE08210846FFF7B9
:104CC0004CFE07A802AB092202A900900C20FFF7B6
:104CD00052FE064626B90798182801D1002600E0A2
:104CE000FE26304608B070BDF0B587B005460027F7
:104CF00008210846FFF731FE00210D20FFF796FD41
:104D000080210E20FFF729FE93208DF8040020203B
:104D10008DF8050006A801AB022201A900900C2025
:104D2000FFF729FE064686B9002407E001A8005DCA
:104D3000285501A8005D4740601CC4B2042CF5DB77
:104D400001A8005DB84200D0FE2680210E20FFF7AA
:104D5000F6FD304607B0F0BD70B588B005460C468C
:104D600008210846FFF7F9FD07210D20FFF75EFD3A
:104D700003211420FFF7E3FD8DF8085007A802ABCC
:104D8000012202A900900C20FFF7F5FD06464EB95E
:104D90000798102806D19DF8080020709DF809009A
:104DA000607000E0FE26304608B070BD10B51420DB
:104DB000FFF780FD044604F0030018B90321142016
:104DC000FFF7BDFD10BD10B503211420FFF7C5FD91
:104DD00010BD10B50120C64908600A20FFF717F87A
:104DE0000020C449C1F884010A20FFF710F801200F
:104DF000BF4908600A20FFF70AF80F210120FFF7DA
:104E000015FD0A20FFF703F83D211120FFF70EFDE5
:104E10001E212D20FFF70AFD00212C20FFF706FDA3
:104E20008D212A20FFF702FD3E212B20FFF7FEFCFB
:104E300040211520FFF7FAFC002010BD10B58EB000
:104E4000ADA30FCB02AC0FC4AFA103C9CDE90001E4
:104E500006A95220FFF780FF0446ACB11920AC49E7
:104E600008800CE0FFF7B5FFFFF7ADFFFFF79EFFEF
:104E700006A95220FFF770FF044604B903E0A448D6
:104E800000880028EED100BF1920A149088000BF8A
:104E900006A8FFF729FF044604B903E09C480088F0
:104EA0000028F5D100BF19209949088000BF06A845
:104EB000FFF7E1FE044604B903E0954800880028A6
:104EC000F5D100BF19209249088000BF06AB6A46A1
:104ED00008216020FFF798FE044604B903E08C48DF
:104EE00000880028F2D100BF32208949088000BF25
:104EF00002A90820FFF738FE044604B903E08448FD
:104F000000880028F4D100BF32208149088000BF0A
:104F100006A90820FFF7FEFD044604B903E07C481B
:104F200000880028F4D100BF0EB010BD2DE9F0417B
:104F300088B007460E4690468DF808708DF80960D7
:104F40000DF10A02022102A8FFF7AEFD07A802AB8D
:104F5000042202A900900C20FFF70DFD044644B97D
:104F60000798042805D19DF8080000F00F000A28D2
:104F700000D0FE24E4B9002505E018F8050002A9D8
:104F80004855681CC5B2102DF7DB03AA042102A8FE
:104F9000FFF78AFD0020079007A802AB062202A9AE
:104FA00000900C20FFF7E7FC0446FE2C00D0002404
:104FB000F4B9B0208DF808008DF809600DF10A02EF
:104FC000022102A8FFF770FD07A802AB042202A984
:104FD00000900C20FFF7CFFC044644B90798042842
:104FE00005D19DF8080000F00F000A2800D0FE242B
:104FF000204608B0BDE8F08170B588B005460E4681
:10500000C2208DF808008DF809500DF10A02022126
:1050100002A8FFF749FD07A802AB042202A90090ED
:105020000C20FFF7A8FC044644B90798042805D1D2
:105030009DF8080000F00F000A2800D0FE24CCB92B
:1050400000208DF808008DF809008DF80A008DF811
:105050000B0003AA042102A8FFF726FD07A802AB54
:10506000062202A900900C20FFF785FC0446FE2CC6
:1050700000D0002414B1FE2008B070BDB0208DF81F
:1050800008008DF809600DF10A02022102A8FFF75D
:105090000BFD07A802AB042202A900900C20FFF729
:1050A0006AFC044644B90798042805D19DF8080015
:1050B00000F00F000A2800D0FE242046DCE700B5EF
:1050C00087B050208DF8040000208DF805000DF108
:1050D0000602022101A8FFF7E7FC06A801AB0422A3
:1050E00001A900900C20FFF746FC002007B000BD8E
:1050F0008481214200802142FF345678EDCBA9877C
:105100001234567801FE01FEFFFFFFFFFFFF000093
:105110005800002010B545F25550FCF7DBFD042087
:10512000FCF7DBFD4FF44870FCF7DAFDFCF7DBFD24
:10513000FCF7DEFD10BD032A40F2308010F0030CB6
:1051400000F0158011F8013BBCF1020F624498BFDA
:1051500011F801CB00F8013B38BF11F8013BA2F177
:10516000040298BF00F801CB38BF00F8013B11F0F2
:10517000030300F02880083AC0F0088051F8043B8F
:10518000083A51F804CBA0E80810F5E7121D5CBFFF
:1051900051F8043B40F8043BAFF30080D20724BF32
:1051A00011F8013B11F801CB48BF11F8012B24BFC6
:1051B00000F8013B00F801CB48BF00F8012B704715
:1051C00070477047704710B5203AC0F00B80B1E8C7
:1051D0001850203AA0E81850B1E81850A0E818502C
:1051E000BFF4F5AF5FEA027C24BFB1E81850A0E835
:1051F000185044BF18C918C0BDE810405FEA827C4F
:1052000024BF51F8043B40F8043B08BF7047D20765
:1052100028BF31F8023B48BF11F8012B28BF20F806
:10522000023B48BF00F8012B7047754600F028F894
:10523000AE4605006946534620F00700854618B083
:1052400020B5FCF7AFFBBDE820404FF000064FF063
:1052500000074FF000084FF0000B21F00701AC46AB
:10526000ACE8C009ACE8C009ACE8C009ACE8C009CA
:105270008D4670470446AFF300802046FAF79FFF43
:1052800000487047B812002001491820ABBEFEE765
:105290002600020070470000B852000800000020FD
:1052A0009C0000006C010008545300089C00002082
:1052B0007C18000088010008534D413030303141E6
:1052C00056312E3052303231323334353637383968
:1052D0003031323334353637383930010000000090
:1052E00000000000000000000000000000000000BE
:1052F00000000000000000000000000000000000AE
:10530000000000000000000001000000000100009B
:10531000000000000000000000000000000000008D
:105320000000000000A24A0400000000000000008D
:105330000102030406070809000000000000000045
:10534000000102030401020304060708090204061F
:045350000800000051
:0400000508000131BD
:00000001FF
