:020000040800F2
:10000000180900202D1C000855130008571300087C
:10001000E3190008E7190008EB19000800000000C8
:10002000000000000000000000000000EF190008C0
:10003000F119000800000000F3190008F519000884
:10004000471C0008471C0008471C0008471C000804
:10005000471C0008471C0008471C0008471C0008F4
:10006000471C0008471C0008471C0008471C0008E4
:10007000471C0008471C0008471C0008471C0008D4
:10008000471C0008471C0008471C0008471C0008C4
:10009000471C0008471C0008471C0008471C0008B4
:1000A000471C0008471C0008471C0008471C0008A4
:1000B000471C00087D180008471C0008471C000862
:1000C000471C0008471C0008471C0008471C000884
:1000D000471C00085B13000875170008B7170008D5
:1000E000471C0008471C0008471C0008471C000864
:1000F000471C0008471C0008471C0008471C000854
:10010000471C0008471C0008471C0008471C000843
:10011000F91700083B180008471C0008471C000896
:10012000471C0008471C0008471C0008471C000823
:1001300000F002F800F03AF80AA090E8000C8244BF
:100140008344AAF10107DA4501D100F02FF8AFF29C
:10015000090EBAE80F0013F0010F18BFFB1A43F0A5
:1001600001031847B03A0000D03A0000103A24BF0B
:1001700078C878C1FAD8520724BF30C830C144BF0C
:1001800004680C607047000000230024002500264E
:10019000103A28BF78C1FBD8520728BF30C148BFEA
:1001A0000B6070471FB51FBD10B510BD03F0FAFC02
:1001B0001146FFF7F7FF01F0AEF803F018FD03B4A6
:1001C000FFF7F2FF03BC03F01DFD000000BF0100BC
:1001D000A0F10100FBD1704710B5044604F0800087
:1001E000802805D10022C101F94801F050FE04E049
:1001F00001229103F64801F04AFE04F04000402835
:1002000005D100224102F24801F041FE04E0012242
:10021000D103EF4801F03BFE04F02000202805D177
:1002200000220121EA4801F032FE04E001221146D9
:10023000E74801F02CFE04F01000102805D1002240
:100240000421E34801F023FE04E001220421E048F8
:1002500001F01DFE04F00800082805D10022082145
:10026000DB4801F014FE04E001220821D84801F027
:100270000EFE04F00400042805D100220221D54816
:1002800001F005FE04E001220221D24801F0FFFD49
:1002900004F00200022805D100220121CD4801F01E
:1002A000F6FD04E001221146CA4801F0F0FD10BD40
:1002B00010B5044604F01000102805D100220221D8
:1002C000C34801F0E4FD04E001220221C04801F02E
:1002D000DEFD04F00F00102849D2DFE800F02C0802
:1002E0000C1014181C2024283034383C40440C20B6
:1002F000FFF772FF3CE0DA20FFF76EFF38E0F220F4
:10030000FFF76AFF34E06620FFF766FF30E0B620B3
:10031000FFF762FF2CE0BE20FFF75EFF28E0E02041
:10032000FFF75AFF24E0FE20FFF756FF20E0E6200B
:10033000FFF752FF1CE0FC20FFF74EFF18E03A20C9
:10034000FFF74AFF14E03E20FFF746FF10E01A20B7
:10035000FFF742FF0CE07A20FFF73EFF08E09E2007
:10036000FFF73AFF04E08E20FFF736FF00E000BF02
:1003700000BF10BD08B54FF48070ADF80000042038
:100380008DF8030000208DF802006946914801F0C5
:10039000CDFC0320ADF8000010208DF803000320F1
:1003A0008DF8020069468B4801F0C0FC6020ADF872
:1003B000000004208DF8030000208DF8020069463B
:1003C000854801F0B3FC4FF46070ADF800001020D8
:1003D0008DF8030003208DF8020069467E4801F085
:1003E000A5FC4FF47070ADF8000004208DF80300F8
:1003F00000208DF802006946754801F097FC4EF226
:100400000F00ADF8000010208DF8030003208DF8D8
:10041000020069466E4801F089FC4FF6F060ADF8C5
:10042000000004208DF8030000208DF802006946CA
:100430006A4801F07BFC4FF48070ADF8000010209A
:100440008DF8030003208DF802006946634801F02F
:100450006DFC4CF20C00ADF8000004208DF8030098
:1004600000208DF8020069465D4801F05FFC43F60C
:10047000F370ADF8000010208DF8030003208DF814
:1004800002006946564801F051FC03205549088096
:100490000020554908804CF20F00544908804FF461
:1004A000EC60534908800020524908804D4801887B
:1004B000484801F0F1FC4C480188474801F0ECFC49
:1004C0004A480188424801F0E7FC4948018843480E
:1004D00001F0E2FC47480188414801F0DDFC08BD1D
:1004E00010B501F071FD4FF4803001F08DFD00BFBB
:1004F000312001F0ACFD0028FAD002203E4908600E
:10050000002001F006FE002001F015FE4FF480608F
:1005100001F008FE4FF4E0114FF4803001F0DCFDF3
:10052000012001F0E5FD00BF392001F090FD002819
:10053000FAD0022001F0DFFD00BF01F0E5FD082840
:10054000FBD101217D2001F0ADFE0121880301F0E6
:10055000B6FE00214FF0006002F043F94FF4407006
:1005600002F008F9042002F054F9FFF703FF10BD70
:1005700010B50246002002E013785840521C0B00D0
:10058000A1F10104E1B2F7D110BD10B501220221A1
:10059000134801F07CFC10BD10B500220221104868
:1005A00001F075FC10BD10B5012211460C4801F098
:1005B0006EFC10BD10B500220121094801F067FC56
:1005C00010BD10B501225102034801F060FC10BDBE
:1005D0000010014000080140000C014000140140DF
:1005E00000180140720000207400002076000020F6
:1005F000780000207A0000200020024010B5002280
:100600004FF40071F64801F042FC10BD10B5012214
:100610001102F34801F03BFC10BD10B500224FF46D
:100620008071EF4801F033FC10BD10B5012280212C
:10063000EB4801F02CFC10BD10B500228021E848E9
:1006400001F025FC10BD10B5E6480078012804D162
:100650001222E549E54803F02BFA4FF48071E44893
:1006600001F0F7FBE04908704FF40071E14801F038
:10067000F0FBDD4948704FF48071DE4801F0E9FB82
:10068000D94988708021DB4801F0E3FBD649C87066
:100690004021D84801F0DDFBD34908714FF40041F7
:1006A000D54801F0D6FBD04948714FF48041D2487B
:1006B00001F0CFFBCC4988714FF40051CE4801F0D6
:1006C000C8FBC949C8714FF48051CB4801F0C1FB48
:1006D000C54908721021C84801F0BBFBC249087324
:1006E0002021C54801F0B5FBBF4948734021C248ED
:1006F00001F0AFFBBC498873C048007801280ED1D7
:100700000846007858B90846407940B10120BC49F4
:10071000087040F6B830BB490860FFF736FFB348B1
:10072000007828B9B048007810B1C820B6490860F0
:10073000AD48407968B9FFF72FFF0020B049087035
:100740000120B249087001220103B14801F09FFB6A
:1007500008E00020AD49087000224FF48051AC48F9
:1007600001F095FBA148C07838B99F48C07820B106
:100770000020A6490870FFF71DFF9C48007938B992
:100780009948007920B10020A0490870FFF736FF92
:100790009548807938B901209E4908700122C1022C
:1007A0009B4801F074FB9048C07938B90220994900
:1007B000087000228102964801F069FB10BD10B557
:1007C0000446FFF7F0FE9448048005E0FFF73BFF86
:1007D0008E48007800B903E08F4800880028F5D1E2
:1007E00000BF8D48008808B9FFF7E4FE10BD10B5C2
:1007F0000446FFF7E6FE8848048005E0FFF723FF84
:100800008248007800B903E0834800880028F5D1C9
:1008100000BF8148008808B9FFF7F0FE10BD10B591
:100820000446FFF7B2FE7C48048006E0FFF70BFFAA
:1008300076480078012800D103E077480088002836
:10084000F4D100BF10BD10B500221021704801F096
:100850001EFB002220216E4801F019FB10BD10B5CF
:10086000002210216A4801F012FB01222021684871
:1008700001F00DFB32206849088005E0FFF7E3FE38
:100880005948807900B903E0634800880028F5D111
:1008900000BFFFF7D8FF10BD10B5012210215C4842
:1008A00001F0F5FA00222021594801F0F0FA322037
:1008B0005949088005E0FFF7C6FE4B48C07900B9EA
:1008C00003E0554800880028F5D100BFFFF7BBFFC3
:1008D00010BD704701228A400243D0B27047012206
:1008E0008A409043704710B5044610214B4801F0F0
:1008F00079FE00BF8021494801F0E2FE0028F9D0CE
:100900002146464801F06EFE00BF8021434801F0B9
:10091000D7FE0028F9D010BD2DE9F04105462C4640
:100920002778641C39462046FFF722FE80461021B6
:100930003A4801F057FE00BF8021384801F0C0FE60
:100940000028F9D00221354801F04CFE00BF80217B
:10095000324801F0B5FE0028F9D000261BE02078CF
:1009600010280AD110212D4801F03CFE00BF802143
:100970002A4801F0A5FE0028F9D02178274801F087
:1009800031FE00BF8021254801F09AFE0028F9D0F1
:10099000641C701CC6B2BE42E1DB10211F4801F08E
:1009A00021FE00BF80211D4801F08AFE0028F9D0F9
:1009B00002211A4801F016FE00BF8021174801F0FD
:1009C0007FFE0028F9D04146144801F00BFE00BF1D
:1009D0008021124801F074FE0028F9D0BDE8F081B2
:1009E000000C01402B00002094020020A6020020F1
:1009F0000008014000100140001401405500002093
:100A00002F00002040000020440000203000002083
:100A1000001801405600002032000020003801403C
:100A2000F749C97A21B9017941F00101017103E067
:100A3000017901F0FE010171F149097B21B90179C8
:100A400041F00201017103E0017901F0FD01017142
:100A5000EB49497B21B9017941F00401017103E0BF
:100A6000017901F0FB010171E6490978012904D1FE
:100A7000817941F00102827103E0817901F0FE0287
:100A80008271E1490978012904D1017941F0080115
:100A9000017103E0017901F0F7010171DB49097887
:100AA000022907D1017941F020010171017901F09A
:100AB000EF010171D5490978012907D1017941F088
:100AC00010010171017901F0DF010171CC49497810
:100AD00019B9017901F0BF010171C949897819B9C2
:100AE000017941F040010171704710B5044641F2AF
:100AF0008830C7490860FFF748FDFFF754FD4FF401
:100B00007A70C4490860C820FFF760FBFFF79BFDBF
:100B100000216171BA48007ABF49097A884206D13A
:100B200060790221FFF7D6FE60716320E070B4485F
:100B3000807AB949897A884206D160790321FFF722
:100B4000C9FE60716320E0701420FFF73FFBFFF7E0
:100B500023FDFFF72FFDFFF776FD01221102AF48BD
:100B600001F095F9C820FFF731FBFFF76CFD00227B
:100B70004FF48071A94801F08AF91420FFF726FB91
:100B80009F480078A4490978884207D160790021FC
:100B9000FFF7A0FE60716320E0701EE09848407887
:100BA0009D494978884207D160790121FFF792FE7B
:100BB00060716320E07010E09148807896498978F0
:100BC00088420AD196480078012806D1607904212C
:100BD000FFF780FE60716320E070FFF734FD0020B6
:100BE0008949087010BD10B50446FFF72CFD20465A
:100BF000FFF716FF10BD70B505460C468948058005
:100C000006E0FFF720FD80480078A04200D103E015
:100C1000844800880028F4D100BF70BD10B5044698
:100C20000020814908700122D102804801F02FF98B
:100C3000FFF709FDFFF7B7FCFFF7A7FC7C48FFF7BC
:100C4000C5FAFFF7B7FCFFF7A7FCFFF7BAFCFFF701
:100C5000FAFC6E480078022801D1FFF700FEFFF78A
:100C6000F2FC6A480078012801D1FFF715FE7048B0
:100C7000FFF7ACFAFFF7C2FCFFF7E5FC634800782A
:100C8000022801D1FFF7EBFD2046FFF7ACFF002063
:100C90005C4908705C49087000224FF400616348A9
:100CA00001F0F5F810BD70B505460C46042D02D0D4
:100CB000052D45D11EE096205A49088008E0FFF72F
:100CC0006BFCFFF7C0FC4E48007A102800D103E00F
:100CD000544800880028F2D100BF5248008820B94B
:100CE0006520A0704120E07003E07320A070002018
:100CF000E07026E044480078E8B996204949088029
:100D000007E0FFF742FCFFF79EFC3D48007A00B980
:100D100003E0444800880028F3D100BF4148008820
:100D200020B96520A0704020E07008E07320A0701A
:100D30000020E07003E06520A0700320E07000E078
:100D400000BF00BF70BD70B5002400263948007890
:100D5000012854D138490870384800788A2873D05F
:100D600011DC842871D007DCF0B1812820D08228E2
:100D70006CD083286BD197E0862869D0872868D00B
:100D80008828F7D166E18F2874D006DC8B2872D0D2
:100D90008C2871D08D28EDD108E290286DD0F028F4
:100DA0006CD0FE28E6D18FE22548FFF7B5FDA4E21E
:100DB00022480078224948700020C8700846FFF792
:100DC0002DFF204801781E48C171C07839280AD00B
:100DD0001B48C0783A2806D01948C07818B1652059
:100DE0001749887039E01648C078392803D014486C
:100DF000C0783A282ED17720114988702DE089E2F9
:100E0000940200202F000020300000205600002017
:100E10004000002044000020A602002000140140F1
:100E2000540000203200002065000020001801401E
:100E300040420F006700002066000020580200209A
:100E4000A4000020600000202CE14AE017E053E2FB
:100E500063E0E7E07320FC4988700720FA490870D6
:100E60000846FFF759FD0020F84908700120F849AD
:100E7000087042E2C6E141E16CE1D4E1FEE1F548EF
:100E80000078F14948700846FFF7ADFE7320EE493F
:100E900088700020C870062008700846FFF73CFDE7
:100EA0000120EB49087028E2EA480078E6494870DA
:100EB0000020C8700120E8490870E348C07818B1E4
:100EC0006520E149887002E07320DF4988700320C3
:100ED000DD4908700846FFF71FFD0120DC49087056
:100EE0000BE2DC480078D84948700020C870DA4925
:100EF0000870D548C07818B16520D349887002E0E1
:100F00007320D14988700320CF4908700846FFF745
:100F100003FD0120CE490870EFE1CE480078CA49B0
:100F20004870FFF790FBCB484078012819D1CB4897
:100F30000078022801D1FFF792FCC948008828B147
:100F40000020C149C870C64908800AE0C34800783B
:100F5000012803D10020BC49C87002E04320BA49EF
:100F6000C870BC484078022819D1BC4800780128D4
:100F700001D1FFF791FCBA48008828B10020B2499E
:100F8000C870B74908800AE0B4480078022803D145
:100F90000020AD49C87002E04420AB49C870B14898
:100FA0000078012819D1AB484078012803D0A9481E
:100FB0004078022803D19620FFF719FC06E0A548E7
:100FC0004078032802D19620FFF7F9FBA448008857
:100FD00030B90020A349087002E001209A49C87086
:100FE0009948FFF700FE994801789748C171C07889
:100FF00018B97320944988700AE09348C078012892
:1010000003D177209049887002E065208E4988706E
:1010100007208D4908700846FFF77EFC00208B49A9
:1010200008706AE18B480078874948700846FFF7E6
:10103000DAFD7320844988700020C870032008708E
:101040000846FFF769FC00208749087001208049A5
:10105000087052E17C4D2D1D7E480078291F487094
:10106000732088700020C870002405E07F48005D70
:1010700028706D1C601CC4B2082CF7D3002405E056
:101080007B48005D28706D1C601CC4B2072CF7D330
:1010900012206D4908700846FFF73EFC01206C499C
:1010A00008702AE16B4800786749487069484078C1
:1010B000032803D067484078042810D16248C078DC
:1010C00030B97320604988700120614908700EE0D2
:1010D00065205D49887002205D49087007E0652041
:1010E000594988703120C87001205949087013206F
:1010F000554908700846FFF70FFCFEE05548007898
:101100005149487053484078032803D051484078EB
:10111000042810D14C48C07830B973204A498870EF
:1011200001204B4908700EE0652047498870022075
:101130004749087007E06520434988703120C8702E
:1011400001204349087003203F4908700846FFF713
:10115000E3FBD2E03F4800783B4948703D48407887
:10116000032803D03B484078042810D13648C07883
:1011700030B97320344988700120354908700EE079
:1011800065203149887002203149087007E06520E8
:101190002D4988703120C87001202D490870072022
:1011A000294908700846FFF7B7FBA6E029480078F0
:1011B000254948700020C87026484078012812D17F
:1011C0002C49087023488078012805D10122C102EA
:1011D000294800F05CFE09E000224FF40061264837
:1011E00000F055FE02E000202249087073201649E5
:1011F0008870032008700846FFF78EFB0120144911
:1012000008707AE0134800780F4948700020C870D1
:1012100073208870032008700846FFF77DFB0120CB
:101220000B49087069E00B480078074948700020B6
:10123000C87073208870042008700846FFF76CFBA4
:1012400001200349087058E0A4000020600000203D
:101250005C000020580200205500002056000020AD
:1012600032000020300000202B0000200800002069
:101270001000002070000020001801402F48007866
:101280002F494870732088700020C8700D1D0024FD
:101290000EE0002608E02B4850F82400F100C8407A
:1012A00028706D1C701CC6B2042EF4DB601CC4B226
:1012B000032CEEDB0F20224908700846FFF72CFBB9
:1012C00001202149087018E01C4800781C4948702A
:1012D0000846FFF788FC1A48FFF707FC73201849F7
:1012E00088700020C870062008700846FFF714FBBD
:1012F00001201549087000E000BF00BF002404E091
:1013000000200E490855601CC4B23C2CF8DB0020BC
:101310000E49087070BD01200B490870FFF7E0F816
:1013200002F08EFB02F06EFB0948FFF777FC03E04A
:10133000FFF789F9FFF707FDFAE7000058020020E0
:10134000A40000204C0200205C0000206700002068
:10135000D9000020704700BFFEE72DE9F041402191
:10136000FC4801F0BAF940F22551FA4801F0BEF903
:1013700000286ED0F74801F039F9F749F74A12789A
:101380008854F7480078012804D0022875D0032833
:1013900074D13AE1F0480078102871D1EE484078D5
:1013A000042814D1002404E00020EB490855601CF7
:1013B00084B2EA4800788442F6DDFF20E7490870ED
:1013C0000420FFF790FA0120E549087066E0E24842
:1013D0004078022811D1002404E00020DE4908559D
:1013E000601C84B2DD4800788442F6DDFF20DB49D2
:1013F00008700220DA49087050E0D7484078052884
:1014000011D1002404E00020D3490855601C84B2A7
:10141000D24800788442F6DDFF20D04908700120D0
:10142000D04908703AE0CC484078102812D1012405
:1014300004E00020C8490855601C84B2C748007801
:101440008442F6DD0020C54908700120C4490870B7
:1014500024E07CE1C148007801281FDD002404E07D
:101460000020BD490855601C84B2BC480078844205
:10147000F6DDFF20B949087010E010E060E1FFE7F9
:10148000002404E00020B4490855601C84B2B3482D
:1014900000788442F6DDFF20B049087050E141F247
:1014A0008830B1490880AC480078102815D1AA4886
:1014B0004078022811D1002404E00020A6490855F4
:1014C000601C84B2A54800788442F6DDFF20A34961
:1014D00008700220A249087096E09F480078102802
:1014E00018D19D484078042814D1002404E000203D
:1014F00099490855601C84B2984800788442F6DD0A
:10150000FF20964908700420FFF7EDF90120944967
:10151000087079E091480078801E8F49085C102897
:1015200059D18E480078401E085C032853D18B485F
:101530000078801E84B2002609E08748005D1028EC
:1015400002D1701CC6B200E003E0601E84B2002C21
:10155000F3DC00BF06F00100002855D00024002570
:101560000DE07D48405D102801D1681CC5B27A4865
:10157000405D7E490855601C84B2681CC5B277483E
:101580000078801EA842ECDCE1B27848FEF7F0FF5C
:101590000746714871490978405CB84206D0152069
:1015A000FFF7A1F901206E49087005E00620FFF75A
:1015B0009AF903206A490870002404E00020664973
:1015C0000855601C84B2654800788442F6DDFF202F
:1015D0006249087018E061480078462814DD5F48C9
:1015E0000078642810DA002404E000205A490855E5
:1015F000601C84B2594800788442F6DDFF205749C8
:1016000008700120564908709AE053480078102865
:101610007ED15148407805281DD1012051490870DC
:101620004F490870002404E000204B490855601C15
:1016300084B24A4800788442F6DD002405E04B4835
:10164000005D4B490855601C84B23C2CF7DBFF2041
:101650004249087073E040484078022811D10024C4
:1016600004E000203C490855601C84B23B480078E7
:101670008442F6DDFF20394908700220384908709D
:101680005DE035484078042814D1002404E00020AF
:1016900031490855601C84B2304800788442F6DD38
:1016A000FF202E4908700420FFF71DF901202C4966
:1016B000087044E028484078102811D1012404E043
:1016C000002025490855601C84B2244800788442D3
:1016D000F6DD0020214908700320214908702EE022
:1016E0001E48007801282ADD002404E000201A4961
:1016F0000855601C84B2194800788442F6DDFF204A
:10170000164908701520FFF7EEF80120144900E093
:1017100001E0087013E0002404E000200E490855A1
:10172000601C84B20D4800788442F6DDFF200B492E
:1017300008701520FFF7D7F801200949087000BF8D
:1017400000BF06480078401C0449087000BFBDE88F
:10175000F0810000003801400E0100200000002050
:101760006600002067000020360000200E020020E6
:101770005802002010B540219F4800F0AEFF40F213
:1017800025519D4800F0B2FFA0B19B4800F02EFF0C
:101790009A49087008460078401C0870084601788D
:1017A000954800F01FFF00BF8021934800F088FF9C
:1017B0000028F9D010BD10B540218F4800F08DFFF2
:1017C00040F225518C4800F091FFA0B18A4800F00A
:1017D0000DFF8B49087008460078401C08700846C9
:1017E0000178854800F0FEFE00BF8021824800F0AD
:1017F00067FF0028F9D010BD10B540217E4800F0E9
:101800006CFF40F225517C4800F070FFA0B17A488F
:1018100000F0ECFE7B49087008460078401C087018
:1018200008460178744800F0DDFE00BF8021724850
:1018300000F046FF0028F9D010BD10B540216E48D9
:1018400000F04BFF40F225516B4800F04FFFA0B174
:10185000694800F0CBFE6C49087008460078401CCF
:10186000087008460178644800F0BCFE00BF802183
:10187000614800F025FF0028F9D010BD10B5012106
:10188000624801F0EFFE6248007802281CD16148EE
:10189000008828B15F480088401E5E49088013E038
:1018A0001520FFF720F8012059490870002404E0B2
:1018B000002059490855601C84B258480078844279
:1018C000F6DDFF20554908705548008820B154487E
:1018D0000088401E524908805248006820B1514893
:1018E0000068401E4F4908604F48006820B14E48CC
:1018F0000068401E4C4908604A48006810B14A48D8
:10190000006820B9FEF748FE0020484908704848A2
:10191000006820B146480068401E454908604548B7
:10192000006820B143480068401E424908604248B0
:10193000006820B140480068401E3F4908603F48A9
:10194000007801281BD13E48008840B964203C49FA
:101950000880012251033B4800F099FA09E0384819
:101960000088322805D100224FF40051354800F09C
:101970008EFA33480088401E3149088028E02F48FD
:10198000007802281BD12E48008840B932202C490B
:101990000880012251032B4800F079FA09E0284819
:1019A0000088192805D100224FF40051254800F085
:1019B0006EFA23480088401E2149088008E01F482D
:1019C000007828B900224FF400511E4800F05FFA59
:1019D0001D48008820B11C480088401E1A49088014
:1019E00010BD00BFFEE700BFFEE700BFFEE7704787
:1019F0007047704770470000004800400100002019
:101A00000200002003000020040000200004004029
:101A100066000020360000200E010020000000209B
:101A20003200002040000020440000202F00002051
:101A3000480000204C000020500000205C000020E6
:101A40006A00002000180140680000200CB500204A
:101A5000019000906C48006840F480306A4908604A
:101A600000BF6948006800F4003000900198401CF5
:101A70000190009818B90198B0F5A06FF1D16248B3
:101A8000006800F4003010B10120009001E0002057
:101A900000900098012843D15C48006840F0100095
:101AA0005A4908600846006820F0030008600846AC
:101AB000006840F00200086053484068524948609E
:101AC0000846406848600846406840F480604860C6
:101AD0000846406820F47C1048600846406840F49E
:101AE000E81048600846006840F08070086000BF59
:101AF0004548006800F000700028F9D0424840686E
:101B000020F00300404948600846406840F0020069
:101B1000486000BF3C48406800F00C000828F9D13C
:101B20000CBD10B5FFF792FF10BD10B53648006828
:101B300040F00100344908600846406834490840D4
:101B40003149486008460068324908402E4908601B
:101B50000846006820F4802008600846406820F4A9
:101B6000FE0048604FF41F008860FFF7DAFF4FF077
:101B700000602949086010BD10B500210020002236
:101B8000214B5B6803F00C0121B1042906D0082920
:101B900028D107E0214B224C236027E01F4B204C2B
:101BA000236023E0184B5B6803F47010164B5B68EE
:101BB00003F48032022303EB904022B9194B4343D4
:101BC000174C23600DE0104B5B6803F4003323B126
:101BD000144B4343124C236003E0104B4343104C1F
:101BE000236003E00D4B0E4C236000BF00BF064B8B
:101BF0005B68C3F303130C4CE15C094B1B68CB40DF
:101C0000074C236010BD000000100240002002407D
:101C10000000FFF8FFFFF6FE08ED00E000127A007A
:101C20007C00002000093D0080000020094880471A
:101C300009480047FEE7FEE7FEE7FEE7FEE7FEE7AE
:101C4000FEE7FEE7FEE7FEE704480549054A064BC6
:101C5000704700002B1B000831010008180300200A
:101C600018090020180500201805002010B50446AA
:101C7000CC48844208D10121042000F02DFB002132
:101C8000042000F029FB46E0C748844208D1012126
:101C9000082000F021FB0021082000F01DFB3AE0A5
:101CA000C248844208D10121102000F015FB002118
:101CB000102000F011FB2EE0BD48844208D1012124
:101CC000202000F009FB0021202000F005FB22E08D
:101CD000B848844208D10121402000F0FDFA0021DB
:101CE000402000F0F9FA16E0B348844208D10121FF
:101CF000802000F0F1FA0021802000F0EDFA0AE0E7
:101D0000AE48844207D10121801500F0E5FA002198
:101D1000A01500F0E1FA10BD10B50121084600F051
:101D2000DBFA0021012000F0D7FA10BD2DE9F041C7
:101D3000024600250026002000230024002791F8F9
:101D400003C00CF00F0591F803C00CF0100CBCF1AF
:101D5000000F03D091F802C04CEA050591F800C0CD
:101D6000BCF1000F31D0146800202BE04FF0010CC3
:101D70000CFA00F3B1F800C00CEA03069E4220D131
:101D800083004FF00F0C0CFA03F7BC4305FA03FC79
:101D90004CEA040491F803C0BCF1280F06D14FF0BF
:101DA000010C0CFA00FCC2F814C00AE091F803C060
:101DB000BCF1480F05D14FF0010C0CFA00FCC2F841
:101DC00010C0401C0828D1D31460B1F800C0BCF189
:101DD000FF0F34DD546800202EE000F1080C4FF0B6
:101DE000010808FA0CF3B1F800C00CEA03069E42A1
:101DF00021D183004FF00F0C0CFA03F7BC4305FA16
:101E000003FC4CEA040491F803C0BCF1280F05D18F
:101E100000F1080C08FA0CF8C2F8148091F803C01D
:101E2000BCF1480F07D100F1080C4FF0010808FA87
:101E30000CF8C2F81080401C0828CED35460BDE8CE
:101E4000F0814FF6FF710180022181700421C17081
:101E500070470246002093680B400BB1012000E060
:101E6000002070470146886880B270470246002013
:101E7000D3680B400BB1012000E000207047014601
:101E8000C86880B2704701617047416170470AB10C
:101E9000016100E041617047C16070474FF48032DA
:101EA0000A43826181618261826982697047024668
:101EB0000020434B18684FF68073184040EA021028
:101EC00008433F4B186070473E49C8617047F0B502
:101ED0000A46002300240021002500F00046B6F148
:101EE000004F02D1364EF16901E0354E7168C0F302
:101EF000034583B200F44016B6F5401F08D121F027
:101F000070612F4E766826F070662D4F7E6012E06D
:101F100000F48016B6F5801F06D1032606FA05F4F4
:101F2000A14341F0706106E0460D360103FA06F662
:101F3000B14341F0706122B1460D360103FA06F655
:101F4000314300F00046B6F1004F02D11C4EF16162
:101F500001E01B4E7160F0BD30B500228B071C0FF5
:101F60000F2303FA04F2164B08338C1053F8243075
:101F70009343134C08348D1044F8253023468C10BD
:101F800053F824308C07240F00FA04F423430C4C3C
:101F900008348D1044F8253030BD0A49DC31086022
:101FA0007047000000080140000C01400010014093
:101FB0000014014000180140001C014000200140B5
:101FC0000000014000002042DF48006840F00100AE
:101FD000DD49086008464068DC490840DA49486045
:101FE00008460068DA490840D74908600846006892
:101FF00020F4802008600846406820F4FE00486015
:102000004FF41F0088607047CF49096821F4803180
:10201000CD4A11601146096821F480211160B0F5A4
:10202000803F03D0B0F5802F0ED106E0C649096885
:1020300041F48031C44A116007E0C349096841F4A2
:10204000A021C14A116000E000BF00BF704710B579
:1020500001460022002300204A11012A02D1BA4C75
:10206000236806E0022A02D1B74C236A01E0B64C8D
:10207000636A01F01F02012494401C400CB101204E
:1020800000E0002010BD38B500200090002400259D
:1020900000BF3120FFF7DBFF05460098401C009091
:1020A0000098B0F5A06F01D0002DF2D03120FFF7DD
:1020B000CEFF08B1012400E00024204638BD0146CF
:1020C0000020A14A106820F0F80040EAC10010602A
:1020D0007047A04908607047024600209A4B586834
:1020E00020F47C1042EA01031843974B5860704774
:1020F00098490866704701460020934A506820F0CE
:1021000003000843506070478F48406800F00C009F
:102110007047014600208C4A506820F0F0000843C8
:102120005060704701460020874A506820F4E06004
:1021300008435060704701460020834A506820F4ED
:10214000605040EAC1005060704729B17E4A527A1F
:1021500002437D4B5A7204E07B4A527A82437A4BA7
:102160005A7270477B49D831086070470146002099
:10217000754A506820F44040084350607047002181
:10218000714A20321170704A82F82010012802D062
:1021900004280AD104E001216B4A2032117005E0C5
:1021A0000521694A2032117000E000BF00BF70476E
:1021B0006949086070476449096A0143624A1162CB
:1021C0007047654944390860704730B500210022E6
:1021D000002400235C4D6D6805F00C0121B1042939
:1021E00005D0082923D105E05C4D056022E05B4D58
:1021F00005601FE0544D6D6805F47012524D6D6816
:1022000005F48034022505EB92421CB9544D554328
:1022100005600BE04C4D6D6805F400351DB1504D67
:102220005543056002E04D4D5543056002E04B4DBE
:10223000056000BF00BF444D6D6805F0F00109095D
:10224000484D6B5C0568DD4045603F4D6D6805F4A9
:10225000E061090A434D6B5C4568DD4085603A4D9D
:102260006D6805F46051C90A3E4D6B5C4568DD4000
:10227000C560354D6D6805F44041890B3A4D6B5C86
:10228000C568B5FBF3F5056130BD29B12E4A526929
:1022900002432D4B5A6104E02B4A526982432A4B78
:1022A0005A61704729B1284A92690243264B9A61C4
:1022B00004E0254A92698243234B9A61704729B111
:1022C000214AD2690243204BDA6104E01E4AD269F6
:1022D00082431D4BDA61704729B11B4AD268024321
:1022E000194BDA6004E0184AD2688243164BDA6070
:1022F000704729B1144A12690243134B1A6104E072
:10230000114A12698243104B1A61704712494039D1
:10231000086070470F49C86470470B49C87170471F
:102320000948406A40F0807007494862704701469A
:102330000020054A92680A400AB1012000E000200E
:102340007047014988727047001002400000FFF892
:10235000FFFFF6FE000042428004424200127A0073
:1023600000093D0090000020A000002010B50446A8
:10237000FB48844209D101218803FFF7ADFF00210A
:102380004FF48040FFF7A8FF32E0F648844209D1BD
:1023900001214804FFF7ADFF00214FF40030FFF7A3
:1023A000A8FF25E0F048844209D101218804FFF705
:1023B000A0FF00214FF48020FFF79BFF18E0EB48BF
:1023C000844209D10121C804FFF793FF00214FF493
:1023D0000020FFF78EFF0BE0E548844208D1012181
:1023E0000805FFF786FF00214FF48010FFF781FFFB
:1023F00010BD2DE9F04786B005460E460024A246E2
:1024000000BFA1460027B08900B100BF2F462C8A2B
:102410004CF6FF700440F08804432C82AC894EF6E1
:10242000F3100440B088318908437189084304439C
:10243000AC81AC8A4FF6FF400440B0890443AC82C3
:1024400001A8FFF7C2FEC648874202D1DDF810A0FE
:1024500001E0DDF80CA0A88900F4004040B10AEBCF
:10246000CA0000EB0A1031684900B0FBF1F807E040
:102470000AEBCA0000EB0A1031688900B0FBF1F8E2
:102480006420B8FBF0F004012009642101FB1089ED
:10249000A88900F4004040B1322000EBC900B0FB35
:1024A000F1F000F00700044308E0322000EB0910CF
:1024B0006421B0FBF1F000F00F0004432C8106B062
:1024C000BDE8F0874FF41651016000218180C18082
:1024D00001810C21418100218181704710B50246A4
:1024E0000020108A4FF2FF0318400B884C882343CA
:1024F0008C882343CC8823431843108210BD0021CD
:10250000018041808180C180704721B1828942F47D
:102510000052828104E082894DF6FF731A40828165
:102520007047F0B50346002400260025002040F641
:102530006A17B94200D100BF1846C1F3421401F036
:102540001F06012707FA06F5012C01D10C3004E023
:10255000022C01D1103000E014301AB107682F436B
:10256000076002E00768AF430760F0BD1AB1838AD5
:102570000B43838202E0838A8B4383827047028A03
:102580004FF6F0731A400282028A0A4302827047B1
:1025900082894FF2FF731A40828182890A438281C5
:1025A000704721B1828942F00202828104E082896F
:1025B0004FF6FD731A4082817047028A4FF6DF732F
:1025C0001A400282028A0A430282704721B1028ABB
:1025D00042F48042028204E0028A4BF6FF731A4002
:1025E00002827047C1F308028280704701468888E2
:1025F000C0F308007047818941F001018181704773
:10260000028BD2B20283028B42EA0122028370471C
:10261000028B02F47F420283028B0A4302837047DB
:1026200021B1828A42F02002828204E0828A4FF63F
:10263000DF731A408282704721B1828A42F0100211
:10264000828204E0828A4FF6EF731A4082827047DA
:1026500021B1828A42F00802828204E0828A4FF627
:10266000F7731A408282704721B1828942F4004296
:10267000828103E08289C2F30E028281704721B118
:10268000828A42F40062828204E0828A4FF2FF73FF
:102690001A4082827047828A4FF6FB731A40828208
:1026A000828A0A438282704721B1828A42F0020202
:1026B000828204E0828A4FF6FD731A40828270475C
:1026C00002460020B1F5007F00D100BF13880B4007
:1026D0000BB1012000E00020704701F40072B2F558
:1026E000007F00D100BFCA430280704770B5024628
:1026F000002400230025002040F66A16B14200D1D4
:1027000000BFC1F3421501F01F03012606FA03F3CF
:10271000012D02D19689334006E0022D02D1168A9E
:10272000334001E0968A33400C12012606FA04F485
:102730001688344013B10CB1012000E0002070BDB8
:1027400010B50022002340F66A14A14200D100BF58
:102750000A1201249440A3B2DC43048010BD00009F
:10276000003801400044004000480040004C004058
:102770000050004031490143314A1160704770B543
:10278000002100230F22C47804B32D4C246804F4E4
:10279000E064C4F5E064210AC1F10403CA4044784E
:1027A00004FA03F18478144021430901254C06788A
:1027B000A155047804F01F050124AC4005786D1183
:1027C000AD0005F1E025C5F8004109E0047804F00A
:1027D0001F050124AC401C4D0678761145F82640B3
:1027E00070BD1A4A0A400243154B1B1F1A607047FE
:1027F00039B1134A121D12680243114B1B1D1A6096
:1028000006E00F4A121D126882430D4B1B1D1A6011
:102810007047042808D14FF0E021096941F0040114
:102820004FF0E022116107E04FF0E021096921F04B
:1028300004014FF0E0221161704700000000FA052A
:102840000CED00E000E400E080E100E080FFFF1F0D
:1028500010B50446FE48844208D10121C014FFF798
:102860003BFD0021E014FFF737FDC4E0B4F1804FD9
:1028700008D101210846FFF73CFD00210120FFF7A8
:1028800038FDB8E0F348844208D101210220FFF767
:1028900030FD00210220FFF72CFDACE0EE48844221
:1028A00008D101210420FFF724FD00210420FFF7B7
:1028B00020FDA0E0E948844208D101210820FFF76B
:1028C00018FD00210820FFF714FD94E0E44884423D
:1028D00008D101211020FFF70CFD00211020FFF787
:1028E00008FD88E0DF48844208D101212020FFF75D
:1028F00000FD00212020FFF7FCFC7CE0DA48844248
:1029000008D101214014FFF7E7FC00216014FFF714
:10291000E3FC70E0D548844209D10121C804FFF7E7
:10292000DBFC00214FF40020FFF7D6FC63E0D04829
:10293000844209D101210805FFF7CEFC00214FF4A4
:102940008010FFF7C9FC56E0CA48844209D1012132
:102950004805FFF7C1FC00214FF40010FFF7BCFC55
:1029600049E0C548844208D101214020FFF7C1FC5D
:1029700000214020FFF7BDFC3DE0C048844208D163
:1029800001218020FFF7B5FC00218020FFF7B1FC7A
:1029900031E0BB48844208D101218015FFF7A9FC32
:1029A0000021A015FFF7A5FC25E0B648844209D117
:1029B00001210804FFF790FC00214FF48030FFF75D
:1029C0008BFC18E0B048844209D101214804FFF78C
:1029D00083FC00214FF40030FFF77EFC0BE0AB4896
:1029E000844208D101218804FFF776FC00214FF4CE
:1029F0008020FFF771FC10BD00220288944B9842A2
:102A00000ED0994B98420BD0B0F1804F08D0914B2B
:102A1000984205D0904B984202D0904B984204D1F6
:102A20004FF68F731A404B881A438D4B984207D04C
:102A30008C4B984204D04FF6FF431A40CB881A4380
:102A400002808B8883850B880385814B98420BD04D
:102A5000854B984208D08B4B984205D08A4B9842C0
:102A600002D08A4B984201D10B7A038601238382DC
:102A7000704770B5002400220023058C4FF6FE76C7
:102A800035400584028C8388048B4FF68F752C406B
:102A9000B51E2C400D882C43751E2A400D892A43F3
:102AA0004D882A436A4DA8420BD06F4DA84208D0EA
:102AB000744DA84205D0744DA84202D0734DA8426F
:102AC00013D14FF6F7752A404D892A434FF6FB750F
:102AD0002A408D882A434FF6FF652B404FF6FF555D
:102AE0002B408D892B43CD892B4383800483CD8854
:102AF0008586028470BD70B5002400220023058CF9
:102B00004FF6EF7635400584028C8388048B48F6B7
:102B1000FF752C404FF6FF452C400D884FF6FF7691
:102B200006EA05252C434FF6DF752A400D8906EA93
:102B300005152A434D8806EA05152A43444DA84247
:102B400002D0494DA8421DD14FF67F752A404D89CC
:102B50004FF6FF7606EA05152A434FF6BF752A4061
:102B60008D8806EA05152A434FF6FF352B404FF2B4
:102B7000FF752B408D8906EA85052B43CD8906EA32
:102B800085052B4383800483CD880587028470BD2F
:102B900070B5002400220023058C4FF6FF663540F7
:102BA0000584028C8388848B4FF68F752C404FF6FA
:102BB000FC752C400D882C434FF6FF552A400D899B
:102BC0004FF6FF7606EA05252A434D8806EA0525D5
:102BD0002A431F4DA84202D0234DA8421DD14FF2D7
:102BE000FF752A404D894FF6FF7606EA05252A43F0
:102BF0004FF6FF352A408D8806EA05252A434EF612
:102C0000FF752B404DF6FF752B408D8906EA0515A3
:102C10002B43CD8906EA05152B4383808483CD8819
:102C20008587028470BD70B5002200230024058CC6
:102C30004EF6FF7635400584038C8488828B48F6F7
:102C4000FF752A404FF6FF452A400D8820E000001E
:102C5000002C01400004004000080040000C00402F
:102C6000001000400014004000340140004C0140BE
:102C7000005001400054014000180040001C00407A
:102C80000020004000400140004401400048014055
:102C90004FF6FF7606EA05252A434DF6FF752B40D1
:102CA0000D8906EA05352B434D8806EA05352B4389
:102CB000FA4DA84202D0FA4DA84208D14BF6FF7552
:102CC0002C408D894FF6FF7606EA85152C438480CB
:102CD0008283CD88A0F84050038470BD828B4FF270
:102CE000FF331A408283828B4FF6FF7303EA01237E
:102CF0001A4382837047F0B50C4615460022002126
:102D00000026078C4EF6FF7C07EA0C070784828BAF
:102D1000018C4FF6FF7707EA043640F6FF473A404A
:102D20004FF6FF7707EA05273A434FF6FF7707EAA2
:102D300003373A43D94FB8420ED0D94FB8420BD0DF
:102D4000B0F1804F08D0D74FB84205D0D64FB84227
:102D500002D0D64FB84206D14DF6FF77394046F43F
:102D60008057394305E047F6FF57394044F4805710
:102D7000394382830184F0BD828B4FF6F3731A408E
:102D80008283828B0A4382837047F0B50C461546D6
:102D9000002200210026078C4FF6FF6C07EA0C0783
:102DA0000784828B018C4FF6FF7707EA04264FF6E3
:102DB0000C773A404FF6FF7707EA03172F433A4361
:102DC000B64FB8420ED0B64FB8420BD0B0F1804FDC
:102DD00008D0B44FB84205D0B34FB84202D0B34F79
:102DE000B84206D14FF6FF57394046F48077394351
:102DF00005E04FF2FF57394044F48077394382832E
:102E00000184F0BD028B4FF2FF331A400283028B24
:102E10004FF6FF7303EA01231A4302837047F0B5AC
:102E20000C461546002200210026078C4FF6EF7C49
:102E300007EA0C070784028B018C4FF6FF7707EA3D
:102E4000041640F6FF473A404FF6FF7707EA03378C
:102E50003A434FF6FF7707EA05273A438F4FB842C8
:102E60000ED08F4FB8420BD0B0F1804F08D08D4FAD
:102E7000B84205D08C4FB84202D08C4FB84206D130
:102E80004FF6DF77394046F01007394305E04FF63B
:102E90005F77394044F01007394302830184F0BD65
:102EA000028B4FF6F3731A400283028B0A430283AC
:102EB0007047F0B50C46154600220021068C4FF6EF
:102EC000FE773E400684028B018C4FF60C76324032
:102ED0007E1C06EA03162E433243704EB0420ED0DB
:102EE0006F4EB0420BD0B0F1804F08D06D4EB04263
:102EF00005D06D4EB04202D06C4EB04206D14FF6B6
:102F0000FD76314044F00106314305E04FF6F57699
:102F1000314044F00106314302830184F0BD70B5B5
:102F200005460C465D4885420ED05D4885420BD073
:102F3000B5F1804F08D05B48854205D05A4885429C
:102F400002D05A48854200D100E000BF208850B925
:102F50002389A28861882846FFF7ABFFE1882846CD
:102F6000FFF79EFF25E0208804280AD12389A28844
:102F700061882846FFF753FFE1882846FFF742FFA4
:102F800017E0208808280AD12389A288618828466A
:102F9000FFF7FBFEE1882846FFF7EEFE09E02389F4
:102FA000A28861882846FFF7A6FEE1882846FFF739
:102FB00095FE70BD2DE9F04105460C46002601271F
:102FC000608808B9022600E00026A088012801D107
:102FD000022700E001272088A0B92389A288618800
:102FE0002846FFF766FFE1882846FFF759FF238947
:102FF0003A4631462846FFF712FFE1882846FFF798
:1030000001FF13E02389A28861882846FFF707FFA4
:10301000E1882846FFF7F6FE23893A4631462846DE
:10302000FFF747FFE1882846FFF73AFFBDE8F08148
:103030000A884B881A438B881A43CB881A430B891A
:103040001A434B891A438B891A43A0F844207047CE
:103050004FF6FF71818000210180C18041800172A3
:1030600070470021018041808180C18001814181C0
:103070008181C181704700210180418001218180CF
:103080000021C18001817047002101804180818041
:10309000C18001814181818170470000002C014085
:1030A000003401400004004000080040000C0040D3
:1030B00021B1028842F00102028004E002884FF64A
:1030C000FE731A400280704731B1B0F8442042F4D8
:1030D0000042A0F8442005E0B0F84420C2F30E02FC
:1030E000A0F8442070471AB183890B43838102E022
:1030F00083898B43838170478182704741EA020351
:10310000A0F8483070471AB183890B43838102E0ED
:1031100083898B438381704701894FF6F872114090
:10312000018170470A46002101894FF68F731940CB
:1031300011430181704730B504460D4629462046AB
:10314000FFF7F0FF208940F00700208130BD2DE916
:10315000F04104460D4616461F46602D06D13B46FB
:10316000012231462046FFF75AFE05E03B46012288
:1031700031462046FFF79DFE29462046FFF7D2FF45
:10318000208940F007002081BDE8F08130B50C4671
:1031900000210189C9B24FF6FF7505EA03251543E1
:1031A00025432943018130BD2DE9F04105460E46F6
:1031B00017469846002443463A4631462846FFF7CC
:1031C000E5FF2C894FF6F870044044F007044FF6F1
:1031D0008F70044044F070042C81BDE8F081F0B59C
:1031E00004460D4616461F463B46324629462046B3
:1031F000FFF7CCFF208940F480402081F0BD01859D
:10320000828270470A46002101884FF68F73194069
:10321000114301807047F0B50C4615461E4600214B
:10322000002200230189028B038C4FF6F877394086
:1032300021434FF6FC473A4040F201173A434FF61C
:10324000DD773B404FF6FF7707EA06172F433B43F6
:10325000018102830384F0BD0A460021018B4FF6F1
:103260008F7319401143018370470A460021018B77
:1032700048F6FF7319404FF6FF7303EA0223194320
:10328000018370470A460021818B4FF68F731940E6
:103290001143818370470A460021818B48F6FF73F2
:1032A00019404FF6FF7303EA0223194381837047E5
:1032B00021B1028842F08002028004E002884FF6C9
:1032C0007F731A400280704721B1828842F0040265
:1032D000828004E082884FF6FB731A408280704738
:1032E00021B1828842F00802828004E082884FF691
:1032F000F7731A408280704721B1828842F0010240
:10330000828004E082884FF6FE731A408280704704
:103310000A460021018B4FF6F773194011430183D0
:1033200070470A460021018B4FF2FF7319404FF698
:10333000FF7303EA02231943018370470A46002101
:10334000818B4FF6F77319401143818370470A460A
:103350000021818B4FF2FF7319404FF6FF7303EA90
:1033600002231943818370470A460021018B4FF6DF
:10337000FB7319401143018370470A460021018BFA
:103380004FF6FF3319404FF6FF7303EA0223194348
:10339000018370470A460021818B4FF6FB73194069
:1033A0001143818370470A460021818B4FF6FF331A
:1033B00019404FF6FF7303EA0223194381837047D4
:1033C0000A460021018B4FF67F7319401143018398
:1033D00070470A460021018BC1F30E014FF6FF73BF
:1033E00003EA02231943018370470A460021818BB7
:1033F0004FF67F7319401143818370470A460021BD
:10340000818BC1F30E014FF6FF7303EA02231943C8
:10341000818370470A460021018C4FF6FD731940E5
:103420001143018470470A460021018C4FF6F7735F
:1034300019401143018470470A460021018C4FF660
:10344000DF7319404FF6FF7303EA02131943018437
:1034500070470A460021018C4FF67F7319404FF6E2
:10346000FF7303EA02131943018470470A460021DF
:10347000018C4FF6FF5319404FF6FF7303EA022306
:103480001943018470470A460021018C4FF2FF73F3
:1034900019404FF6FF7303EA022319430184704772
:1034A0000A460021018C4DF6FF7319404FF6FF7359
:1034B00003EA023319430184704730B50023012425
:1034C0008C40A3B2048C9C430484048C02FA01F562
:1034D000ADB22C43048430BD30B5002304248C40AD
:1034E000A3B2048C9C430484048C02FA01F5ADB2AF
:1034F0002C43048430BD70B50346002000241846D8
:10350000183001258D40ACB21D8CA5431D8409B136
:10351000082909D100EB6100056825F070050560F8
:103520000568154305600EE00D1FC5F34E052844E0
:10353000056825F4E045056005684FF6FF7606EA64
:1035400002263543056070BD21B1028842F00202B7
:10355000028004E002884FF6FD731A400280704733
:1035600021B1028842F00402028004E002884FF692
:10357000FB731A400280704721B1828842F08002BA
:10358000828004E082884FF67F731A408280704701
:1035900002884FF6F7731A40028002880A430280BD
:1035A000704782884FF68F731A40828082880A4360
:1035B0008280704702894FF6F8731A4002810289AF
:1035C0000A430281704702894FF67F731A400281D5
:1035D00002890A4302817047818470478185704760
:1035E000818670470187704781877047A0F8401037
:1035F000704702884FF6FF431A40028002880A4350
:10360000028070470146888E70470146088F7047D8
:103610000146888F70470146B1F840007047014667
:10362000888C70470146088D704702460020138A37
:103630000B400BB1012000E000207047CA4302821A
:10364000704730B50246002000230024158A05EAA1
:103650000103958905EA010413B10CB1012000E0D2
:10366000002030BDCA4302827047000000B587B019
:1036700001210420FEF716FE01218803FEF712FE49
:1036800001210846FEF70EFE4FF40070ADF8180059
:1036900003208DF81A0018208DF81B0006A9DF48BA
:1036A000FEF744FB4FF48060ADF8180004208DF85D
:1036B0001B0006A9D948FEF739FB4FF46140029080
:1036C0000020ADF80C00ADF80E00ADF81000ADF81C
:1036D00014000C20ADF8120002A9D148FEF789FEB3
:1036E0000121CF48FEF711FF012240F22551CC48BD
:1036F000FEF717FF4021CA48FEF7EFFF4FF4C06006
:10370000FFF738F825208DF8040000208DF805001B
:103710008DF8060001208DF8070001A8FFF72FF8AB
:1037200007B000BD00B587B001210420FEF7BAFD47
:1037300001214804FEF7C3FD01210846FEF7B2FD52
:103740000420ADF8180003208DF81A0018208DF819
:103750001B0006A9B148FEF7E9FA0820ADF81800E9
:1037600004208DF81B0006A9AC48FEF7DFFA4FF4E1
:10377000165002900020ADF80C00ADF80E00ADF828
:103780001000ADF814000C20ADF8120002A9A548F5
:10379000FEF72FFE0121A348FEF7B7FE012240F2FB
:1037A0002551A048FEF7BDFE40219E48FEF795FF3B
:1037B0004FF4C060FEF7DEFF26208DF804000020E5
:1037C0008DF805008DF8060001208DF8070001A88E
:1037D000FEF7D5FF07B000BD00B587B00121082076
:1037E000FEF760FD01218804FEF769FD012108460E
:1037F000FEF758FD4FF48060ADF8180003208DF8F7
:103800001A0018208DF81B0006A98748FEF78EFACB
:103810004FF40060ADF8180004208DF81B0006A9D5
:103820008148FEF783FA4FF4E13002900020ADF8B2
:103830000C00ADF80E00ADF81000ADF814000C202F
:10384000ADF8120002A97948FEF7D3FD01217748AF
:10385000FEF75BFE012240F225517448FEF761FE3F
:1038600040217248FEF739FF4FF4E060FEF782FF17
:1038700027208DF8040000208DF805008DF8060043
:1038800001208DF8070001A8FEF779FF07B000BD01
:1038900000B587B001211020FEF704FD0121C80406
:1038A000FEF70DFD01210846FEF7FCFC4FF4806099
:1038B000ADF8180003208DF81A0018208DF81B00B1
:1038C00006A95B48FEF732FA4FF40060ADF8180025
:1038D00004208DF81B0006A95548FEF727FA4FF47F
:1038E000165002900020ADF80C00ADF80E00ADF8B7
:1038F0001000ADF814000C20ADF8120002A94D48DC
:10390000FEF777FD01214B48FEF7FFFD012240F253
:1039100025514848FEF705FE40214648FEF7DDFEEA
:103920004FF4C060FEF726FF34208DF8040000201D
:103930008DF805008DF8060001208DF8070001A81C
:10394000FEF71DFF07B000BD00B587B001211020B4
:10395000FEF7A8FC01212020FEF7A4FC01210805A8
:10396000FEF7ADFC01210846FEF79CFC4FF48050A9
:10397000ADF8180003208DF81A0018208DF81B00F0
:1039800006A92B48FEF7D2F90420ADF818008DF8EF
:103990001B0006A92848FEF7C9F94FF416500290FB
:1039A0000020ADF80C00ADF80E00ADF81000ADF839
:1039B00014000C20ADF8120002A92048FEF719FDF2
:1039C00001211E48FEF7A1FD012240F225511B48AE
:1039D000FEF7A7FD40211948FEF77FFE4FF4C060B7
:1039E000FEF7C8FE35208DF8040000208DF8050094
:1039F0008DF8060001208DF8070001A8FEF7BFFE34
:103A000007B000BD10B5FFF731FEFFF78BFEFFF7E3
:103A1000E3FEFFF73DFFFFF797FF10BD00080140F1
:103A20000038014000440040000C014000480040C4
:103A300000100140004C00400014014000500040C4
:103A40001FB501210220FEF73AFC01211748FFF7BC
:103A500009FE2720ADF8080048F69F40ADF80400A5
:103A60000020ADF80A00ADF8060001A90F48FEF7E6
:103A7000C3FF01210D48FFF71BFB012211460B4834
:103A8000FFF731FB4FF4C060FEF774FE1D208DF888
:103A9000000000208DF8010001208DF802008DF853
:103AA00003006846FEF76BFE1FBD000000040040E7
:103AB000032A40F2308010F0030C00F0158011F85A
:103AC000013BBCF1020F624498BF11F801CB00F832
:103AD000013B38BF11F8013BA2F1040298BF00F886
:103AE00001CB38BF00F8013B11F0030300F0288040
:103AF000083AC0F0088051F8043B083A51F804CB6A
:103B0000A0E80810F5E7121D5CBF51F8043B40F82F
:103B1000043BAFF30080D20724BF11F8013B11F83A
:103B200001CB48BF11F8012B24BF00F8013B00F87E
:103B300001CB48BF00F8012B7047704770477047B2
:103B400010B5203AC0F00B80B1E81850203AA0E838
:103B50001850B1E81850A0E81850BFF4F5AF5FEA6C
:103B6000027C24BFB1E81850A0E8185044BF18C91F
:103B700018C0BDE810405FEA827C24BF51F8043BC6
:103B800040F8043B08BF7047D20728BF31F8023B1A
:103B900048BF11F8012B28BF20F8023B48BF00F8AE
:103BA000012B7047754600F029F8AE4605006946BE
:103BB000534620F00700854618B020B5FEF744F8BC
:103BC000BDE820404FF000064FF000074FF000081E
:103BD0004FF0000B21F00701AC46ACE8C009ACE89F
:103BE000C009ACE8C009ACE8C0098D46704704467E
:103BF000AFF300802046FCF7E2FA0000004870476F
:103C0000B802002001491820ABBEFEE726000200E2
:103C100070470000343C000800000020A4000000B1
:103C20006C010008D83C0008A400002074080000C3
:103C3000880100080000000000000000534D4130E2
:103C40003030314156312E3052303231323334350A
:103C50003637383930313233343536373839300148
:103C60000000000000000000000000000000000054
:103C70000000000000000000000000000000000044
:103C80000000000000000000000000000000000034
:103C90000100000000000000000001000000000022
:103CA0000000000000000000000000000000000014
:103CB00000A24A040000000000000000010203040A
:103CC00006070809000000000102030401020304C2
:083CD0000607080902040608BA
:0400000508000131BD
:00000001FF
