:020000040800F2
:1000000018190020691C0008F51F0008F71F0008D8
:1000100093260008972600089B2600080000000091
:100020000000000000000000000000009F26000803
:10003000A126000800000000A3260008A52600084D
:10004000831C0008831C0008831C0008831C000814
:10005000831C0008831C0008831C0008831C000804
:10006000831C0008831C0008831C0008831C0008F4
:10007000831C0008831C0008831C0008831C0008E4
:10008000831C0008831C0008831C0008831C0008D4
:10009000831C0008831C0008831C0008831C0008C4
:1000A000831C0008831C0008831C0008831C0008B4
:1000B000831C00081D250008831C0008831C000801
:1000C000831C0008831C0008831C0008831C000894
:1000D000831C0008FB1F0008152400085724000893
:1000E000831C0008831C0008831C0008831C000874
:1000F000831C0008831C0008831C0008831C000864
:10010000831C0008831C0008831C0008831C000853
:1001100099240008DB240008831C0008831C0008C5
:10012000831C0008831C0008831C0008831C000833
:1001300000F002F800F03AF80AA090E8000C8244BF
:100140008344AAF10107DA4501D100F02FF8AFF29C
:10015000090EBAE80F0013F0010F18BFFB1A43F0A5
:10016000010318472854000048540000103A24BFE7
:1001700078C878C1FAD8520724BF30C830C144BF0C
:1001800004680C607047000000230024002500264E
:10019000103A28BF78C1FBD8520728BF30C148BFEA
:1001A0000B6070471FB51FBD10B510BD05F0B7F946
:1001B0001146FFF7F7FF01F020FC05F0D5F903B475
:1001C000FFF7F2FF03BC05F0D9F9000000BF010002
:1001D000A0F10100FBD1704710B5044604F0800087
:1001E000802805D10022C101F84802F09CFB04E000
:1001F00001229103F54802F096FB04F040004028EC
:1002000005D100224102F14802F08DFB04E00122F9
:10021000D103EE4802F087FB04F02000202805D12E
:1002200000220121E94802F07EFB04E00122114690
:10023000E64802F078FB04F01000102805D10022F7
:100240000421E24802F06FFB04E001220421DF48B0
:1002500002F069FB04F00800082805D100220821FB
:10026000DA4802F060FB04E001220821D74802F0DE
:100270005AFB04F00400042805D100220221D448CE
:1002800002F051FB04E001220221D14802F04BFBB5
:1002900004F00200022805D100220121CC4802F01E
:1002A00042FB04E001221146C94802F03CFB10BDAC
:1002B00010B5044604F01000102805D100220221D8
:1002C000C24802F030FB04E001220221BF4802F0E4
:1002D0002AFB04F00F00102849D2DFE800F02C08B8
:1002E0000C1014181C2024283034383C40440C20B6
:1002F000FFF772FF3FE0DA20FFF76EFF3BE0F220EE
:10030000FFF76AFF37E06620FFF766FF33E0B620AD
:10031000FFF762FF2FE0BE20FFF75EFF2BE0E0203B
:10032000FFF75AFF27E0FE20FFF756FF23E0E62005
:10033000FFF752FF1FE0FC20FFF74EFF1BE03A20C3
:10034000FFF74AFF17E03E20FFF746FF13E01A20B1
:10035000FFF742FF0FE07A20FFF73EFF0BE09E2001
:10036000FFF73AFF07E08E20FFF736FF03E000209B
:10037000FFF732FF00BF00BF10BD08B54FF480701B
:10038000ADF8000004208DF8030000208DF8020075
:1003900069468F4802F016FA41F60300ADF80000F6
:1003A00010208DF8030003208DF80200694688486C
:1003B00002F008FA6020ADF8000004208DF8030078
:1003C00000208DF802006946824802F0FBF940F2F5
:1003D0008130ADF8000010208DF8030003208DF867
:1003E000020069467B4802F0EDF94FF47070ADF8F9
:1003F000000004208DF8030000208DF802006946FB
:10040000724802F0DFF94EF23F00ADF80000102014
:100410008DF8030003208DF8020069466B4802F056
:10042000D1F94FF6F060ADF8000004208DF803001C
:1004300000208DF802006946674802F0C3F940F2D7
:100440000310ADF8000010208DF8030003208DF894
:1004500002006946604802F0B5F94CF20C00ADF8B4
:10046000000004208DF8030000208DF8020069468A
:100470005A4802F0A7F943F6F370ADF800001020D7
:100480008DF8030003208DF802006946534802F0FE
:1004900099F90320524908800120524908804CF202
:1004A0003F005149088040F2031050490880002065
:1004B0004F4908804A480188454802F039FA4948BE
:1004C0000188444802F034FA474801883F4802F066
:1004D0002FFA46480188404802F02AFA4448018829
:1004E0003E4802F025FA08BD10B502F0B9FA4FF403
:1004F000803002F0D5FA00BF312002F0F4FA002873
:10050000FAD002203B490860002002F04EFB002098
:1005100002F05DFB4FF4806002F050FB4FF4E011FD
:100520004FF4803002F024FB012002F02DFB00BFCD
:10053000392002F0D8FA0028FAD0022002F027FB76
:1005400000BF02F02DFB0828FBD101217D2002F025
:10055000F5FB0121880302F0FEFB00214FF0006053
:1005600002F08BFE4FF4407002F050FE042002F0C7
:100570009CFEFFF702FF10BD10B50246002002E00E
:1005800013785840521C0B00A1F10104E1B2F7D1DD
:1005900010BD10B501220221104802F0C4F910BDAF
:1005A00010B5002202210D4802F0BDF910BD10B5B2
:1005B00001221146094802F0B6F910BD10B500221B
:1005C0000121064802F0AFF910BD00000010014003
:1005D00000080140000C01400014014000180140D7
:1005E0005E00002060000020620000206400002007
:1005F000660000200020024010B501225102FE4892
:1006000002F091F910BD10B500224FF40071FA48C4
:1006100002F089F910BD10B501221102F64802F06E
:1006200082F910BD10B500224FF48071F24802F03B
:100630007AF910BD10B501228021EF4802F073F95C
:1006400010BD10B500228021EB4802F06CF910BDFE
:1006500010B5EA480078012801D101F0B4FC142259
:10066000E749E84804F0E1FE4FF48071E64802F003
:100670003CF9E34908704FF40071E44802F035F9A1
:10068000DF4948704FF48071E04802F02EF9DC49F0
:1006900088708021DD4802F028F9D949C8704021CE
:1006A000DA4802F022F9D64908714FF40041D848DF
:1006B00002F01BF9D24948714FF48041D44802F04E
:1006C00014F9CF4988714FF40051D14802F00DF967
:1006D000CB49C8714FF48051CD4802F006F9C849A2
:1006E00008721021CA4802F000F9C5490873202198
:1006F000C74802F0FAF8C24948734021C44802F0E2
:10070000F4F8BF4988734FF48041C24802F0EDF815
:10071000BB4988744FF40041BE4802F0E6F8B8497E
:10072000C874BD48007801280ED10846007858B931
:100730000846407940B10120B849087040F6B83009
:10074000B7490860FFF725FFAE48007828B9AC48E4
:10075000007810B1C820B3490860A948407980B931
:10076000B148007868B9FFF71BFF0020AB4908705B
:100770000120AE49087001220103A64802F0D3F817
:1007800008E00020A949087000224FF48051A148D8
:1007900002F0C9F89B48C07838B99948C07820B1B0
:1007A0000020A2490870FFF709FF9648007938B980
:1007B0009348007920B100209C490870FFF723FF7F
:1007C0008F48807938B90120994908700122C10207
:1007D000904802F0A8F88A48C07938B902209449B4
:1007E0000870002281028B4802F09DF88548807CC9
:1007F00001280ED18248807C01280AD08D480078DB
:10080000401C8C49087008460078052801DD00204E
:1008100008707C48C07C012808D17948C07C012838
:1008200004D00020834908708349088010BD10B5AA
:100830000446FFF7BCFE8048048005E0FFF708FF90
:100840007A48007800B903E07B4800880028F5D199
:1008500000BF7948008808B9FFF7B0FE10BD10B599
:100860000446FFF7C9FE7448048005E0FFF7F0FE78
:100870006E48007800B903E06F4800880028F5D181
:1008800000BF6D48008808B9FFF7BDFE10BD10B568
:100890000446FFF78CFE6848048001E0FFF7D8FEAD
:1008A000654800880028F9D16348008808B9FFF737
:1008B00085FE6148048001E0FFF7CAFE5E480088BB
:1008C0000028F9D110BD10B50446FFF795FE5A482F
:1008D000048001E0FFF7BCFE574800880028F9D1EA
:1008E0005548008808B9FFF78EFE5348048001E0A0
:1008F000FFF7AEFE504800880028F9D110BD10B5B2
:100900000446FFF746FE4C48048006E0FFF7A0FED1
:1009100046480078012800D103E0474800880028B5
:10092000F4D100BF10BD10B500221021394801F0EC
:10093000FAFF00222021374801F0F5FF10BD10B565
:1009400000221021334801F0EEFF0122202131481E
:1009500001F0E9FF32203849088008E0FFF778FE0F
:100960002748807918B92648C07900B103E0324899
:1009700000880028F2D100BFFFF7D5FF10BD10B5E9
:1009800001221021234801F0CEFF0022202121481E
:1009900001F0C9FF32202849088008E0FFF758FE1F
:1009A0001748807918B11648C07900B903E0224889
:1009B00000880028F2D100BFFFF7B5FF10BD01226B
:1009C0008A400243D0B2704701228A409043704768
:1009D00010B504461021194802F050FB00BF8021D9
:1009E000164802F0B9FB0028F9D02146134802F05E
:1009F00045FB00BF802123E0000C014023000020C4
:100A0000540100206801002000080140001001404E
:100A10000014014000180140490000202800002077
:100A2000340000203800002026000020290000208B
:100A30004B000020510000202A0000200038014017
:100A4000F84802F089FB0028D4D010BD2DE9F04110
:100A500005462C462778641C39462046FFF78CFD56
:100A600080461021EF4802F009FB00BF8021ED48CD
:100A700002F072FB0028F9D00221EA4802F0FEFAE7
:100A800000BF8021E74802F067FB0028F9D000266C
:100A90001BE0207810280AD11021E24802F0EEFA7B
:100AA00000BF8021DF4802F057FB0028F9D02178F1
:100AB000DC4802F0E3FA00BF8021DA4802F04CFB88
:100AC0000028F9D0641C701CC6B2BE42E1DB1021C4
:100AD000D44802F0D3FA00BF8021D24802F03CFB98
:100AE0000028F9D00221CF4802F0C8FA00BF8021C7
:100AF000CC4802F031FB0028F9D04146C94802F049
:100B0000BDFA00BF8021C74802F026FB0028F9D0BB
:100B1000BDE8F081C449097B21B9017941F00101A7
:100B2000017103E0017901F0FE010171BE49497BC9
:100B300021B9017941F00201017103E0017901F06D
:100B4000FD010171B849897B21B9017941F00401A6
:100B5000017103E0017901F0FB010171B3490978EA
:100B6000012904D1817941F00102827103E0817988
:100B700001F0FE028271AE490978012904D10179A0
:100B800041F00801017103E0017901F0F701017101
:100B9000A8490978022907D1017941F020010171A2
:100BA000017901F0EF010171A2490978012907D10A
:100BB000017941F010010171017901F0DF0101714A
:100BC0009949497819B9017901F0BF010171964934
:100BD000897819B9017941F040010171704710B568
:100BE00004460120944908700020FFF761FB0020B3
:100BF000FFF7F2FA00216171FFF7A1FE00224FF426
:100C000080718E4801F08FFE322003F095FAFFF7D5
:100C10001FFD01221102894801F085FE322003F0F8
:100C20008BFAFFF715FD80480078012808D1844829
:100C3000007828B960790021FFF7C6FE607109E0ED
:100C400060790021FFF7BBFE60716320E070112026
:100C5000FFF72EFB74488078012808D17848807807
:100C600028B960790221FFF7AFFE607109E0607971
:100C70000221FFF7A4FE60716320E0701320FFF7EC
:100C800017FB6948C078012808D16D48C07828B999
:100C900060790321FFF798FE607109E06079032114
:100CA000FFF78DFE60716320E0701420FFF700FBFA
:100CB0005D480079012808D16148007928B9607938
:100CC0000421FFF781FE607109E060790421FFF7DC
:100CD00076FE60716320E0701520FFF7E9FA524854
:100CE0004079012808D15648407928B96079052112
:100CF000FFF76AFE607109E060790521FFF75FFE8A
:100D000060716320E0701620FFF7D2FA4648C07980
:100D1000012808D14A48C07928B960790721FFF72E
:100D200053FE607109E060790721FFF748FE6071AA
:100D30006320E0701820FFF7BBFAC8204149086023
:100D400041490860FFF725FCFFF719FE00224FF428
:100D500080713A4801F0E7FD322003F0EDF9FFF72A
:100D600077FC01221102354801F0DDFDC82003F0B7
:100D7000E3F9FFF76DFC2C484078012808D1304892
:100D8000407828B960790121FFF71EFE607109E003
:100D900060790121FFF713FE60716320E07012207B
:100DA000FFF786FA20488079012808D12448807905
:100DB00028B960790621FFF707FE607109E06079C4
:100DC0000621FFF7FCFD60716320E0701720FFF73C
:100DD0006FFAFFF7E5FBFFF7B2FD0020144908703A
:100DE0001549087010BD10B50446FFF731FC2046C8
:100DF000FFF790FE10BD10B50446062C40D2DFE888
:100E000004F00307252C33390020FFF7E5F938E01B
:100E10000120FFF74DFA3220FFF771FDFFF7C0FB0D
:100E20002FE000000038014054010020280000207D
:100E3000290000204B000020260000200014014063
:100E40006801002034000020380000200220FFF755
:100E50002FFA3220FFF71BFD13E00320FFF728FADB
:100E60003220FFF730FD0CE00420FFF721FAFFF7F6
:100E700066FD06E00520FFF71BFAFFF780FD00E0A6
:100E800000BF00BF10BD70B505460C46F94805808F
:100E900006E0FFF7DDFBF8480078A04200D103E050
:100EA000F44800880028F4D100BF70BD10B5044696
:100EB0000020F24908700122D102F14801F033FD0F
:100EC000FFF7C6FBFFF773FBFFF763FBED48FFF788
:100ED0007DF9FFF773FBFFF763FBFFF78DFBFFF770
:100EE000B7FBE9480078022801D1FFF728FDFFF79A
:100EF000AFFBE5480078012801D1FFF740FDE1484C
:100F0000FFF764F9FFF77FFBFFF7A2FBDE480078ED
:100F1000022801D1FFF713FD2046FFF764FF2046AA
:100F2000FFF75DFE0020D9490870D3490870FFF72C
:100F3000FAFC00224FF40061D14801F0F4FC10BD2E
:100F4000F0B58BB007460D461646FE24D0A103C966
:100F5000CDE9010103A9522004F078F80446BCB1A0
:100F60001920CD4908800EE0FFF772FB04F0ABF8C2
:100F700004F0A3F804F094F803A9522004F066F8F2
:100F8000044604B903E0C44800880028ECD100BF3F
:100F90001920C149088000BFFFF75AFB03A804F0DD
:100FA0001DF8044604B903E0BB4800880028F3D1CB
:100FB00000BF1920B849088000BF03A803F0D5FF7F
:100FC000044604B903E0B44800880028F5D100BF06
:100FD0001920B149088000BFFFF73AFB03AB01AA13
:100FE0002946602003F08AFF044604B903E0AA48BA
:100FF00000880028F0D100BF3220A749088000BF38
:10100000FFF726FB3146284603F0FEFE044604B9EE
:1010100003E0A14800880028F2D100BF20460BB0B1
:10102000F0BD10B50446062C7ED2DFE804F0876BD5
:10103000511D370300221021984801F074FC012251
:101040002021964801F06FFC01221146944801F0DE
:101050006AFC01220221934801F065FC012211463D
:10106000904801F060FC6AE0012210218B4801F0F9
:101070005AFC00222021894801F055FC012211462A
:10108000874801F050FC01220221864801F04BFC08
:1010900001221146834801F046FC50E00122102154
:1010A0007E4801F040FC012220217C4801F03BFCFD
:1010B000002201217A4801F036FC01220221794800
:1010C00001F031FC01221146764801F02CFC36E09B
:1010D00001221021714801F026FC012220216F48D5
:1010E00001F021FC012211466D4801F01CFC002298
:1010F00002216C4801F017FC01221146694801F0F9
:1011000012FC1CE001221021644801F00CFC0122B9
:101110002021624801F007FC01221146604801F0DD
:1011200002FC0122022100E008E05E4801F0FBFB26
:10113000002201215B4801F0F6FB00E000BF00BF88
:1011400010BDF0B58BB005460E461746FE2450A1E3
:1011500003C9CDE90101A91EC8B2FFF762FF03A9C7
:10116000522003F073FF0446BCB119204A4908809D
:101170000EE0FFF76DFA03F0A6FF03F09EFF03F009
:101180008FFF03A9522003F061FF044604B903E076
:10119000414800880028ECD100BF19203E49088052
:1011A00000BFFFF755FA03A803F018FF044604B97F
:1011B00003E0394800880028F3D100BF19203649E0
:1011C000088000BFFFF744FA03A803F0CEFE0446F0
:1011D00004B903E0304800880028F3D100BF19208B
:1011E0002D49088000BFFFF733FA03AB01AA31464F
:1011F000602003F083FE044604B903E0264800881B
:101200000028F0D100BF32202349088000BFFFF73B
:101210001FFA3946304603F021FE044604B903E0C4
:101220001D4800880028F2D100BF20460BB0F0BD59
:1012300070B505460E46FE24A91EC8B2FFF7F1FEA2
:101240003146522003F002FF044694B1192012499E
:10125000088029E0FFF7FCF903F035FF03F02DFFCC
:1012600003F01EFF3146522003F0F0FE0446DCB9C5
:101270001EE01EE02A00002029000020500000206F
:101280000018014040420F004B00002028000020C1
:10129000FFFFFFFFFFFF000054000020001001408F
:1012A000000C014000140140FB4800880028D1D107
:1012B00000BF1920F849088000BFFFF7C9F9304680
:1012C00003F08CFE044604B903E0F34800880028CC
:1012D000F3D100BF1920F049088000BFFFF7B8F92B
:1012E000304603F042FE044604B903E0EA480088B1
:1012F0000028F3D100BF204670BD70B504460D46EE
:101300004FF4FA70E549088059E0FFF7A1F9012C84
:101310000BD1E3480078022801D1FFF710FBE14828
:10132000008810B10020DF490880022C0BD1DC4876
:101330000078012801D1FFF722FBDA48008810B1BC
:101340000020D8490880D8480078012831D1012CE4
:101350000CD19620FFF783FAD248008808B1681EA6
:10136000C5B24FF4FA70CD4908801CE0022C0CD1B4
:101370009620FFF774FACB48008808B1681EC5B202
:101380004FF4FA70C54908800DE0032C0BD196206C
:10139000FFF74DFAC348008808B1681EC5B24FF484
:1013A000FA70BE490880BF48008810B90020BE49C5
:1013B000087005B904E0B948008800B900E0A4E766
:1013C00000BF70BD70B500240026B8480078012821
:1013D00073D1B7490870B748007888286ED011DCFF
:1013E00084286CD007DCF0B1812820D082284FD02F
:1013F000832875D164E0852873D0862872D0872829
:10140000F7D173E18D286ED006DC8A286CD08B284A
:101410006BD08C28EDD110E28E2867D0F02873D0E5
:10142000FE28E6D1B2E2A448FFF710FBC7E2A148CC
:101430000078A14948700020C8700846FFF736FDC3
:101440009D48C07839280AD09B48C0783A2806D0F1
:101450009948C07818B16520974988700EE0964881
:10146000C078392803D09448C0783A2803D177202F
:101470009149887002E073208F49887006208E4958
:1014800008700846FFF7E2FA01208C49087096E2DE
:1014900088480078884948700846FFF7A4FC732004
:1014A000854988700020C870062008700846FFF73C
:1014B000CDFA01208149087081E28DE22EE124E01D
:1014C0007C4800787C4948700020C87001207C4925
:1014D00008707948C07850B165207749887009E074
:1014E0006CE22EE04FE0DBE140E173E104E27320C7
:1014F000714988700320704908700846FFF7A6FA02
:1015000001206E4908705AE21AE26A4800786A4976
:1015100048700020C8706A4908706748C07818B1E0
:1015200065206549887002E0732063498870032054
:10153000614908700846FFF789FA01205F49087081
:101540003DE25C4800785C4948700020C87001208A
:101550005B4908705848C07818B1652056498870B2
:1015600002E07320544988700320534908700846EC
:10157000FFF76CFA4F4A91785078FFF7BEFE0120D2
:101580004E4908701BE24B4800784B494870FFF702
:101590005FF848484078012819D14148007802286E
:1015A00001D1FFF7CCF93F48008828B1002042491B
:1015B000C8703C4908800AE039480078012803D106
:1015C00000203D49C87002E043203B49C8703948BB
:1015D0004078022819D132480078012801D1FFF75C
:1015E000CEF93048008828B100203349C8702D4911
:1015F00008800AE02A480078022803D100202E49FA
:10160000C87002E044202C49C8702748007801289F
:1016100035D12848407801280BD19620FFF71FF9D3
:101620002048008820B327480068401C25490860EE
:101630001EE02048407802280BD19620FFF70FF9D2
:1016400018480088A0B11F484068401C1D494860E8
:101650000EE01848407803280AD19620FFF7E7F8F3
:101660001048008820B117488068401C15498860E0
:101670000C48008830B900200B49087002E00120B6
:101680000D49C8700C48FFF7AEFB0B48C078D8B9BD
:1016900073200949887022E0540000202C000020AB
:1016A0004B0000202A0000202900002053000020C9
:1016B0005200002018010020A20000204C00002051
:1016C000490000200C010020E048C078012803D127
:1016D0007720DE49887002E06520DC4988700620AA
:1016E000DA4908700846FFF7B1F968E1D848007890
:1016F000D64948700846FFF776FB7320D3498870B7
:101700000020C870032008700846FFF79FF90020EA
:10171000D04908700120D049087050E1CB4D2D1DF3
:10172000CB480078291F4870732088700020C8704B
:10173000002405E0C948005D28706D1C601CC4B21F
:10174000082CF7D3002405E0C548005D28706D1C07
:10175000601CC4B2072CF7D31220BC49087008469D
:10176000FFF774F90120BC49087028E1B8480078F7
:10177000B6494870B6484078032803D0B44840784A
:10178000042818D1B24A91785078B04A121DFFF758
:10179000D7FBAE49C8700846C07828B97320887056
:1017A0000120AD4908700EE06520A849887002202C
:1017B000A949087007E06520A44988703120C870E5
:1017C0000120A54908701320A04908700846FFF7BA
:1017D0003DF9F4E09E4800789C4948709C48407868
:1017E000032803D09A484078042817D1984A917862
:1017F0005078D21CFFF7A5FC9449C8700846C07801
:1018000028B9732088700120934908700EE0652084
:101810008E49887002209049087007E065208B4946
:1018200088703120C87001208B49087003208749D7
:1018300008700846FFF70AF9C1E085480078834937
:10184000487083484078032803D0814840780428B2
:1018500017D17F4948787D49091DFFF7E9FC7B498D
:10186000C8700846C07828B97320887001207A496A
:1018700008700EE06520754988700220764908706E
:1018800007E06520714988703120C87001207249D5
:10189000087007206D4908700846FFF7D7F88EE0FA
:1018A0006B480078694948700020C87068484078E3
:1018B000012812D16B49087065488078012805D14C
:1018C0000122C102684801F02EF809E000224FF41D
:1018D0000061654801F027F802E0002061490870C6
:1018E00073205A498870032008700846FFF7AEF845
:1018F00001205949087062E0554800785349487002
:101900000020C8705248407806280ADA50494878C2
:10191000FFF771FA0020FEF75FFC73204B498870D7
:1019200004E031204949C870652088700320474988
:1019300008700846FFF78AF80120474908703EE022
:101940004348007841494870732088700020C8706F
:101950000D1D00240EE0002608E0444850F8240045
:10196000F100C84028706D1C701CC6B2042EF4DB58
:10197000601CC4B2032CEEDB0F203449087008460B
:10198000FFF764F801203449087018E03048007807
:101990002E4948700846FFF726FA2C48FFF71FF932
:1019A00073202A4988700020C870062008700846F5
:1019B000FFF74CF801202849087000E000BF00BF85
:1019C000002404E0002022490855601CC4B23C2CCD
:1019D000F8DB00202649087070BD10B503F080F8D0
:1019E00003F071FB03F069FB0A2002F0A5FB03F092
:1019F00057FB0A2002F0A0FB10BD01201649087019
:101A00001449087000201B4908701B4908701549CB
:101A10000870012019490870FEF766FD03F0F4FC18
:101A200002F088FD02F070FD1548FFF73FFAFFF75E
:101A3000D4FF02F0D0FE07E0FEF70AFEFFF7C2FC7B
:101A400010480078FFF7D7F9F6E70000A200002061
:101A500018010020230000204C000020000000207E
:101A6000080000205C000020001801400C0100204C
:101A70005300002029000020490000204A000020D7
:101A8000D7000020510000200CB5002001900090EC
:101A90006C48006840F480306A49086000BF6948BB
:101AA000006800F4003000900198401C01900098FC
:101AB00018B90198B0F5A06FF1D16248006800F440
:101AC000003010B10120009001E00020009000984B
:101AD000012843D15C48006840F010005A49086072
:101AE0000846006820F0030008600846006840F0DF
:101AF0000200086053484068524948600846406800
:101B000048600846406840F4806048600846406885
:101B100020F47C1048600846406840F4E8104860B3
:101B20000846006840F08070086000BF45480068C3
:101B300000F000700028F9D04248406820F003000F
:101B4000404948600846406840F00200486000BFD5
:101B50003C48406800F00C000828F9D10CBD10B5D5
:101B6000FFF792FF10BD10B53648006840F0010045
:101B700034490860084640683449084031494860A3
:101B800008460068324908402E4908600846006847
:101B900020F4802008600846406820F4FE00486079
:101BA0004FF41F008860FFF7DAFF4FF0006029490B
:101BB000086010BD10B5002100200022214B5B6899
:101BC00003F00C0121B1042906D0082928D107E02F
:101BD000214B224C236027E01F4B204C236023E045
:101BE000184B5B6803F47010164B5B6803F480328B
:101BF000022303EB904022B9194B4343174C236057
:101C00000DE0104B5B6803F4003323B1144B4343E6
:101C1000124C236003E0104B4343104C236003E05D
:101C20000D4B0E4C236000BF00BF064B5B68C3F337
:101C300003130C4CE15C094B1B68CB40074C236041
:101C400010BD000000100240002002400000FFF81C
:101C5000FFFFF6FE08ED00E000127A0068000020A9
:101C600000093D006C0000200948804709480047F2
:101C7000FEE7FEE7FEE7FEE7FEE7FEE7FEE7FEE73C
:101C8000FEE7FEE704480549054A064B7047000099
:101C9000671B0008310100081813002018190020E4
:101CA000181500201815002010B50446BE488442BF
:101CB00008D10121801401F05BF80021A01401F08B
:101CC00057F816E0B948844208D10121001401F008
:101CD0005CF80021201401F058F80AE0B44884426E
:101CE00007D10121C01301F050F80021E01301F0E9
:101CF0004CF810BD10B50022028802F441520B8846
:101D00004C8823438C882343CC8823430C8923436A
:101D10004C8923438C892343CC8923431A43028073
:101D2000838B4FF2FF74234083830B8A038210BDA1
:101D30002DE9F04F85B005460C464FF0000902270B
:101D40004FF000084FF0010B0026B246A88B4FF26F
:101D500040010840A88302202884B5F81C90A068A0
:101D6000022801D100BF38E0A08810B94FF0010B64
:101D700001E04FF0020B8D48854200D100E000BF2A
:101D8000684600F06EFFDDF800A0E088B0F5007F47
:101D90000AD14FEA1A2000EB80004000A168B0FB96
:101DA000F1F0401D86B20BE04FEA4B10BAFBF0F0A9
:101DB00000EB80004000A168B0FBF1F0401D86B24E
:101DC0000A20B6FBF0F606F00108A6EB0800C0F307
:101DD0004F074FF6FF7000EA0828022F01DBFF2FA4
:101DE00002DD02274FF00008E08840EA080038438F
:101DF0002884A088A1890843618808432188084372
:101E000040F4006040EA0909A5F81C9005B0BDE85F
:101E1000F08F0021018041808180C180018141815A
:101E20008181C181072101827047002101804180A9
:101E30008180C1800221816000218181704721B1B0
:101E4000028842F04002028004E002884FF6BF732D
:101E50001A400280704721B1828B42F480628283F3
:101E600004E0828B4FF6FF331A408283704730B50F
:101E7000002400230C110125A540ABB21AB18588BE
:101E80001D43858002E085889D43858030BD1AB161
:101E900083880B43838002E083888B438380704771
:101EA000818170470146888970474FF6FF629142F1
:101EB00004D0028842F48072028004E002884FF667
:101EC000FF631A400280704721B1828842F0040209
:101ED000828004E082884FF6FB731A40828070474C
:101EE00002884FF2FF731A40028002880A43028080
:101EF0007047018841F480510180704721B1028808
:101F000042F40052028004E002884DF6FF731A404A
:101F10000280704702460020012901D0108B00E0AA
:101F2000908A70470146088A7047B1F5804F04D106
:101F3000028842F48042028004E002884BF6FF737C
:101F40001A40028070470246002013890B400BB1F3
:101F5000012000E000207047CA4302817047F0B5BD
:101F60000246002000240023002501F00F0701266F
:101F7000BE40B4B20B1101269E40B3B2968806EA69
:101F800003051689264016B10DB1012000E000209E
:101F9000F0BD10B5002201F00F040123A3409AB256
:101FA000D343038110BD00000030014000380040E1
:101FB000003C00400E49086070470D49486070477A
:101FC0000B49886070474AF6AA20094908607047A3
:101FD0004CF6CC4006490860704701460020044A90
:101FE000D2680A400AB1012000E0002070470000DA
:101FF00000300040704700BFFEE72DE9F04140216E
:10200000FC4801F0B6F840F22551FA4801F0BAF860
:1020100000286ED0F74801F035F8F749F74A1278F2
:102020008854F7480078012804D0022875D0032886
:1020300074D13AE1F0480078102871D1EE48407828
:10204000042814D1002404E00020EB490855601C4A
:1020500084B2EA4800788442F6DDFF20E749087040
:102060000420FEF7B5FC0120E549087066E0E2486F
:102070004078022811D1002404E00020DE490855F0
:10208000601C84B2DD4800788442F6DDFF20DB4925
:1020900008700220DA49087050E0D74840780528D7
:1020A00011D1002404E00020D3490855601C84B2FB
:1020B000D24800788442F6DDFF20D0490870012024
:1020C000D04908703AE0CC484078102812D1012459
:1020D00004E00020C8490855601C84B2C748007855
:1020E0008442F6DD0020C54908700120C44908700B
:1020F00024E07CE1C148007801281FDD002404E0D1
:102100000020BD490855601C84B2BC480078844258
:10211000F6DDFF20B949087010E010E060E1FFE74C
:10212000002404E00020B4490855601C84B2B34880
:1021300000788442F6DDFF20B049087050E141F29A
:102140008830B1490880AC480078102815D1AA48D9
:102150004078022811D1002404E00020A649085547
:10216000601C84B2A54800788442F6DDFF20A349B4
:1021700008700220A249087096E09F480078102855
:1021800018D19D484078042814D1002404E0002090
:1021900099490855601C84B2984800788442F6DD5D
:1021A000FF20964908700420FEF712FC0120944994
:1021B000087079E091480078801E8F49085C1028EB
:1021C00059D18E480078401E085C032853D18B48B3
:1021D0000078801E84B2002609E08748005D102840
:1021E00002D1701CC6B200E003E0601E84B2002C75
:1021F000F3DC00BF06F00100002855D000240025C4
:102200000DE07D48405D102801D1681CC5B27A48B8
:10221000405D7E490855601C84B2681CC5B2774891
:102220000078801EA842ECDCE1B27848FEF7A4F901
:102230000746714871490978405CB84206D01520BC
:10224000FEF7C6FB01206E49087005E00620FEF788
:10225000BFFB03206A490870002404E0002066499F
:102260000855601C84B2654800788442F6DDFF2082
:102270006249087018E061480078462814DD5F481C
:102280000078642810DA002404E000205A49085538
:10229000601C84B2594800788442F6DDFF2057491B
:1022A00008700120564908709AE0534800781028B9
:1022B0007ED15148407805281DD101205149087030
:1022C0004F490870002404E000204B490855601C69
:1022D00084B24A4800788442F6DD002405E04B4889
:1022E000005D4B490855601C84B23C2CF7DBFF2095
:1022F0004249087073E040484078022811D1002418
:1023000004E000203C490855601C84B23B4800783A
:102310008442F6DDFF2039490870022038490870F0
:102320005DE035484078042814D1002404E0002002
:1023300031490855601C84B2304800788442F6DD8B
:10234000FF202E4908700420FEF742FB01202C4993
:10235000087044E028484078102811D1012404E096
:10236000002025490855601C84B224480078844226
:10237000F6DD0020214908700320214908702EE075
:102380001E48007801282ADD002404E000201A49B4
:102390000855601C84B2194800788442F6DDFF209D
:1023A000164908701520FEF713FB0120144900E0C0
:1023B00001E0087013E0002404E000200E490855F5
:1023C000601C84B20D4800788442F6DDFF200B4982
:1023D00008701520FEF7FCFA01200949087000BFBB
:1023E00000BF06480078401C0449087000BFBDE8E3
:1023F000F0810000003801407C0100207C000020BA
:102400005200002053000020300000207C020020F9
:102410001801002010B54021A34800F0AAFE40F2A8
:102420002551A14800F0AEFEA0B19F4800F02AFE61
:102430009E49087008460078401C087008460178DC
:10244000994800F01BFE00BF8021974800F084FEF1
:102450000028F9D010BD10B54021934800F089FE46
:1024600040F22551904800F08DFEA0B18E4800F05A
:1024700009FE8F49087008460078401C087008461D
:102480000178894800F0FAFD00BF8021864800F0FD
:1024900063FE0028F9D010BD10B54021824800F03D
:1024A00068FE40F22551804800F06CFEA0B17E48E5
:1024B00000F0E8FD7F49087008460078401C08706D
:1024C00008460178784800F0D9FD00BF80217648A1
:1024D00000F042FE0028F9D010BD10B5402176482A
:1024E00000F047FE40F22551734800F04BFEA0B1CA
:1024F000714800F0C7FD7149087008460078401C1B
:102500000870084601786C4800F0B8FD00BF8021D3
:10251000694800F021FE0028F9D010BD10B5012156
:10252000674801F0EBFD6748007802281CD1664837
:10253000008828B164480088401E6349088013E081
:102540001520FEF745FA01205E490870002404E0DA
:1025500000205E490855601C84B25D4800788442C2
:10256000F6DDFF205A4908705A48008820B15948C2
:102570000088401E574908805748006820B15648D7
:102580000068401E544908605448006820B1534810
:102590000068401E514908604F48006810B14F481C
:1025A000006820B9FDF7FCFF00204D4908704D4838
:1025B000008820B14B480088401E4A4908804A489C
:1025C000006820B148480068401E474908604748F5
:1025D000006820B145480068401E444908604448EE
:1025E000006820B142480068401E414908604148E7
:1025F000007801281BD14048008840B964203E493A
:1026000008800122D1023D4800F08DF909E03A48E6
:102610000088322805D100224FF40061374800F0CD
:1026200082F935480088401E3349088028E0314847
:10263000007802281BD13048008840B932202E494A
:1026400008800122D1022D4800F06DF909E02A48E6
:102650000088192805D100224FF40061274800F0B6
:1026600062F925480088401E2349088008E0214877
:10267000007828B900224FF40061204800F053F997
:102680001F48008820B11E480088401E1C49088051
:1026900010BD00BFFEE700BFFEE700BFFEE77047CA
:1026A0007047704770470000004800407D000020E0
:1026B0007E0000207F0000200050004080000020AD
:1026C0000004004052000020300000207C01002067
:1026D0007C0000202A000020340000203800002068
:1026E000280000202C0000203C000020400000209A
:1026F000440000204C00002056000020000801404B
:102700005400002010B50446CC48844208D1012171
:10271000042000F02DFB0021042000F029FB46E0FE
:10272000C748844208D10121082000F021FB002184
:10273000082000F01DFB3AE0C248844208D1012184
:10274000102000F015FB0021102000F011FB2EE0FE
:10275000BD48844208D10121202000F009FB00215E
:10276000202000F005FB22E0B848844208D1012176
:10277000402000F0FDFA0021402000F0F9FA16E0B8
:10278000B348844208D10121802000F0F1FA0021F1
:10279000802000F0EDFA0AE0AE48844207D1012122
:1027A000801500F0E5FA0021A01500F0E1FA10BD57
:1027B00010B50121084600F0DBFA0021012000F0ED
:1027C000D7FA10BD2DE9F041024600250026002071
:1027D00000230024002791F803C00CF00F0591F8A6
:1027E00003C00CF0100CBCF1000F03D091F802C034
:1027F0004CEA050591F800C0BCF1000F31D0146817
:1028000000202BE04FF0010C0CFA00F3B1F800C0EF
:102810000CEA03069E4220D183004FF00F0C0CFA05
:1028200003F7BC4305FA03FC4CEA040491F803C027
:10283000BCF1280F06D14FF0010C0CFA00FCC2F8D5
:1028400014C00AE091F803C0BCF1480F05D14FF065
:10285000010C0CFA00FCC2F810C0401C0828D1D3AF
:102860001460B1F800C0BCF1FF0F34DD54680020E3
:102870002EE000F1080C4FF0010808FA0CF3B1F853
:1028800000C00CEA03069E4221D183004FF00F0CDA
:102890000CFA03F7BC4305FA03FC4CEA040491F874
:1028A00003C0BCF1280F05D100F1080C08FA0CF8A0
:1028B000C2F8148091F803C0BCF1480F07D100F1B1
:1028C000080C4FF0010808FA0CF8C2F81080401C00
:1028D0000828CED35460BDE8F0814FF6FF71018027
:1028E000022181700421C170704702460020936864
:1028F0000B400BB1012000E00020704701468868C2
:1029000080B2704702460020D3680B400BB1012013
:1029100000E0002070470146C86880B2704701613E
:102920007047416170470AB1016100E04161704741
:10293000C16070474FF480320A43826181618261D5
:1029400082698269704702460020434B18684FF63F
:102950008073184040EA021008433F4B18607047EC
:102960003E49C8617047F0B50A46002300240021A3
:10297000002500F00046B6F1004F02D1364EF16955
:1029800001E0354E7168C0F3034583B200F4401690
:10299000B6F5401F08D121F070612F4E766826F001
:1029A00070662D4F7E6012E000F48016B6F5801F31
:1029B00006D1032606FA05F4A14341F0706106E052
:1029C000460D360103FA06F6B14341F0706122B1BB
:1029D000460D360103FA06F6314300F00046B6F123
:1029E000004F02D11C4EF16101E01B4E7160F0BD41
:1029F00030B500228B071C0F0F2303FA04F2164B8D
:102A000008338C1053F824309343134C08348D1042
:102A100044F8253023468C1053F824308C07240FBB
:102A200000FA04F423430C4C08348D1044F825308C
:102A300030BD0A49DC3108607047000000080140E1
:102A4000000C01400010014000140140001801403A
:102A5000001C014000200140000001400000204215
:102A6000DF48006840F00100DD4908600846406822
:102A7000DC490840DA49486008460068DA490840FD
:102A8000D74908600846006820F48020086008469E
:102A9000406820F4FE0048604FF41F0088607047D3
:102AA000CF49096821F48031CD4A11601146096887
:102AB00021F480211160B0F5803F03D0B0F5802F64
:102AC0000ED106E0C649096841F48031C44A11605C
:102AD00007E0C349096841F4A021C14A116000E040
:102AE00000BF00BF704710B5014600220023002040
:102AF0004A11012A02D1BA4C236806E0022A02D107
:102B0000B74C236A01E0B64C636A01F01F0201244E
:102B100094401C400CB1012000E0002010BD38B5ED
:102B2000002000900024002500BF3120FFF7DBFFCC
:102B300005460098401C00900098B0F5A06F01D0A9
:102B4000002DF2D03120FFF7CEFF08B1012400E0C4
:102B50000024204638BD01460020A14A106820F01C
:102B6000F80040EAC10010607047A0490860704753
:102B7000024600209A4B586820F47C1042EA010378
:102B80001843974B5860704798490866704701464C
:102B90000020934A506820F00300084350607047BB
:102BA0008F48406800F00C007047014600208C4AB6
:102BB000506820F0F0000843506070470146002044
:102BC000874A506820F4E06008435060704701462F
:102BD0000020834A506820F4605040EAC1005060F1
:102BE000704729B17E4A527A02437D4B5A7204E003
:102BF0007B4A527A82437A4B5A7270477B49D8316A
:102C00000860704701460020754A506820F4404033
:102C10000843506070470021714A20321170704A99
:102C200082F82010012802D004280AD104E00121F2
:102C30006B4A2032117005E00521694A203211707B
:102C400000E000BF00BF70476949086070476449F1
:102C5000096A0143624A1162704765494439086054
:102C6000704730B500210022002400235C4D6D68C0
:102C700005F00C0121B1042905D0082923D105E074
:102C80005C4D056022E05B4D05601FE0544D6D68B2
:102C900005F47012524D6D6805F48034022505EB81
:102CA00092421CB9544D554305600BE04C4D6D6884
:102CB00005F400351DB1504D5543056002E04D4D02
:102CC0005543056002E04B4D056000BF00BF444D19
:102CD0006D6805F0F0010909484D6B5C0568DD4041
:102CE00045603F4D6D6805F4E061090A434D6B5C3A
:102CF0004568DD4085603A4D6D6805F46051C90A4C
:102D00003E4D6B5C4568DD40C560354D6D6805F432
:102D10004041890B3A4D6B5CC568B5FBF3F5056125
:102D200030BD29B12E4A526902432D4B5A6104E04D
:102D30002B4A526982432A4B5A61704729B1284A6B
:102D400092690243264B9A6104E0254A92698243C4
:102D5000234B9A61704729B1214AD2690243204B23
:102D6000DA6104E01E4AD26982431D4BDA61704782
:102D700029B11B4AD2680243194BDA6004E0184AB1
:102D8000D2688243164BDA60704729B1144A12693F
:102D90000243134B1A6104E0114A12698243104B3B
:102DA0001A61704712494039086070470F49C8647A
:102DB00070470B49C87170470948406A40F08070FD
:102DC00007494862704701460020054A92680A4058
:102DD0000AB1012000E00020704701498872704765
:102DE000001002400000FFF8FFFFF6FE0000424224
:102DF0008004424200127A0000093D008100002058
:102E00009100002010B50446FB48844209D10121FD
:102E10008803FFF7ADFF00214FF48040FFF7A8FFC4
:102E200032E0F648844209D101214804FFF7ADFFA2
:102E300000214FF40030FFF7A8FF25E0F04884425E
:102E400009D101218804FFF7A0FF00214FF4802061
:102E5000FFF79BFF18E0EB48844209D10121C80429
:102E6000FFF793FF00214FF40020FFF78EFF0BE0E8
:102E7000E548844208D101210805FFF786FF0021BB
:102E80004FF48010FFF781FF10BD2DE9F04786B0A9
:102E900005460E460024A24600BFA1460027B08981
:102EA00000B100BF2F462C8A4CF6FF700440F0881A
:102EB00004432C82AC894EF6F3100440B08831896B
:102EC0000843718908430443AC81AC8A4FF6FF4044
:102ED0000440B0890443AC8201A8FFF7C2FEC64893
:102EE000874202D1DDF810A001E0DDF80CA0A8892E
:102EF00000F4004040B10AEBCA0000EB0A10316850
:102F00004900B0FBF1F807E00AEBCA0000EB0A1039
:102F100031688900B0FBF1F86420B8FBF0F00401DF
:102F20002009642101FB1089A88900F4004040B108
:102F3000322000EBC900B0FBF1F000F007000443C1
:102F400008E0322000EB09106421B0FBF1F000F042
:102F50000F0004432C8106B0BDE8F0874FF41651F2
:102F6000016000218180C18001810C21418100210B
:102F70008181704710B502460020108A4FF2FF038E
:102F800018400B884C8823438C882343CC882343E8
:102F90001843108210BD0021018041808180C180D2
:102FA000704721B1828942F40052828104E0828913
:102FB0004DF6FF731A4082817047F0B50346002436
:102FC00000260025002040F66A17B94200D100BF54
:102FD0001846C1F3421401F01F06012707FA06F54F
:102FE000012C01D10C3004E0022C01D1103000E0A2
:102FF00014301AB107682F43076002E00768AF4337
:103000000760F0BD1AB1838A0B43838202E0838A92
:103010008B4383827047028A4FF6F0731A40028214
:10302000028A0A430282704782894FF2FF731A4074
:10303000828182890A438281704721B1828942F06C
:103040000202828104E082894FF6FD731A40828178
:103050007047028A4FF6DF731A400282028A0A43DF
:103060000282704721B1028A42F48042028204E067
:10307000028A4BF6FF731A4002827047C1F30802BE
:103080008280704701468888C0F3080070478189B4
:1030900041F0010181817047028BD2B20283028B21
:1030A00042EA012202837047028B02F47F420283CC
:1030B000028B0A430283704721B1828A42F02002C8
:1030C000828204E0828A4FF6DF731A408282704760
:1030D00021B1828A42F01002828204E0828A4FF695
:1030E000EF731A408282704721B1828A42F008024F
:1030F000828204E0828A4FF6F7731A408282704718
:1031000021B1828942F40042828103E08289C2F3C4
:103110000E028281704721B1828A42F4006282826B
:1031200004E0828A4FF2FF731A4082827047828ADB
:103130004FF6FB731A408282828A0A43828270476A
:1031400021B1828A42F00202828204E0828A4FF632
:10315000FD731A408282704702460020B1F5007F5D
:1031600000D100BF13880B400BB1012000E000200C
:10317000704701F40072B2F5007F00D100BFCA436E
:103180000280704770B5024600240023002500200D
:1031900040F66A16B14200D100BFC1F3421501F0FA
:1031A0001F03012606FA03F3012D02D1968933404D
:1031B00006E0022D02D1168A334001E0968A3340A0
:1031C0000C12012606FA04F41688344013B10CB12F
:1031D000012000E0002070BD10B50022002340F661
:1031E0006A14A14200D100BF0A1201249440A3B284
:1031F000DC43048010BD0000003801400044004062
:1032000000480040004C004000500040314901435C
:10321000314A1160704770B5002100230F22C47835
:1032200004B32D4C246804F4E064C4F5E064210A7E
:10323000C1F10403CA40447804FA03F184781440CD
:1032400021430901254C0678A155047804F01F0597
:103250000124AC4005786D11AD0005F1E025C5F8FD
:10326000004109E0047804F01F050124AC401C4D26
:103270000678761145F8264070BD1A4A0A40024386
:10328000154B1B1F1A60704739B1134A121D126883
:103290000243114B1B1D1A6006E00F4A121D1268F3
:1032A00082430D4B1B1D1A607047042808D14FF054
:1032B000E021096941F004014FF0E022116107E0CB
:1032C0004FF0E021096921F004014FF0E022116183
:1032D000704700000000FA050CED00E000E400E09B
:1032E00080E100E080FFFF1F10B50446FE488442E5
:1032F00008D10121C014FFF73BFD0021E014FFF7C6
:1033000037FDC4E0B4F1804F08D101210846FFF732
:103310003CFD00210120FFF738FDB8E0F34884426E
:1033200008D101210220FFF730FD00210220FFF724
:103330002CFDACE0EE48844208D101210420FFF7C7
:1033400024FD00210420FFF720FDA0E0E94884428D
:1033500008D101210820FFF718FD00210820FFF700
:1033600014FD94E0E448844208D101211020FFF7C5
:103370000CFD00211020FFF708FD88E0DF488442A3
:1033800008D101212020FFF700FD00212020FFF7B8
:10339000FCFC7CE0DA48844208D101214014FFF7AC
:1033A000E7FC00216014FFF7E3FC70E0D54884429D
:1033B00009D10121C804FFF7DBFC00214FF40020F4
:1033C000FFF7D6FC63E0D048844209D1012108050B
:1033D000FFF7CEFC00214FF48010FFF7C9FC56E048
:1033E000CA48844209D101214805FFF7C1FC0021E8
:1033F0004FF40010FFF7BCFC49E0C548844208D1F7
:1034000001214020FFF7C1FC00214020FFF7BDFC57
:103410003DE0C048844208D101218020FFF7B5FC7F
:1034200000218020FFF7B1FC31E0BB48844208D185
:1034300001218015FFF7A9FC0021A015FFF7A5FCCD
:1034400025E0B648844209D101210804FFF790FC29
:1034500000214FF48030FFF78BFC18E0B048844225
:1034600009D101214804FFF783FC00214FF400300B
:10347000FFF77EFC0BE0AB48844208D101218804B1
:10348000FFF776FC00214FF48020FFF771FC10BDA0
:1034900000220288944B98420ED0994B98420BD050
:1034A000B0F1804F08D0914B984205D0904B984294
:1034B00002D0904B984204D14FF68F731A404B883C
:1034C0001A438D4B984207D08C4B984204D04FF64C
:1034D000FF431A40CB881A4302808B8883850B8870
:1034E0000385814B98420BD0854B984208D08B4B7B
:1034F000984205D08A4B984202D08A4B984201D11B
:103500000B7A038601238382704770B50024002262
:103510000023058C4FF6FE7635400584028C8388A7
:10352000048B4FF68F752C40B51E2C400D882C4314
:10353000751E2A400D892A434D882A436A4DA842A8
:103540000BD06F4DA84208D0744DA84205D0744DE1
:10355000A84202D0734DA84213D14FF6F7752A4006
:103560004D892A434FF6FB752A408D882A434FF632
:10357000FF652B404FF6FF552B408D892B43CD899E
:103580002B4383800483CD888586028470BD70B50B
:10359000002400220023058C4FF6EF763540058489
:1035A000028C8388048B48F6FF752C404FF6FF454C
:1035B0002C400D884FF6FF7606EA05252C434FF682
:1035C000DF752A400D8906EA05152A434D8806EA6B
:1035D00005152A43444DA84202D0494DA8421DD1A9
:1035E0004FF67F752A404D894FF6FF7606EA05159E
:1035F0002A434FF6BF752A408D8806EA05152A43EF
:103600004FF6FF352B404FF2FF752B408D8906EAB0
:1036100085052B43CD8906EA85052B4383800483EA
:10362000CD880587028470BD70B500240022002378
:10363000058C4FF6FF6635400584028C8388848BA9
:103640004FF68F752C404FF6FC752C400D882C439F
:103650004FF6FF552A400D894FF6FF7606EA0525FD
:103660002A434D8806EA05252A431F4DA84202D069
:10367000234DA8421DD14FF2FF752A404D894FF6C8
:10368000FF7606EA05252A434FF6FF352A408D8846
:1036900006EA05252A434EF6FF752B404DF6FF75C9
:1036A0002B408D8906EA05152B43CD8906EA0515C1
:1036B0002B4383808483CD888587028470BD70B559
:1036C000002200230024058C4EF6FF763540058449
:1036D000038C8488828B48F6FF752A404FF6FF459D
:1036E0002A400D8820E00000002C0140000400402A
:1036F00000080040000C0040001000400014004092
:1037000000340140004C0140005001400054014091
:1037100000180040001C0040002000400040014014
:1037200000440140004801404FF6FF7606EA0525B7
:103730002A434DF6FF752B400D8906EA05352B43CC
:103740004D8806EA05352B43FA4DA84202D0FA4DC2
:10375000A84208D14BF6FF752C408D894FF6FF76B5
:1037600006EA85152C4384808283CD88A0F84050DA
:10377000038470BD828B4FF2FF331A408283828BA9
:103780004FF6FF7303EA01231A4382837047F0B5B3
:103790000C461546002200210026078C4EF6FF7CC1
:1037A00007EA0C070784828B018C4FF6FF7707EA44
:1037B000043640F6FF473A404FF6FF7707EA052701
:1037C0003A434FF6FF7707EA03373A43D94FB842F7
:1037D0000ED0D94FB8420BD0B0F1804F08D0D74FA0
:1037E000B84205D0D64FB84202D0D64FB84206D123
:1037F0004DF6FF77394046F48057394305E047F6E8
:10380000FF57394044F48057394382830184F0BD27
:10381000828B4FF6F3731A408283828B0A43828332
:103820007047F0B50C461546002200210026078C93
:103830004FF6FF6C07EA0C070784828B018C4FF66A
:10384000FF7707EA04264FF60C773A404FF6FF77EA
:1038500007EA03172F433A43B64FB8420ED0B64F8C
:10386000B8420BD0B0F1804F08D0B44FB84205D069
:10387000B34FB84202D0B34FB84206D14FF6FF570C
:10388000394046F48077394305E04FF2FF5739401D
:1038900044F48077394382830184F0BD028B4FF278
:1038A000FF331A400283028B4FF6FF7303EA0123B2
:1038B0001A4302837047F0B50C46154600220021DA
:1038C0000026078C4FF6EF7C07EA0C070784028B73
:1038D000018C4FF6FF7707EA041640F6FF473A409F
:1038E0004FF6FF7707EA03373A434FF6FF7707EAC9
:1038F00005273A438F4FB8420ED08F4FB8420BD0B6
:10390000B0F1804F08D08D4FB84205D08C4FB842EF
:1039100002D08C4FB84206D14FF6DF77394046F0DF
:103920001007394305E04FF65F77394044F0100740
:10393000394302830184F0BD028B4FF6F3731A40C2
:103940000283028B0A4302837047F0B50C4615468A
:1039500000220021068C4FF6FE773E400684028B43
:10396000018C4FF60C7632407E1C06EA03162E437D
:103970003243704EB0420ED06F4EB0420BD0B0F119
:10398000804F08D06D4EB04205D06D4EB04202D08F
:103990006C4EB04206D14FF6FD76314044F0010640
:1039A000314305E04FF6F576314044F001063143EE
:1039B00002830184F0BD70B505460C465D48854222
:1039C0000ED05D4885420BD0B5F1804F08D05B48E2
:1039D000854205D05A48854202D05A48854200D1D6
:1039E00000E000BF208850B92389A288618828465A
:1039F000FFF7ABFFE1882846FFF79EFF25E0208810
:103A000004280AD12389A28861882846FFF753FF3A
:103A1000E1882846FFF742FF17E0208808280AD1EE
:103A20002389A28861882846FFF7FBFEE1882846A3
:103A3000FFF7EEFE09E02389A28861882846FFF798
:103A4000A6FEE1882846FFF795FE70BD2DE9F041FE
:103A500005460C4600260127608808B9022600E0CA
:103A60000026A088012801D1022700E00127208834
:103A7000A0B92389A28861882846FFF766FFE188FC
:103A80002846FFF759FF23893A4631462846FFF773
:103A900012FFE1882846FFF701FF13E02389A2887F
:103AA00061882846FFF707FFE1882846FFF7F6FE02
:103AB00023893A4631462846FFF747FFE1882846E2
:103AC000FFF73AFFBDE8F0810A884B881A438B88DC
:103AD0001A43CB881A430B891A434B891A438B89A3
:103AE0001A43A0F8442070474FF6FF7181800021EF
:103AF0000180C180418001727047002101804180B6
:103B00008180C180018141818181C1817047002113
:103B100001804180012181800021C18001817047A5
:103B20000021018041808180C180018141818181AA
:103B300070470000002C01400034014000040040A8
:103B400000080040000C004021B1028842F0010250
:103B5000028004E002884FF6FE731A40028070472C
:103B600031B1B0F8442042F40042A0F8442005E00E
:103B7000B0F84420C2F30E02A0F8442070471AB1F6
:103B800083890B43838102E083898B438381704760
:103B90008182704741EA0203A0F8483070471AB1A9
:103BA00083890B43838102E083898B438381704740
:103BB00001894FF6F8721140018170470A460021D1
:103BC00001894FF68F73194011430181704730B559
:103BD00004460D4629462046FFF7F0FF208940F0B5
:103BE0000700208130BD2DE9F04104460D46164600
:103BF0001F46602D06D13B46012231462046FFF785
:103C00005AFE05E03B46012231462046FFF79DFE65
:103C100029462046FFF7D2FF208940F00700208187
:103C2000BDE8F08130B50C4600210189C9B24FF6DC
:103C3000FF7505EA0325154325432943018130BD5E
:103C40002DE9F04105460E461746984600244346A6
:103C50003A4631462846FFF7E5FF2C894FF6F870C3
:103C6000044044F007044FF68F70044044F07004A1
:103C70002C81BDE8F081F0B504460D4616461F467E
:103C80003B46324629462046FFF7CCFF208940F4C8
:103C900080402081F0BD0185828270470A46002164
:103CA00001884FF68F731940114301807047F0B5BA
:103CB0000C4615461E460021002200230189028B76
:103CC000038C4FF6F877394021434FF6FC473A40D2
:103CD00040F201173A434FF6DD773B404FF6FF774E
:103CE00007EA06172F433B43018102830384F0BD9B
:103CF0000A460021018B4FF68F731940114301834F
:103D000070470A460021018B48F6FF7319404FF6B1
:103D1000FF7303EA02231943018370470A46002117
:103D2000818B4FF68F7319401143818370470A4688
:103D30000021818B48F6FF7319404FF6FF7303EAA9
:103D4000022319438183704721B1028842F0800227
:103D5000028004E002884FF67F731A4002807047A9
:103D600021B1828842F00402828004E082884FF60A
:103D7000FB731A408280704721B1828842F00802AA
:103D8000828004E082884FF6F7731A408280704781
:103D900021B1828842F00102828004E082884FF6DD
:103DA000FE731A40828070470A460021018B4FF64D
:103DB000F77319401143018370470A460021018BB4
:103DC0004FF2FF7319404FF6FF7303EA02231943C2
:103DD000018370470A460021818B4FF6F773194023
:103DE0001143818370470A460021818B4FF2FF7394
:103DF00019404FF6FF7303EA02231943818370478A
:103E00000A460021018B4FF6FB73194011430183D1
:103E100070470A460021018B4FF6FF3319404FF6D9
:103E2000FF7303EA02231943018370470A46002106
:103E3000818B4FF6FB7319401143818370470A460B
:103E40000021818B4FF6FF3319404FF6FF7303EAD1
:103E500002231943818370470A460021018B4FF6E4
:103E60007F7319401143018370470A460021018B7B
:103E7000C1F30E014FF6FF7303EA022319430183D6
:103E800070470A460021818B4FF67F73194011431A
:103E9000818370470A460021818BC1F30E014FF6E2
:103EA000FF7303EA02231943818370470A46002106
:103EB000018C4FF6FD7319401143018470470A4687
:103EC0000021018C4FF6F7731940114301847047AC
:103ED0000A460021018C4FF6DF7319404FF6FF733D
:103EE00003EA02131943018470470A460021018C3A
:103EF0004FF67F7319404FF6FF7303EA021319431D
:103F0000018470470A460021018C4FF6FF53194087
:103F10004FF6FF7303EA02231943018470470A46F0
:103F20000021018C4FF2FF7319404FF6FF7303EA33
:103F300002231943018470470A460021018C4DF683
:103F4000FF7319404FF6FF7303EA023319430184EC
:103F5000704730B5002301248C40A3B2048C9C43ED
:103F60000484048C02FA01F5ADB22C43048430BD04
:103F700030B5002304248C40A3B2048C9C430484F9
:103F8000048C02FA01F5ADB22C43048430BD70B547
:103F90000346002000241846183001258D40ACB29D
:103FA0001D8CA5431D8409B1082909D100EB6100CE
:103FB000056825F0700505600568154305600EE08D
:103FC0000D1FC5F34E052844056825F4E04505603E
:103FD00005684FF6FF7606EA02263543056070BD98
:103FE00021B1028842F00202028004E002884FF60A
:103FF000FD731A400280704721B1028842F004022A
:10400000028004E002884FF6FB731A40028070477A
:1040100021B1828842F08002828004E082884FF6DB
:104020007F731A408280704702884FF6F7731A40F8
:10403000028002880A430280704782884FF68F739D
:104040001A40828082880A438280704702894FF634
:10405000F8731A40028102890A430281704702897B
:104060004FF67F731A40028102890A43028170472A
:1040700081847047818570478186704701877047CA
:1040800081877047A0F84010704702884FF6FF43C1
:104090001A40028002880A43028070470146888ED7
:1040A00070470146088F70470146888F7047014668
:1040B000B1F8400070470146888C70470146088D72
:1040C000704702460020138A0B400BB1012000E02C
:1040D00000207047CA430282704730B50246002074
:1040E00000230024158A05EA0103958905EA0104E5
:1040F00013B10CB1012000E0002030BDCA430282A0
:104100007047014601EBC1024FF0E0235A610122E2
:104110001A6100229A6100BF4FF0E022106900F09E
:1041200001021AB100F48032002AF5D000224FF0CB
:10413000E0231A619A617047014642F228324A43ED
:104140004FF0E0235A6101221A6100229A6100BFF8
:104150004FF0E022106900F001021AB100F4803241
:10416000002AF5D000224FF0E0231A619A617047CF
:1041700000B587B001210420FEF7E0FD012188038E
:10418000FEF7DCFD01210846FEF7D8FD4FF4007074
:10419000ADF8180003208DF81A0018208DF81B00C8
:1041A00006A9DB48FEF70EFB4FF48060ADF818005F
:1041B00004208DF81B0006A9D548FEF703FB4FF439
:1041C000614002900020ADF80C00ADF80E00ADF893
:1041D0001000ADF814000C20ADF8120002A9CD4873
:1041E000FEF753FE0121CB48FEF7DBFE012240F231
:1041F0002551C848FEF7E1FE4021C648FEF7B9FF49
:104200004FF4C060FFF702F825208DF8040000206D
:104210008DF805008DF8060001208DF8070001A833
:10422000FEF7F9FF07B000BD00B587B001210420FB
:10423000FEF784FD01214804FEF78DFD01210846AB
:10424000FEF77CFD0420ADF8180003208DF81A005D
:1042500018208DF81B0006A9AD48FEF7B3FA082018
:10426000ADF8180004208DF81B0006A9A848FEF739
:10427000A9FA4FF4165002900020ADF80C00ADF8EA
:104280000E00ADF81000ADF814000C20ADF81200CF
:1042900002A9A148FEF7F9FD01219F48FEF781FE22
:1042A000012240F225519C48FEF787FE40219A48A2
:1042B000FEF75FFF4FF4C060FEF7A8FF26208DF8E1
:1042C000040000208DF805008DF8060001208DF80F
:1042D000070001A8FEF79FFF07B000BD00B587B03B
:1042E00001210820FEF72AFD01218804FEF733FD95
:1042F00001210846FEF722FD4FF48060ADF818005A
:1043000003208DF81A0018208DF81B0006A9834899
:10431000FEF758FA4FF40060ADF8180004208DF84D
:104320001B0006A97D48FEF74DFA4FF4E1300290DC
:104330000020ADF80C00ADF80E00ADF81000ADF89F
:1043400014000C20ADF8120002A97548FEF79DFD7F
:1043500001217348FEF725FE012240F225517048E5
:10436000FEF72BFE40216E48FEF703FF4FF4E0609E
:10437000FEF74CFF27208DF8040000208DF8050083
:104380008DF8060001208DF8070001A8FEF743FF15
:1043900007B000BD00B587B001211020FEF7CEFCAC
:1043A0000121C804FEF7D7FC01210846FEF7C6FC30
:1043B0004FF48060ADF8180003208DF81A00182023
:1043C0008DF81B0006A95748FEF7FCF94FF4006072
:1043D000ADF8180004208DF81B0006A95148FEF71F
:1043E000F1F94FF4165002900020ADF80C00ADF832
:1043F0000E00ADF81000ADF814000C20ADF812005E
:1044000002A94948FEF741FD01214748FEF7C9FDD1
:10441000012240F225514448FEF7CFFD4021424899
:10442000FEF7A7FE4FF4C060FEF7F0FE34208DF8D3
:10443000040000208DF805008DF8060001208DF89D
:10444000070001A8FEF7E7FE07B000BD00B587B082
:1044500001211020FEF772FC01212020FEF76EFCE6
:1044600001210805FEF777FC01210846FEF766FCEE
:104470004FF48050ADF8180003208DF81A00182072
:104480008DF81B0006A92748FEF79CF90420ADF81B
:1044900018008DF81B0006A92448FEF793F94FF485
:1044A000165002900020ADF80C00ADF80E00ADF8EB
:1044B0001000ADF814000C20ADF8120002A91C4841
:1044C000FEF7E3FC01211A48FEF76BFD012240F2E2
:1044D00025511748FEF771FD40211548FEF749FEAA
:1044E0004FF4C060FEF792FE35208DF804000020E6
:1044F0008DF805008DF8060001208DF8070001A851
:10450000FEF789FE07B000BD10B5FFF731FE10BD04
:10451000000801400038014000440040000C014008
:104520000048004000100140004C004000140140D1
:10453000005000401FB501210220FEF70CFC0121B4
:104540001748FFF7DBFD2720ADF8080048F69F402D
:10455000ADF804000020ADF80A00ADF8060001A98E
:104560000F48FEF795FF01210D48FFF7EDFA0122F4
:1045700011460B48FFF703FB4FF4C060FEF746FE01
:104580001D208DF8000000208DF8010001208DF81D
:1045900002008DF803006846FEF73DFE1FBD0000D7
:1045A0000004004000B587B001210420FEF7C6FBDF
:1045B00001210803FEF7C2FBE020ADF81800182027
:1045C0008DF81B0003208DF81A0006A96848FEF735
:1045D000F9F8E0216648FEF7A2F90020ADF80400E2
:1045E0004FF48270ADF806000020ADF808000220FC
:1045F000ADF80A000120ADF80C004002ADF80E0045
:104600003820ADF810000020ADF812000720ADF8FA
:10461000140001215748FDF712FC01A95548FDF788
:1046200069FB07B000BD00B587B001210820FEF787
:1046300085FB01218803FEF78EFB4FF46040ADF847
:10464000180018208DF81B0003208DF81A0006A909
:104650004948FEF7B7F80020ADF804004FF4827027
:10466000ADF806000020ADF80800ADF80A00ADF87E
:104670000C004FF40070ADF80E003820ADF81000BB
:104680000020ADF812000720ADF8140001213B48CE
:10469000FDF7D5FB01A93948FDF72CFB07B000BD9C
:1046A00010B50446334800884FF6C77108403149B9
:1046B0000880084600882043088001212D48FDF726
:1046C000BEFB10BD10B504462C4800884FF6C771DC
:1046D00008402A49088008460088204308800121B4
:1046E0002648FDF7ACFB10BD70B50446002507E079
:1046F000681C85B242F21070854201DDFF2070BD5A
:1047000002211C48FDF71FFC0028F1D02146194862
:10471000FDF7C6FB00BF01211648FDF714FC002879
:10472000F9D01448FDF7BEFBC0B2E8E770B5044607
:10473000002507E0681C85B242F21070854201DD59
:10474000FF2070BD02210D48FDF7FDFB0028F1D0D0
:1047500021460A48FDF7A4FB00BF01210748FDF7E9
:10476000F2FB0028F9D00548FDF79CFBC0B2E8E752
:104770000008014000300140000C014000380040BA
:1047800010B500241021D248FEF7CBF84FF4804139
:10479000D048FEF7C4F84FF48051CF48FEF7BFF879
:1047A0009020FFF7A1FF0020FFF79EFF0020FFF7FA
:1047B0009BFF0020FFF798FFFF20FFF795FF44EADB
:1047C0000024FF20FFF790FF04431021C048FEF7AC
:1047D000A6F8204610BD08B501210420FEF7AEFA68
:1047E0001020ADF800008DF8030003208DF80200C2
:1047F0006946B748FDF7E6FF1021B548FEF78FF888
:10480000FFF7D0FEFFF7BCFF204608BD70B50024BF
:1048100000BF641CB4F1704F01D3FF2070BD1021A4
:10482000AB48FEF77EF84FF48041AA48FEF777F8D0
:104830004FF48051A848FEF772F80520FFF754FFA7
:10484000FF20FFF751FF05461021A148FEF767F84A
:1048500005F001000028DCD100BFDFE770B5054698
:104860000C4616460020FFF71BFFFFF7CFFF102175
:104870009748FEF756F84FF480419648FEF74FF8F8
:104880004FF480519448FEF74AF80320FFF72CFFBD
:10489000C4F30740FFF728FFC4F30720FFF724FF06
:1048A000E0B2FFF721FF04E0FF20FFF71DFF2870B3
:1048B0006D1C3000A6F101018EB2F5D110218448A3
:1048C000FEF72DF870BD10B510218148FEF729F8CC
:1048D0004FF480417F48FEF722F84FF480517E4824
:1048E000FEF71DF80620FFF7FFFE10217848FEF7BF
:1048F00016F810BD10B50446FFF788FFFFF7E3FF79
:1049000010217348FEF70DF84FF480417148FEF70F
:1049100006F84FF480517048FEF701F82020FFF7A9
:10492000E3FEC4F30740FFF7DFFEC4F30720FFF701
:10493000DBFEE0B2FFF7D8FE10216548FDF7EFFF80
:1049400010BD10B5FFF762FFFFF7BDFF10216048F3
:10495000FDF7E7FF4FF480415E48FDF7E0FF4FF4BD
:1049600080515D48FDF7DBFFC720FFF7BDFE10213A
:104970005748FDF7D4FF10BD2DE9F04107460D461D
:104980001446EEB2C6F58076B44200DC26463CE022
:10499000FFF73CFFFFF797FF10214D48FDF7C1FFE0
:1049A0004FF480414B48FDF7BAFF4FF480514A481D
:1049B000FDF7B5FF0220FFF797FEC5F30740FFF7AD
:1049C00093FEC5F30720FFF78FFEE8B2FFF78CFEDA
:1049D0004FF0000807E03878FFF786FE7F1C08F1EB
:1049E00001001FFA80F8B045F5DB10213848FDF7CB
:1049F00096FFB44200D109E03544A01B84B2FF2CDD
:104A000002DD4FF4807600E02646C1E700BFBDE836
:104A1000F0812DE9F04781460F4616460020FFF74A
:104A20003FFEC7F30F38C7F30B0ACAF58054A642FE
:104A300000DA344647E04FEA08314FF48052274805
:104A4000FFF70CFF002508E00AEB05002349085C8E
:104A5000FF2800D003E0681C85B2A542F4DB00BF4C
:104A6000A54217DA4FEA0830FFF744FF002507E0B8
:104A700019F805000AEB0501184A5054681C85B264
:104A8000A542F5DB4FEA08314FF480521348FFF797
:104A900073FF04E0224639464846FFF76DFFB442F3
:104AA00000D111E0A1442744301B86B208F1010077
:104AB0001FFA80F84FF0000AB6F5805F02DB4FF472
:104AC000805400E03446B6E700BFBDE8F087000040
:104AD0000008014000200140000C0140B802002005
:104AE00008B54BF20200ADF8000010208DF803006D
:104AF00003208DF802006946FD48FDF763FE4BF286
:104B00000201FB48FDF70BFF4FF48040ADF80000B9
:104B100048208DF803006946F548FDF753FE08BDAF
:104B20002DE9F04106460D460020F2490860F249A1
:104B3000C1F8B0017E2000EA4607082412E0C7F35E
:104B4000C010EC49083108600120EB49C1F8B401FC
:104B50007806070E0020E74908600A20FFF7D1FA1F
:104B6000601EC4B2002CEADC082412E0C5F3C010B9
:104B7000E049083108600120DF49C1F8B401680646
:104B8000050E0020DB4908600A20FFF7BAFA601E14
:104B9000C4B2002CEADC0120D649091F0860D649BE
:104BA000C1F8B401BDE8F0812DE9F04106460025C9
:104BB0000020D0490860D049C1F8B0017E2000EA49
:104BC000460040F08007082412E0C7F3C010C9492E
:104BD000083108600120C849C1F8B4017806070E01
:104BE0000020C44908600A20FFF78BFA601EC4B297
:104BF000002CEADC082410E00120BE4908606806A9
:104C0000050EBD48D0F838012843C5B20020086021
:104C10000A20FFF776FA601EC4B2002CECDC0120FB
:104C2000B449091F0860B449C1F8B4012846BDE879
:104C3000F08170B505460C4600262846FFF7B4FF04
:104C4000064646EA04012846FFF76AFF70BD70B5C4
:104C500005460C4600262846FFF7A6FF064626EA2C
:104C600004012846FFF75CFF70BD2DE9FE4F0646A4
:104C7000884691469A46DDF830B0FE20029000202A
:104C8000019000900C2E06D00E2E09D1122001901A
:104C90001020009005E0772001903020009000E087
:104CA00000BF00BF019840F080010220FFF738FFED
:104CB00080210420FFF7CBFF00210120FFF730FF08
:104CC00080210A20FFF7B5FF002505E018F8051040
:104CD0000920FFF725FF6D1C4D45F7D33146012014
:104CE000FFF71EFF0C2E03D180210D20FFF7A1FF3F
:104CF0004FF4167500BF0420FFF756FF04466D1EE3
:104D000035B104F0010018B9009820400028F2D015
:104D100080210D20FFF79BFF95B30620FFF744FF8E
:104D200000F01B0068BB002002900198204000F0BA
:104D3000010008B1FF2002900C2E24D10A20FFF7B9
:104D400033FF04460C20FFF72FFF00F007072FB1B9
:104D5000601E07EBC000CBF8000002E0E000CBF8DB
:104D6000000004B90124122C00DD1224002505E006
:104D70000920FFF719FF0AF805006D1CA542F7D3BB
:104D800001E0FE20029080210C20FFF752FF00215D
:104D90000120FFF7C5FE0298BDE8FE8F2DE9F04126
:104DA00007468846154604210520FFF750FF0021DD
:104DB0000120FFF7B5FE80210A20FFF73AFF00240B
:104DC00005E0395D0920FFF7ABFE601CC4B2444525
:104DD000F7DB03210120FFF7A3FEFF2400BF05201E
:104DE000FFF7E2FE0646601EC4B21CB106F00400E6
:104DF0000028F4D02220FFF7D7FE28702120FFF7EB
:104E0000D3FE6870BDE8F081F0B587B005460E4668
:104E100030208DF804008DF805500DF106020221B6
:104E200001A8FFF7BBFF06A801AB042201A900906F
:104E30000C20FFF71AFF074667B90698902809D19A
:104E4000002404E001A8005D3055601CC4B2102CA1
:104E5000F8DB00E0FE27384607B0F0BDF0B587B0BC
:104E600006460F46A0208DF804008DF805600DF170
:104E70000602022101A8FFF791FF06A801AB042258
:104E800001A900900C20FFF7F0FE054645B90698F1
:104E9000042805D19DF8040000F00F000A2800D076
:104EA000FE250DBB002404E0385D01A90855601CF7
:104EB000C4B2102CF8DB05AA102101A8FFF76EFF81
:104EC00006A801AB122201A900900C20FFF7CDFE2D
:104ED000054645B90698042805D19DF8040000F060
:104EE0000F000A2800D0FE25284607B0F0BD0000BC
:104EF000000C0140B4812142008021422DE9F043A1
:104F000087B006460F46904699468DF804608DF8A6
:104F10000570002406E018F8041001AAA01C115422
:104F2000601CC4B2062CF6DB002407E019F804105C
:104F300001AA04F108001154601CC4B2062CF5DB70
:104F400006A801AB0C2201A900900E20FFF78DFEF0
:104F500005462DB90820FFF727FE00F0080000B92C
:104F6000FE25284607B0BDE8F08370B588B0054639
:104F700093208DF8080070208DF8090000208DF82E
:104F80000E0000240BE0295D02AAA01C11549DF81C
:104F90000E00295D48408DF80E00601CC4B2042C40
:104FA000F1DB0DF10F02072102A8FFF7F7FE082140
:104FB0000846FFF74CFE07A802AB092202A90090A1
:104FC0000C20FFF752FE064626B90798182801D193
:104FD000002600E0FE26304608B070BDF0B587B070
:104FE0000546002708210846FFF731FE00210D2065
:104FF000FFF796FD80210E20FFF729FE93208DF804
:10500000040020208DF8050006A801AB022201A9AA
:1050100000900C20FFF729FE064686B9002407E021
:1050200001A8005D285501A8005D4740601CC4B27E
:10503000042CF5DB01A8005DB84200D0FE268021DB
:105040000E20FFF7F6FD304607B0F0BD70B588B012
:1050500005460C4608210846FFF7F9FD07210D20FB
:10506000FFF75EFD03211420FFF7E3FD8DF80850E4
:1050700007A802AB012202A900900C20FFF7F5FD62
:1050800006464EB90798102806D19DF808002070F2
:105090009DF80900607000E0FE26304608B070BD43
:1050A00010B51420FFF780FD044604F0030018B982
:1050B00003211420FFF7BDFD10BD10B503211420FE
:1050C000FFF7C5FD10BD10B50120C64908600A20D4
:1050D000FFF717F80020C449C1F884010A20FFF740
:1050E00010F80120BF4908600A20FFF70AF80F21D5
:1050F0000120FFF715FD0A20FFF703F83D211120DD
:10510000FFF70EFD1E212D20FFF70AFD00212C20A8
:10511000FFF706FD8D212A20FFF702FD3E212B20FF
:10512000FFF7FEFC40211520FFF7FAFC002010BD20
:1051300010B58EB0ADA30FCB02AC0FC4AFA103C9A5
:10514000CDE9000106A95220FFF780FF0446ACB16B
:105150001920AC4908800CE0FFF7B5FFFFF7ADFF61
:10516000FFF79EFF06A95220FFF770FF044604B91F
:1051700003E0A44800880028EED100BF1920A1490F
:10518000088000BF06A8FFF729FF044604B903E022
:105190009C4800880028F5D100BF19209949088053
:1051A00000BF06A8FFF7E1FE044604B903E09548F6
:1051B00000880028F5D100BF19209249088000BF5F
:1051C00006AB6A4608216020FFF798FE044604B942
:1051D00003E08C4800880028F2D100BF32208949C2
:1051E000088000BF02A90820FFF738FE044604B972
:1051F00003E0844800880028F4D100BF32208149B0
:10520000088000BF06A90820FFF7FEFD044604B988
:1052100003E07C4800880028F4D100BF0EB010BD28
:105220002DE9F04188B007460E4690468DF808708B
:105230008DF809600DF10A02022102A8FFF7AEFD08
:1052400007A802AB042202A900900C20FFF70DFD75
:10525000044644B90798042805D19DF8080000F0D9
:105260000F000A2800D0FE24E4B9002505E018F854
:10527000050002A94855681CC5B2102DF7DB03AA2A
:10528000042102A8FFF78AFD0020079007A802ABBF
:10529000062202A900900C20FFF7E7FC0446FE2C32
:1052A00000D00024F4B9B0208DF808008DF8096012
:1052B0000DF10A02022102A8FFF770FD07A802AB58
:1052C000042202A900900C20FFF7CFFC044644B949
:1052D0000798042805D19DF8080000F00F000A285F
:1052E00000D0FE24204608B0BDE8F08170B588B03B
:1052F00005460E46C2208DF808008DF809500DF1C4
:105300000A02022102A8FFF749FD07A802AB042206
:1053100002A900900C20FFF7A8FC044644B90798A6
:10532000042805D19DF8080000F00F000A2800D0DD
:10533000FE24CCB900208DF808008DF809008DF806
:105340000A008DF80B0003AA042102A8FFF726FD2E
:1053500007A802AB062202A900900C20FFF785FCEB
:105360000446FE2C00D0002414B1FE2008B070BD0D
:10537000B0208DF808008DF809600DF10A020221B5
:1053800002A8FFF70BFD07A802AB042202A90090B8
:105390000C20FFF76AFC044644B90798042805D19D
:1053A0009DF8080000F00F000A2800D0FE242046D7
:1053B000DCE700B587B050208DF8040000208DF8A0
:1053C00005000DF10602022101A8FFF7E7FC06A87F
:1053D00001AB042201A900900C20FFF746FC00203D
:1053E00007B000BD8481214200802142FF345678FD
:1053F000EDCBA9871234567801FE01FEFFFFFFFFB7
:10540000FFFF00005400002010B545F25550FCF796
:10541000D1FD0420FCF7D1FD4FF44870FCF7D0FD1E
:10542000FCF7D1FDFCF7D4FD10BD032A40F230801B
:1054300010F0030C00F0158011F8013BBCF1020FD5
:10544000624498BF11F801CB00F8013B38BF11F856
:10545000013BA2F1040298BF00F801CB38BF00F86D
:10546000013B11F0030300F02880083AC0F00880E7
:1054700051F8043B083A51F804CBA0E80810F5E7CE
:10548000121D5CBF51F8043B40F8043BAFF30080B1
:10549000D20724BF11F8013B11F801CB48BF11F826
:1054A000012B24BF00F8013B00F801CB48BF00F8F6
:1054B000012B704770477047704710B5203AC0F015
:1054C0000B80B1E81850203AA0E81850B1E8185005
:1054D000A0E81850BFF4F5AF5FEA027C24BFB1E842
:1054E0001850A0E8185044BF18C918C0BDE81040B3
:1054F0005FEA827C24BF51F8043B40F8043B08BFBC
:105500007047D20728BF31F8023B48BF11F8012B82
:1055100028BF20F8023B48BF00F8012B70477546B2
:1055200000F028F8AE4605006946534620F0070013
:10553000854618B020B5FCF7A5FBBDE820404FF02C
:1055400000064FF000074FF000084FF0000B21F06D
:105550000701AC46ACE8C009ACE8C009ACE8C0093A
:10556000ACE8C0098D4670470446AFF30080204682
:10557000FAF725FE00487047B812002001491820AC
:10558000ABBEFEE72600020070470000AC550008E5
:1055900000000020980000006C010008445600083C
:1055A000980000208018000088010008534D413009
:1055B0003030314156312E30523032313233343581
:1055C00036373839303132333435363738393001BF
:1055D00000000000000000000000000000000000CB
:1055E00000000000000000000000000000000000BB
:1055F00000000000000000000100000000000100A9
:10560000000000000000000000000000000000009A
:105610000000000000A24A0400000000000000009A
:105620000102030406070809000000000000000052
:10563000000102030401020304060708090204062C
:04564000080000005E
:0400000508000131BD
:00000001FF
